{
  "contracts/mirrorEvent.sol": {
    "mirrorEvent": {
      "abi": [
        {
          "anonymous": false,
          "inputs": [
            {
              "indexed": false,
              "internalType": "string",
              "name": "_cid",
              "type": "string"
            }
          ],
          "name": "newCID",
          "type": "event"
        },
        {
          "inputs": [
            {
              "internalType": "string",
              "name": "_cid",
              "type": "string"
            }
          ],
          "name": "emitCID",
          "outputs": [],
          "stateMutability": "nonpayable",
          "type": "function"
        }
      ],
      "evm": {
        "bytecode": {
          "linkReferences": {},
          "object": "6080806040523461001657610178908161001c8239f35b600080fdfe6080600436101561000f57600080fd5b6000803560e01c6302f4e3601461002557600080fd5b3461013f5760208060031936011261013b5760043567ffffffffffffffff93848211610137573660238301121561013757816004013585811161012357601f199283603f81601f85011601168301968388109088111761010f57604096604052818352366024838301011161010b5781869260248793018386013783010152604051928084528151918282860152855b8381106100f857867fdf3119d672469028c249fd5e0467ed8c0eea0dd8cda29c88a7c89cf69f017b9d8760408189601f8a8785828601015201168101030190a180f35b81810183015186820189015282016100b5565b8580fd5b634e487b7160e01b86526041600452602486fd5b634e487b7160e01b85526041600452602485fd5b8380fd5b5080fd5b80fdfea2646970667358221220ceba79d62229598b6ef4b6fba95297b800f212f07713add82805397fbb92adbf64736f6c63430008180033",
          "opcodes": "PUSH1 0x80 DUP1 PUSH1 0x40 MSTORE CALLVALUE PUSH2 0x16 JUMPI PUSH2 0x178 SWAP1 DUP2 PUSH2 0x1C DUP3 CODECOPY RETURN JUMPDEST PUSH1 0x0 DUP1 REVERT INVALID PUSH1 0x80 PUSH1 0x4 CALLDATASIZE LT ISZERO PUSH2 0xF JUMPI PUSH1 0x0 DUP1 REVERT JUMPDEST PUSH1 0x0 DUP1 CALLDATALOAD PUSH1 0xE0 SHR PUSH4 0x2F4E360 EQ PUSH2 0x25 JUMPI PUSH1 0x0 DUP1 REVERT JUMPDEST CALLVALUE PUSH2 0x13F JUMPI PUSH1 0x20 DUP1 PUSH1 0x3 NOT CALLDATASIZE ADD SLT PUSH2 0x13B JUMPI PUSH1 0x4 CALLDATALOAD PUSH8 0xFFFFFFFFFFFFFFFF SWAP4 DUP5 DUP3 GT PUSH2 0x137 JUMPI CALLDATASIZE PUSH1 0x23 DUP4 ADD SLT ISZERO PUSH2 0x137 JUMPI DUP2 PUSH1 0x4 ADD CALLDATALOAD DUP6 DUP2 GT PUSH2 0x123 JUMPI PUSH1 0x1F NOT SWAP3 DUP4 PUSH1 0x3F DUP2 PUSH1 0x1F DUP6 ADD AND ADD AND DUP4 ADD SWAP7 DUP4 DUP9 LT SWAP1 DUP9 GT OR PUSH2 0x10F JUMPI PUSH1 0x40 SWAP7 PUSH1 0x40 MSTORE DUP2 DUP4 MSTORE CALLDATASIZE PUSH1 0x24 DUP4 DUP4 ADD ADD GT PUSH2 0x10B JUMPI DUP2 DUP7 SWAP3 PUSH1 0x24 DUP8 SWAP4 ADD DUP4 DUP7 ADD CALLDATACOPY DUP4 ADD ADD MSTORE PUSH1 0x40 MLOAD SWAP3 DUP1 DUP5 MSTORE DUP2 MLOAD SWAP2 DUP3 DUP3 DUP7 ADD MSTORE DUP6 JUMPDEST DUP4 DUP2 LT PUSH2 0xF8 JUMPI DUP7 PUSH32 0xDF3119D672469028C249FD5E0467ED8C0EEA0DD8CDA29C88A7C89CF69F017B9D DUP8 PUSH1 0x40 DUP2 DUP10 PUSH1 0x1F DUP11 DUP8 DUP6 DUP3 DUP7 ADD ADD MSTORE ADD AND DUP2 ADD SUB ADD SWAP1 LOG1 DUP1 RETURN JUMPDEST DUP2 DUP2 ADD DUP4 ADD MLOAD DUP7 DUP3 ADD DUP10 ADD MSTORE DUP3 ADD PUSH2 0xB5 JUMP JUMPDEST DUP6 DUP1 REVERT JUMPDEST PUSH4 0x4E487B71 PUSH1 0xE0 SHL DUP7 MSTORE PUSH1 0x41 PUSH1 0x4 MSTORE PUSH1 0x24 DUP7 REVERT JUMPDEST PUSH4 0x4E487B71 PUSH1 0xE0 SHL DUP6 MSTORE PUSH1 0x41 PUSH1 0x4 MSTORE PUSH1 0x24 DUP6 REVERT JUMPDEST DUP4 DUP1 REVERT JUMPDEST POP DUP1 REVERT JUMPDEST DUP1 REVERT INVALID LOG2 PUSH5 0x6970667358 0x22 SLT KECCAK256 0xCE 0xBA PUSH26 0xD62229598B6EF4B6FBA95297B800F212F07713ADD82805397FBB SWAP3 0xAD 0xBF PUSH5 0x736F6C6343 STOP ADDMOD XOR STOP CALLER "
        },
        "methodIdentifiers": {
          "emitCID(string)": "02f4e360"
        }
      }
    }
  }
}