{
  "_format": "hh-sol-artifact-1",
  "contractName": "DecentralizedAdPlatform",
  "sourceName": "contracts/DAO.sol",
  "abi": [
    {
      "inputs": [
        {
          "internalType": "address",
          "name": "_airDAOSBTAddress",
          "type": "address"
        },
        {
          "internalType": "address",
          "name": "_governanceTokenAddress",
          "type": "address"
        }
      ],
      "stateMutability": "nonpayable",
      "type": "constructor"
    },
    {
      "anonymous": false,
      "inputs": [
        {
          "indexed": false,
          "internalType": "address",
          "name": "advertiser",
          "type": "address"
        },
        {
          "indexed": false,
          "internalType": "enum DecentralizedAdPlatform.AdvertiserTier",
          "name": "newTier",
          "type": "uint8"
        }
      ],
      "name": "AdvertiserTierUpdated",
      "type": "event"
    },
    {
      "anonymous": false,
      "inputs": [
        {
          "indexed": false,
          "internalType": "uint256",
          "name": "campaignId",
          "type": "uint256"
        }
      ],
      "name": "CampaignApproved",
      "type": "event"
    },
    {
      "anonymous": false,
      "inputs": [
        {
          "indexed": false,
          "internalType": "uint256",
          "name": "campaignId",
          "type": "uint256"
        },
        {
          "indexed": false,
          "internalType": "address",
          "name": "advertiser",
          "type": "address"
        },
        {
          "indexed": false,
          "internalType": "string",
          "name": "campaignURI",
          "type": "string"
        },
        {
          "indexed": false,
          "internalType": "enum DecentralizedAdPlatform.AdvertiserTier",
          "name": "tier",
          "type": "uint8"
        }
      ],
      "name": "CampaignProposed",
      "type": "event"
    },
    {
      "anonymous": false,
      "inputs": [
        {
          "indexed": false,
          "internalType": "uint256",
          "name": "campaignId",
          "type": "uint256"
        }
      ],
      "name": "CampaignRejected",
      "type": "event"
    },
    {
      "anonymous": false,
      "inputs": [
        {
          "indexed": false,
          "internalType": "address",
          "name": "advertiser",
          "type": "address"
        },
        {
          "indexed": false,
          "internalType": "uint256",
          "name": "newReputation",
          "type": "uint256"
        }
      ],
      "name": "ReputationUpdated",
      "type": "event"
    },
    {
      "inputs": [
        {
          "internalType": "address",
          "name": "",
          "type": "address"
        }
      ],
      "name": "advertiserProfiles",
      "outputs": [
        {
          "internalType": "uint256",
          "name": "reputation",
          "type": "uint256"
        },
        {
          "internalType": "enum DecentralizedAdPlatform.AdvertiserTier",
          "name": "tier",
          "type": "uint8"
        },
        {
          "internalType": "uint256",
          "name": "campaignsProposed",
          "type": "uint256"
        },
        {
          "internalType": "uint256",
          "name": "campaignsApproved",
          "type": "uint256"
        },
        {
          "internalType": "uint256",
          "name": "sbtTokenId",
          "type": "uint256"
        }
      ],
      "stateMutability": "view",
      "type": "function"
    },
    {
      "inputs": [],
      "name": "airDAOSBT",
      "outputs": [
        {
          "internalType": "contract IAirDAOSBT",
          "name": "",
          "type": "address"
        }
      ],
      "stateMutability": "view",
      "type": "function"
    },
    {
      "inputs": [],
      "name": "campaignIdCounter",
      "outputs": [
        {
          "internalType": "uint256",
          "name": "",
          "type": "uint256"
        }
      ],
      "stateMutability": "view",
      "type": "function"
    },
    {
      "inputs": [
        {
          "internalType": "uint256",
          "name": "",
          "type": "uint256"
        }
      ],
      "name": "campaigns",
      "outputs": [
        {
          "internalType": "address",
          "name": "advertiser",
          "type": "address"
        },
        {
          "internalType": "string",
          "name": "campaignURI",
          "type": "string"
        },
        {
          "internalType": "uint256",
          "name": "minReputation",
          "type": "uint256"
        },
        {
          "internalType": "uint256",
          "name": "startTime",
          "type": "uint256"
        },
        {
          "internalType": "uint256",
          "name": "endTime",
          "type": "uint256"
        },
        {
          "internalType": "uint256",
          "name": "budget",
          "type": "uint256"
        },
        {
          "internalType": "uint256",
          "name": "amountSpent",
          "type": "uint256"
        },
        {
          "internalType": "enum DecentralizedAdPlatform.CampaignStatus",
          "name": "status",
          "type": "uint8"
        },
        {
          "internalType": "uint256",
          "name": "votesFor",
          "type": "uint256"
        },
        {
          "internalType": "uint256",
          "name": "votesAgainst",
          "type": "uint256"
        },
        {
          "internalType": "uint256",
          "name": "votingEndTime",
          "type": "uint256"
        },
        {
          "internalType": "string",
          "name": "privateLabel",
          "type": "string"
        },
        {
          "internalType": "string",
          "name": "publicLabel",
          "type": "string"
        },
        {
          "internalType": "enum DecentralizedAdPlatform.AdvertiserTier",
          "name": "tier",
          "type": "uint8"
        }
      ],
      "stateMutability": "view",
      "type": "function"
    },
    {
      "inputs": [
        {
          "internalType": "uint256",
          "name": "_campaignId",
          "type": "uint256"
        },
        {
          "internalType": "string",
          "name": "newMetadataURI",
          "type": "string"
        }
      ],
      "name": "executeVotingResult",
      "outputs": [],
      "stateMutability": "nonpayable",
      "type": "function"
    },
    {
      "inputs": [
        {
          "internalType": "address",
          "name": "advertiser",
          "type": "address"
        }
      ],
      "name": "getAdvertiserBenefits",
      "outputs": [
        {
          "internalType": "uint256",
          "name": "discountPercentage",
          "type": "uint256"
        },
        {
          "internalType": "uint256",
          "name": "maxCampaigns",
          "type": "uint256"
        }
      ],
      "stateMutability": "view",
      "type": "function"
    },
    {
      "inputs": [
        {
          "internalType": "uint256",
          "name": "_campaignId",
          "type": "uint256"
        }
      ],
      "name": "getVotingResult",
      "outputs": [
        {
          "internalType": "uint256",
          "name": "votesFor",
          "type": "uint256"
        },
        {
          "internalType": "uint256",
          "name": "votesAgainst",
          "type": "uint256"
        }
      ],
      "stateMutability": "view",
      "type": "function"
    },
    {
      "inputs": [],
      "name": "governanceToken",
      "outputs": [
        {
          "internalType": "contract IAirDAOGovernanceToken",
          "name": "",
          "type": "address"
        }
      ],
      "stateMutability": "view",
      "type": "function"
    },
    {
      "inputs": [
        {
          "internalType": "uint256",
          "name": "",
          "type": "uint256"
        },
        {
          "internalType": "address",
          "name": "",
          "type": "address"
        }
      ],
      "name": "hasVoted",
      "outputs": [
        {
          "internalType": "bool",
          "name": "",
          "type": "bool"
        }
      ],
      "stateMutability": "view",
      "type": "function"
    },
    {
      "inputs": [],
      "name": "minimumQuorum",
      "outputs": [
        {
          "internalType": "uint256",
          "name": "",
          "type": "uint256"
        }
      ],
      "stateMutability": "view",
      "type": "function"
    },
    {
      "inputs": [
        {
          "internalType": "string",
          "name": "_campaignURI",
          "type": "string"
        },
        {
          "internalType": "uint256",
          "name": "_minReputation",
          "type": "uint256"
        },
        {
          "internalType": "uint256",
          "name": "_startTime",
          "type": "uint256"
        },
        {
          "internalType": "uint256",
          "name": "_endTime",
          "type": "uint256"
        },
        {
          "internalType": "uint256",
          "name": "_budget",
          "type": "uint256"
        },
        {
          "internalType": "string",
          "name": "_privateLabel",
          "type": "string"
        },
        {
          "internalType": "string",
          "name": "_publicLabel",
          "type": "string"
        },
        {
          "internalType": "string",
          "name": "_metadataURI",
          "type": "string"
        },
        {
          "internalType": "uint256",
          "name": "_reputation",
          "type": "uint256"
        }
      ],
      "name": "proposeCampaign",
      "outputs": [],
      "stateMutability": "nonpayable",
      "type": "function"
    },
    {
      "inputs": [
        {
          "internalType": "address",
          "name": "advertiser",
          "type": "address"
        },
        {
          "internalType": "string",
          "name": "newMetadataURI",
          "type": "string"
        },
        {
          "internalType": "uint256",
          "name": "newReputation",
          "type": "uint256"
        }
      ],
      "name": "updateAdvertiserProfile",
      "outputs": [],
      "stateMutability": "nonpayable",
      "type": "function"
    },
    {
      "inputs": [
        {
          "internalType": "uint256",
          "name": "_campaignId",
          "type": "uint256"
        },
        {
          "internalType": "bool",
          "name": "_approve",
          "type": "bool"
        }
      ],
      "name": "voteOnCampaign",
      "outputs": [],
      "stateMutability": "nonpayable",
      "type": "function"
    },
    {
      "inputs": [],
      "name": "votingPeriod",
      "outputs": [
        {
          "internalType": "uint256",
          "name": "",
          "type": "uint256"
        }
      ],
      "stateMutability": "view",
      "type": "function"
    }
  ],
  "bytecode": "0x60c0346200015d57601f62001d0538819003918201601f19168301916001600160401b03831184841017620001625780849260409485528339810103126200015d576200005a6020620000528362000178565b920162000178565b6001600055620151806005556103e86006556001600160a01b0391821691908215620001185716908115620000d45760805260a052604051611b7790816200018e8239608051818181610148015281816103160152818161044c015281816113990152611763015260a05181818161010301526105cd0152f35b606460405162461bcd60e51b815260206004820152602060248201527f496e76616c696420676f7665726e616e636520746f6b656e20616464726573736044820152fd5b60405162461bcd60e51b815260206004820152601960248201527f496e76616c69642041697244414f5342542061646472657373000000000000006044820152606490fd5b600080fd5b634e487b7160e01b600052604160045260246000fd5b51906001600160a01b03821682036200015d5756fe608080604052600436101561001357600080fd5b60003560e01c90816302a251a31461117957508063141961bc1461105157806315eab29a1461100b5780631c0d850e14610f975780632e61867614610f795780634385963214610f275780636178713d1461076d5780638160f0b51461074f578063aff9adab1461052c578063cb59dcb2146101e8578063f1e8aff114610177578063f2dd0e7114610132578063f96dae0a146100ed5763f9f2e558146100b957600080fd5b346100e85760203660031901126100e85760406100dc6100d76112e2565b6116f8565b82519182526020820152f35b600080fd5b346100e85760003660031901126100e8576040517f00000000000000000000000000000000000000000000000000000000000000006001600160a01b03168152602090f35b346100e85760003660031901126100e8576040517f00000000000000000000000000000000000000000000000000000000000000006001600160a01b03168152602090f35b346100e85760203660031901126100e8576001600160a01b036101986112e2565b16600052600460205260a0604060002080549060ff6001820154169060028101546101d7600460038401549301549360405195865260208601906112d5565b604084015260608301526080820152f35b346100e85760403660031901126100e85760043560243567ffffffffffffffff81116100e85761021c9036906004016112f8565b9061022a60015482106115b0565b80600052602060028152604060002090600782019283549360ff8516600681101561051657600161025b91146115f2565b61026a600a850154421161163e565b600884015490600985015461028c6102828285611683565b6006541115611690565b60018060a01b039687875416918260005260048752604060002094116000146103fa575050805460ff1916600217905560030180546102ca906116d1565b90558383541680600052600483526040600020958654600a81018091116103e457875560405163d0def52160e01b81529084908290819061030f90866004840161134f565b038160008a7f0000000000000000000000000000000000000000000000000000000000000000165af180156103d8576103a9575b509454604080516001600160a01b03909716875260208701919091526103a7957f3aa476b7499359259e68e236e4ba85f83ff093e3b6341e6a3f6f295d9cd68877939291600080516020611b2283398151915291a1604051908152a15b54166118e7565b005b9280929193813d83116103d1575b6103c181836111ce565b810103126100e857909186610343565b503d6103b7565b6040513d6000823e3d90fd5b634e487b7160e01b600052601160045260246000fd5b60ff1916600317909155815491969091846005821115610509575060041981019081116103e4576104459185915b89556040518093819263d0def52160e01b8352866004840161134f565b038160008a7f0000000000000000000000000000000000000000000000000000000000000000165af180156103d8576104da575b509454604080516001600160a01b03909716875260208701919091526103a7957fc3f451c8eba813b83ed73bf2904347fff970b9ca06227a6507f7e9cd971ff113939291600080516020611b2283398151915291a1604051908152a16103a0565b9280929193813d8311610502575b6104f281836111ce565b810103126100e857909186610479565b503d6104e8565b9050610445916000610428565b634e487b7160e01b600052602160045260246000fd5b346100e85760403660031901126100e8576024600435813580151581036100e85761055a60015483106115b0565b816000526020926002845260406000209060ff600783015416600681101561073a57600161058891146115f2565b600a82015442116106ff578360005260038552604060002033600052855260ff604060002054166106cc576040516370a0823160e01b815233600482015290858282817f00000000000000000000000000000000000000000000000000000000000000006001600160a01b03165afa9182156103d85760009261069d575b5081156106675750610617906119de565b911561065157600861062c9101918254611683565b90555b600090815260038252604080822033835290925220805460ff19166001179055005b60096106609101918254611683565b905561062f565b8560106064926040519262461bcd60e51b845260048401528201526f4e6f20766f74696e672072696768747360801b6044820152fd5b9091508581813d83116106c5575b6106b581836111ce565b810103126100e857519086610606565b503d6106ab565b84600d6064926040519262461bcd60e51b845260048401528201526c105b1c9958591e481d9bdd1959609a1b6044820152fd5b8460156064926040519262461bcd60e51b84526004840152820152742b37ba34b733903832b934b7b21034b99037bb32b960591b6044820152fd5b50634e487b7160e01b60009081526021600452fd5b346100e85760003660031901126100e8576020600654604051908152f35b346100e8576101203660031901126100e85760043567ffffffffffffffff81116100e85761079f9036906004016112f8565b60a43567ffffffffffffffff81116100e8576107bf9036906004016112f8565b9060c43567ffffffffffffffff81116100e8576107e09036906004016112f8565b9167ffffffffffffffff60e435116100e8576108013660e4356004016112f8565b92825115610ee257426044351115610e9e576044356064351115610e4f5760843515610e0b57336000526004602052610844604060002094610104359033611374565b602435845410610dc6576001549161085b836116d1565b60015561086a60055442611683565b9160ff6001870154169160405193846101c081011067ffffffffffffffff6101c087011117610c10576101c0850160405233855286602086015260243560408601526044356060860152606435608086015260843560a0860152600060c0860152600160e0860152600061010086015260006101208601526101408501526101608401526101808301526004811015610516576101a082015281600052600260205260406000209060018060a01b038151166bffffffffffffffffffffffff60a01b835416178255602081015180519067ffffffffffffffff8211610c105781906109586001860154611194565b601f8111610d73575b50602090601f8311600114610d0157600092610cf6575b50508160011b916000199060031b1c19161760018301555b60408101516002830155606081015160038301556080810151600483015560a0810151600583015560c081015160068301556007820160e082015160068110156105165760ff8019835416911617905561010081015160088301556101208101516009830155610140810151600a83015561016081015180519067ffffffffffffffff8211610c10578190610a28600b860154611194565b601f8111610ca3575b50602090601f8311600114610c3157600092610c26575b50508160011b916000199060031b1c191617600b8301555b61018081015180519067ffffffffffffffff8211610c1057610a85600c850154611194565b601f8111610bc9575b50602090601f8311600114610b55576101a093929160009183610b4a575b50508160011b916000199060031b1c191617600c8401555b01516004811015610516577fe70c2c8fe6b59e8d5e3fd9776fa5c77a60227915ce36b96f444065a3def0fad894610b02600192600d60ff95016116e0565b60028101610b1081546116d1565b9055015416610b45610b3a6040519485948552336020860152608060408601526080850190611295565b9160608401906112d5565b0390a1005b015190508880610aac565b90600c850160005260206000209160005b601f1985168110610bb157509183916001936101a09695601f19811610610b98575b505050811b01600c840155610ac4565b015160001960f88460031b161c19169055888080610b88565b91926020600181928685015181550194019201610b66565b600c85016000526020600020601f840160051c810160208510610c09575b601f830160051c82018110610bfd575050610a8e565b60008155600101610be7565b5080610be7565b634e487b7160e01b600052604160045260246000fd5b015190508780610a48565b9250600b85016000526020600020906000935b601f1984168510610c88576001945083601f19811610610c6f575b505050811b01600b830155610a60565b015160001960f88460031b161c19169055878080610c5f565b81810151835560209485019460019093019290910190610c44565b909150600b85016000526020600020601f840160051c810160208510610cef575b90849392915b601f830160051c82018110610ce0575050610a31565b60008155859450600101610cca565b5080610cc4565b015190508780610978565b9250600185016000526020600020906000935b601f1984168510610d58576001945083601f19811610610d3f575b505050811b016001830155610990565b015160001960f88460031b161c19169055878080610d2f565b81810151835560209485019460019093019290910190610d14565b909150600185016000526020600020601f840160051c810160208510610dbf575b90849392915b601f830160051c82018110610db0575050610961565b60008155859450600101610d9a565b5080610d94565b60405162461bcd60e51b815260206004820152601760248201527f496e73756666696369656e742072657075746174696f6e0000000000000000006044820152606490fd5b606460405162461bcd60e51b815260206004820152602060248201527f427564676574206d7573742062652067726561746572207468616e207a65726f6044820152fd5b60405162461bcd60e51b815260206004820152602160248201527f456e642074696d65206d7573742062652061667465722073746172742074696d6044820152606560f81b6064820152608490fd5b606460405162461bcd60e51b815260206004820152602060248201527f53746172742074696d65206d75737420626520696e20746865206675747572656044820152fd5b60405162461bcd60e51b815260206004820152601c60248201527f43616d706169676e205552492063616e6e6f7420626520656d707479000000006044820152606490fd5b346100e85760403660031901126100e8576024356001600160a01b038116908190036100e8576004356000526003602052604060002090600052602052602060ff604060002054166040519015158152f35b346100e85760003660031901126100e8576020600154604051908152f35b346100e85760203660031901126100e857600435610fb860015482106115b0565b6000526002602052604060002060ff60078201541690600682101561051657610fe56001604093146115f2565b610ff4600a820154421161163e565b600960088201549101546100dc6102828284611683565b346100e85760603660031901126100e8576110246112e2565b6024359067ffffffffffffffff82116100e8576110486103a79236906004016112f8565b60443591611374565b346100e85760203660031901126100e857600435600090815260026020526040902080546001600160a01b03169061108b600182016111f0565b91600282015490600383015490600484015493600581015492600682015492600783015460ff1691600884015494600985015496600a86015499600b87016110d2906111f0565b936110df600c89016111f0565b97600d015460ff169a6040519d8e976101c09089528060208a0152880161110591611295565b966040015260608d015260808c015260a08b015260c08a01526006831015610516578897611175966111699661115a9560e08c01526101008b01526101208a0152610140890152878203610160890152611295565b90858203610180870152611295565b916101a08401906112d5565b0390f35b346100e85760003660031901126100e8576020906005548152f35b90600182811c921680156111c4575b60208310146111ae57565b634e487b7160e01b600052602260045260246000fd5b91607f16916111a3565b90601f8019910116810190811067ffffffffffffffff821117610c1057604052565b9060405191826000825461120381611194565b908184526020946001916001811690816000146112735750600114611234575b505050611232925003836111ce565b565b600090815285812095935091905b81831061125b5750506112329350820101388080611223565b85548884018501529485019487945091830191611242565b9250505061123294925060ff191682840152151560051b820101388080611223565b919082519283825260005b8481106112c1575050826000602080949584010152601f8019910116010190565b6020818301810151848301820152016112a0565b9060048210156105165752565b600435906001600160a01b03821682036100e857565b81601f820112156100e85780359067ffffffffffffffff8211610c10576040519261132d601f8401601f1916602001856111ce565b828452602083830101116100e857816000926020809301838601378301015290565b6001600160a01b03909116815260406020820181905261137192910190611295565b90565b9291909260018060a01b038082166000818152600490602092828452604098898320957f000000000000000000000000000000000000000000000000000000000000000016918a51906370a0823160e01b8252858201528581602481865afa9081156115a6578491611575575b506114b857611408839286928c5195868094819363d0def52160e01b83528d8b840161134f565b03925af19384156114ac578194611468575b50505082600080516020611b2283398151915296979286926114639501555b55611443836118e7565b516001600160a01b03909216825260208201929092529081906040820190565b0390a1565b909180939450813d83116114a5575b61148181836111ce565b810103126114a2575051908281600080516020611b2283398151915261141a565b80fd5b503d611477565b508851903d90823e3d90fd5b8493929491878685890195865415600014611556576114f6966114da84611756565b90558d5163d0def52160e01b815296879586948593840161134f565b03925af1801561154c57611523575b505050600080516020611b2283398151915293948361146392611439565b813d8311611545575b61153681836111ce565b810103126114a2578080611505565b503d61152c565b88513d85823e3d90fd5b6114f696508d519687958694859363d0def52160e01b8552840161134f565b90508581813d831161159f575b61158c81836111ce565b8101031261159b5751386113e1565b8380fd5b503d611582565b8b513d86823e3d90fd5b156115b757565b60405162461bcd60e51b8152602060048201526013602482015272125b9d985b1a590818d85b5c185a59db881251606a1b6044820152606490fd5b156115f957565b60405162461bcd60e51b815260206004820152601f60248201527f43616d706169676e206973206e6f7420696e20766f74696e67207374616765006044820152606490fd5b1561164557565b60405162461bcd60e51b81526020600482015260166024820152752b37ba34b733903832b934b7b2103737ba1037bb32b960511b6044820152606490fd5b919082018092116103e457565b1561169757565b60405162461bcd60e51b8152602060048201526012602482015271145d5bdc9d5b481b9bdd081c995858da195960721b6044820152606490fd5b60001981146103e45760010190565b9060048110156105165760ff80198354169116179055565b60018060a01b0316600052600460205260ff600160406000200154166004811015610516576003810361172e5750601490600a90565b6002810361173f5750600f90600790565b60010361174e57600a90600590565b600090600390565b6001906001600160a01b037f0000000000000000000000000000000000000000000000000000000000000000811683805b6117d1575b60405162461bcd60e51b815260206004820152601c60248201527f534254206e6f7420666f756e6420666f722061647665727469736572000000006044820152606490fd5b60408051906370a0823160e01b82526004858716928382820152602090602490828183818b5afa9081156118dc576000916118af575b5086116118a55783516331a9108f60e11b81529283018690528190839081895afa92831561189b57509086929160009261185b575b505016146118535761184d906116d1565b84611787565b935050505090565b9080929350813d8311611894575b61187381836111ce565b8101031261189057519085821682036114a257508490388061183c565b5080fd5b503d611869565b513d6000823e3d90fd5b505050505061178c565b908382813d83116118d5575b6118c581836111ce565b810103126114a257505138611807565b503d6118bb565b85513d6000823e3d90fd5b6001600160a01b031660008181526004602052604081208054919290916127108110611990575060016003925b019260ff84541690600482101561197c57600484101561197c5750820361193a57505050565b6119798261196a6040947e8c8ed48a7170769fb9d17f8c741b5ea73aa5cccb1dd839456564baa487f0f7966116e0565b835192835260208301906112d5565ba1565b634e487b7160e01b81526021600452602490fd5b61138881106119a457506001600292611914565b6103e8116119b55760018092611914565b60018392611914565b81156119c8570490565b634e487b7160e01b600052601260045260246000fd5b8015611b1b57611aa9816000908360801c80611b0f575b508060401c80611b02575b508060201c80611af5575b508060101c80611ae8575b508060081c80611adb575b508060041c80611ace575b508060021c80611ac1575b50600191828092811c611aba575b1c1b611a5181856119be565b01811c611a5e81856119be565b01811c611a6b81856119be565b01811c611a7881856119be565b01811c611a8581856119be565b01811c611a9281856119be565b01811c611a9f81856119be565b01901c80926119be565b80821015611ab5575090565b905090565b0181611a45565b6002915091019038611a37565b6004915091019038611a2c565b6008915091019038611a21565b6010915091019038611a16565b6020915091019038611a0b565b6040915091019038611a00565b915050608090386119f5565b5060009056fefc577563f1b9a0461e24abef1e1fcc0d33d3d881f20b5df6dda59de4aae2c821a264697066735822122064f54538c1aec26c75856153aadc5285225030db01c0acb0d2c277e883a07ec664736f6c63430008180033",
  "linkReferences": {},
  "deployedLinkReferences": {}
}