{
  "contracts/DAO.sol": {
    "DecentralizedAdPlatform": {
      "abi": [
        {
          "inputs": [
            {
              "internalType": "address",
              "name": "_airDAOSBTAddress",
              "type": "address"
            },
            {
              "internalType": "address",
              "name": "_governanceTokenAddress",
              "type": "address"
            }
          ],
          "stateMutability": "nonpayable",
          "type": "constructor"
        },
        {
          "anonymous": false,
          "inputs": [
            {
              "indexed": false,
              "internalType": "address",
              "name": "advertiser",
              "type": "address"
            },
            {
              "indexed": false,
              "internalType": "enum DecentralizedAdPlatform.AdvertiserTier",
              "name": "newTier",
              "type": "uint8"
            }
          ],
          "name": "AdvertiserTierUpdated",
          "type": "event"
        },
        {
          "anonymous": false,
          "inputs": [
            {
              "indexed": false,
              "internalType": "uint256",
              "name": "campaignId",
              "type": "uint256"
            }
          ],
          "name": "CampaignApproved",
          "type": "event"
        },
        {
          "anonymous": false,
          "inputs": [
            {
              "indexed": false,
              "internalType": "uint256",
              "name": "campaignId",
              "type": "uint256"
            },
            {
              "indexed": false,
              "internalType": "address",
              "name": "advertiser",
              "type": "address"
            },
            {
              "indexed": false,
              "internalType": "string",
              "name": "campaignURI",
              "type": "string"
            },
            {
              "indexed": false,
              "internalType": "enum DecentralizedAdPlatform.AdvertiserTier",
              "name": "tier",
              "type": "uint8"
            }
          ],
          "name": "CampaignProposed",
          "type": "event"
        },
        {
          "anonymous": false,
          "inputs": [
            {
              "indexed": false,
              "internalType": "uint256",
              "name": "campaignId",
              "type": "uint256"
            }
          ],
          "name": "CampaignRejected",
          "type": "event"
        },
        {
          "anonymous": false,
          "inputs": [
            {
              "indexed": false,
              "internalType": "address",
              "name": "advertiser",
              "type": "address"
            },
            {
              "indexed": false,
              "internalType": "uint256",
              "name": "newReputation",
              "type": "uint256"
            }
          ],
          "name": "ReputationUpdated",
          "type": "event"
        },
        {
          "inputs": [
            {
              "internalType": "address",
              "name": "",
              "type": "address"
            }
          ],
          "name": "advertiserProfiles",
          "outputs": [
            {
              "internalType": "uint256",
              "name": "reputation",
              "type": "uint256"
            },
            {
              "internalType": "enum DecentralizedAdPlatform.AdvertiserTier",
              "name": "tier",
              "type": "uint8"
            },
            {
              "internalType": "uint256",
              "name": "campaignsProposed",
              "type": "uint256"
            },
            {
              "internalType": "uint256",
              "name": "campaignsApproved",
              "type": "uint256"
            },
            {
              "internalType": "uint256",
              "name": "sbtTokenId",
              "type": "uint256"
            }
          ],
          "stateMutability": "view",
          "type": "function"
        },
        {
          "inputs": [],
          "name": "airDAOSBT",
          "outputs": [
            {
              "internalType": "contract IAirDAOSBT",
              "name": "",
              "type": "address"
            }
          ],
          "stateMutability": "view",
          "type": "function"
        },
        {
          "inputs": [],
          "name": "campaignIdCounter",
          "outputs": [
            {
              "internalType": "uint256",
              "name": "",
              "type": "uint256"
            }
          ],
          "stateMutability": "view",
          "type": "function"
        },
        {
          "inputs": [
            {
              "internalType": "uint256",
              "name": "",
              "type": "uint256"
            }
          ],
          "name": "campaigns",
          "outputs": [
            {
              "internalType": "address",
              "name": "advertiser",
              "type": "address"
            },
            {
              "internalType": "string",
              "name": "campaignURI",
              "type": "string"
            },
            {
              "internalType": "uint256",
              "name": "minReputation",
              "type": "uint256"
            },
            {
              "internalType": "uint256",
              "name": "startTime",
              "type": "uint256"
            },
            {
              "internalType": "uint256",
              "name": "endTime",
              "type": "uint256"
            },
            {
              "internalType": "uint256",
              "name": "budget",
              "type": "uint256"
            },
            {
              "internalType": "uint256",
              "name": "amountSpent",
              "type": "uint256"
            },
            {
              "internalType": "enum DecentralizedAdPlatform.CampaignStatus",
              "name": "status",
              "type": "uint8"
            },
            {
              "internalType": "uint256",
              "name": "votesFor",
              "type": "uint256"
            },
            {
              "internalType": "uint256",
              "name": "votesAgainst",
              "type": "uint256"
            },
            {
              "internalType": "uint256",
              "name": "votingEndTime",
              "type": "uint256"
            },
            {
              "internalType": "string",
              "name": "privateLabel",
              "type": "string"
            },
            {
              "internalType": "string",
              "name": "publicLabel",
              "type": "string"
            },
            {
              "internalType": "enum DecentralizedAdPlatform.AdvertiserTier",
              "name": "tier",
              "type": "uint8"
            }
          ],
          "stateMutability": "view",
          "type": "function"
        },
        {
          "inputs": [
            {
              "internalType": "uint256",
              "name": "_campaignId",
              "type": "uint256"
            },
            {
              "internalType": "string",
              "name": "newMetadataURI",
              "type": "string"
            }
          ],
          "name": "executeVotingResult",
          "outputs": [],
          "stateMutability": "nonpayable",
          "type": "function"
        },
        {
          "inputs": [
            {
              "internalType": "address",
              "name": "advertiser",
              "type": "address"
            }
          ],
          "name": "getAdvertiserBenefits",
          "outputs": [
            {
              "internalType": "uint256",
              "name": "discountPercentage",
              "type": "uint256"
            },
            {
              "internalType": "uint256",
              "name": "maxCampaigns",
              "type": "uint256"
            }
          ],
          "stateMutability": "view",
          "type": "function"
        },
        {
          "inputs": [
            {
              "internalType": "uint256",
              "name": "_campaignId",
              "type": "uint256"
            }
          ],
          "name": "getVotingResult",
          "outputs": [
            {
              "internalType": "uint256",
              "name": "votesFor",
              "type": "uint256"
            },
            {
              "internalType": "uint256",
              "name": "votesAgainst",
              "type": "uint256"
            }
          ],
          "stateMutability": "view",
          "type": "function"
        },
        {
          "inputs": [],
          "name": "governanceToken",
          "outputs": [
            {
              "internalType": "contract IAirDAOGovernanceToken",
              "name": "",
              "type": "address"
            }
          ],
          "stateMutability": "view",
          "type": "function"
        },
        {
          "inputs": [
            {
              "internalType": "uint256",
              "name": "",
              "type": "uint256"
            },
            {
              "internalType": "address",
              "name": "",
              "type": "address"
            }
          ],
          "name": "hasVoted",
          "outputs": [
            {
              "internalType": "bool",
              "name": "",
              "type": "bool"
            }
          ],
          "stateMutability": "view",
          "type": "function"
        },
        {
          "inputs": [],
          "name": "minimumQuorum",
          "outputs": [
            {
              "internalType": "uint256",
              "name": "",
              "type": "uint256"
            }
          ],
          "stateMutability": "view",
          "type": "function"
        },
        {
          "inputs": [
            {
              "internalType": "string",
              "name": "_campaignURI",
              "type": "string"
            },
            {
              "internalType": "uint256",
              "name": "_minReputation",
              "type": "uint256"
            },
            {
              "internalType": "uint256",
              "name": "_startTime",
              "type": "uint256"
            },
            {
              "internalType": "uint256",
              "name": "_endTime",
              "type": "uint256"
            },
            {
              "internalType": "uint256",
              "name": "_budget",
              "type": "uint256"
            },
            {
              "internalType": "string",
              "name": "_privateLabel",
              "type": "string"
            },
            {
              "internalType": "string",
              "name": "_publicLabel",
              "type": "string"
            },
            {
              "internalType": "string",
              "name": "_metadataURI",
              "type": "string"
            },
            {
              "internalType": "uint256",
              "name": "_reputation",
              "type": "uint256"
            }
          ],
          "name": "proposeCampaign",
          "outputs": [],
          "stateMutability": "nonpayable",
          "type": "function"
        },
        {
          "inputs": [
            {
              "internalType": "address",
              "name": "advertiser",
              "type": "address"
            },
            {
              "internalType": "string",
              "name": "newMetadataURI",
              "type": "string"
            },
            {
              "internalType": "uint256",
              "name": "newReputation",
              "type": "uint256"
            }
          ],
          "name": "updateAdvertiserProfile",
          "outputs": [],
          "stateMutability": "nonpayable",
          "type": "function"
        },
        {
          "inputs": [
            {
              "internalType": "uint256",
              "name": "_campaignId",
              "type": "uint256"
            },
            {
              "internalType": "bool",
              "name": "_approve",
              "type": "bool"
            }
          ],
          "name": "voteOnCampaign",
          "outputs": [],
          "stateMutability": "nonpayable",
          "type": "function"
        },
        {
          "inputs": [],
          "name": "votingPeriod",
          "outputs": [
            {
              "internalType": "uint256",
              "name": "",
              "type": "uint256"
            }
          ],
          "stateMutability": "view",
          "type": "function"
        }
      ],
      "evm": {
        "bytecode": {
          "linkReferences": {},
          "object": "60c0346200015d57601f62001cb738819003918201601f19168301916001600160401b03831184841017620001625780849260409485528339810103126200015d576200005a6020620000528362000178565b920162000178565b6001600055620151806005556103e86006556001600160a01b0391821691908215620001185716908115620000d45760805260a052604051611b2990816200018e8239608051818181610148015281816103160152818161044c0152818161134b0152611715015260a05181818161010301526105cd0152f35b606460405162461bcd60e51b815260206004820152602060248201527f496e76616c696420676f7665726e616e636520746f6b656e20616464726573736044820152fd5b60405162461bcd60e51b815260206004820152601960248201527f496e76616c69642041697244414f5342542061646472657373000000000000006044820152606490fd5b600080fd5b634e487b7160e01b600052604160045260246000fd5b51906001600160a01b03821682036200015d5756fe608080604052600436101561001357600080fd5b60003560e01c90816302a251a31461112b57508063141961bc1461100357806315eab29a14610fbd5780631c0d850e14610f495780632e61867614610f2b5780634385963214610ed95780636178713d1461076d5780638160f0b51461074f578063aff9adab1461052c578063cb59dcb2146101e8578063f1e8aff114610177578063f2dd0e7114610132578063f96dae0a146100ed5763f9f2e558146100b957600080fd5b346100e85760203660031901126100e85760406100dc6100d7611294565b6116aa565b82519182526020820152f35b600080fd5b346100e85760003660031901126100e8576040517f00000000000000000000000000000000000000000000000000000000000000006001600160a01b03168152602090f35b346100e85760003660031901126100e8576040517f00000000000000000000000000000000000000000000000000000000000000006001600160a01b03168152602090f35b346100e85760203660031901126100e8576001600160a01b03610198611294565b16600052600460205260a0604060002080549060ff6001820154169060028101546101d760046003840154930154936040519586526020860190611287565b604084015260608301526080820152f35b346100e85760403660031901126100e85760043560243567ffffffffffffffff81116100e85761021c9036906004016112aa565b9061022a6001548210611562565b80600052602060028152604060002090600782019283549360ff8516600681101561051657600161025b91146115a4565b61026a600a85015442116115f0565b600884015490600985015461028c6102828285611635565b6006541115611642565b60018060a01b039687875416918260005260048752604060002094116000146103fa575050805460ff1916600217905560030180546102ca90611683565b90558383541680600052600483526040600020958654600a81018091116103e457875560405163d0def52160e01b81529084908290819061030f908660048401611301565b038160008a7f0000000000000000000000000000000000000000000000000000000000000000165af180156103d8576103a9575b509454604080516001600160a01b03909716875260208701919091526103a7957f3aa476b7499359259e68e236e4ba85f83ff093e3b6341e6a3f6f295d9cd68877939291600080516020611ad483398151915291a1604051908152a15b5416611899565b005b9280929193813d83116103d1575b6103c18183611180565b810103126100e857909186610343565b503d6103b7565b6040513d6000823e3d90fd5b634e487b7160e01b600052601160045260246000fd5b60ff1916600317909155815491969091846005821115610509575060041981019081116103e4576104459185915b89556040518093819263d0def52160e01b83528660048401611301565b038160008a7f0000000000000000000000000000000000000000000000000000000000000000165af180156103d8576104da575b509454604080516001600160a01b03909716875260208701919091526103a7957fc3f451c8eba813b83ed73bf2904347fff970b9ca06227a6507f7e9cd971ff113939291600080516020611ad483398151915291a1604051908152a16103a0565b9280929193813d8311610502575b6104f28183611180565b810103126100e857909186610479565b503d6104e8565b9050610445916000610428565b634e487b7160e01b600052602160045260246000fd5b346100e85760403660031901126100e8576024600435813580151581036100e85761055a6001548310611562565b816000526020926002845260406000209060ff600783015416600681101561073a57600161058891146115a4565b600a82015442116106ff578360005260038552604060002033600052855260ff604060002054166106cc576040516370a0823160e01b815233600482015290858282817f00000000000000000000000000000000000000000000000000000000000000006001600160a01b03165afa9182156103d85760009261069d575b508115610667575061061790611990565b911561065157600861062c9101918254611635565b90555b600090815260038252604080822033835290925220805460ff19166001179055005b60096106609101918254611635565b905561062f565b8560106064926040519262461bcd60e51b845260048401528201526f4e6f20766f74696e672072696768747360801b6044820152fd5b9091508581813d83116106c5575b6106b58183611180565b810103126100e857519086610606565b503d6106ab565b84600d6064926040519262461bcd60e51b845260048401528201526c105b1c9958591e481d9bdd1959609a1b6044820152fd5b8460156064926040519262461bcd60e51b84526004840152820152742b37ba34b733903832b934b7b21034b99037bb32b960591b6044820152fd5b50634e487b7160e01b60009081526021600452fd5b346100e85760003660031901126100e8576020600654604051908152f35b346100e8576101203660031901126100e85760043567ffffffffffffffff81116100e85761079f9036906004016112aa565b60a43567ffffffffffffffff81116100e8576107bf9036906004016112aa565b9060c43567ffffffffffffffff81116100e8576107e09036906004016112aa565b9160e43567ffffffffffffffff81116100e8576108019036906004016112aa565b92825115610e94576044356064351115610e455760843515610e015733600052600460205261083a604060002094610104359033611326565b602435845410610dbc576001549161085183611683565b60015561086060055442611635565b9160ff6001870154169160405193846101c081011067ffffffffffffffff6101c087011117610c06576101c0850160405233855286602086015260243560408601526044356060860152606435608086015260843560a0860152600060c0860152600160e0860152600061010086015260006101208601526101408501526101608401526101808301526004811015610516576101a082015281600052600260205260406000209060018060a01b038151166bffffffffffffffffffffffff60a01b835416178255602081015180519067ffffffffffffffff8211610c0657819061094e6001860154611146565b601f8111610d69575b50602090601f8311600114610cf757600092610cec575b50508160011b916000199060031b1c19161760018301555b60408101516002830155606081015160038301556080810151600483015560a0810151600583015560c081015160068301556007820160e082015160068110156105165760ff8019835416911617905561010081015160088301556101208101516009830155610140810151600a83015561016081015180519067ffffffffffffffff8211610c06578190610a1e600b860154611146565b601f8111610c99575b50602090601f8311600114610c2757600092610c1c575b50508160011b916000199060031b1c191617600b8301555b61018081015180519067ffffffffffffffff8211610c0657610a7b600c850154611146565b601f8111610bbf575b50602090601f8311600114610b4b576101a093929160009183610b40575b50508160011b916000199060031b1c191617600c8401555b01516004811015610516577fe70c2c8fe6b59e8d5e3fd9776fa5c77a60227915ce36b96f444065a3def0fad894610af8600192600d60ff9501611692565b60028101610b068154611683565b9055015416610b3b610b306040519485948552336020860152608060408601526080850190611247565b916060840190611287565b0390a1005b015190508880610aa2565b90600c850160005260206000209160005b601f1985168110610ba757509183916001936101a09695601f19811610610b8e575b505050811b01600c840155610aba565b015160001960f88460031b161c19169055888080610b7e565b91926020600181928685015181550194019201610b5c565b600c85016000526020600020601f840160051c810160208510610bff575b601f830160051c82018110610bf3575050610a84565b60008155600101610bdd565b5080610bdd565b634e487b7160e01b600052604160045260246000fd5b015190508780610a3e565b9250600b85016000526020600020906000935b601f1984168510610c7e576001945083601f19811610610c65575b505050811b01600b830155610a56565b015160001960f88460031b161c19169055878080610c55565b81810151835560209485019460019093019290910190610c3a565b909150600b85016000526020600020601f840160051c810160208510610ce5575b90849392915b601f830160051c82018110610cd6575050610a27565b60008155859450600101610cc0565b5080610cba565b01519050878061096e565b9250600185016000526020600020906000935b601f1984168510610d4e576001945083601f19811610610d35575b505050811b016001830155610986565b015160001960f88460031b161c19169055878080610d25565b81810151835560209485019460019093019290910190610d0a565b909150600185016000526020600020601f840160051c810160208510610db5575b90849392915b601f830160051c82018110610da6575050610957565b60008155859450600101610d90565b5080610d8a565b60405162461bcd60e51b815260206004820152601760248201527f496e73756666696369656e742072657075746174696f6e0000000000000000006044820152606490fd5b606460405162461bcd60e51b815260206004820152602060248201527f427564676574206d7573742062652067726561746572207468616e207a65726f6044820152fd5b60405162461bcd60e51b815260206004820152602160248201527f456e642074696d65206d7573742062652061667465722073746172742074696d6044820152606560f81b6064820152608490fd5b60405162461bcd60e51b815260206004820152601c60248201527f43616d706169676e205552492063616e6e6f7420626520656d707479000000006044820152606490fd5b346100e85760403660031901126100e8576024356001600160a01b038116908190036100e8576004356000526003602052604060002090600052602052602060ff604060002054166040519015158152f35b346100e85760003660031901126100e8576020600154604051908152f35b346100e85760203660031901126100e857600435610f6a6001548210611562565b6000526002602052604060002060ff60078201541690600682101561051657610f976001604093146115a4565b610fa6600a82015442116115f0565b600960088201549101546100dc6102828284611635565b346100e85760603660031901126100e857610fd6611294565b6024359067ffffffffffffffff82116100e857610ffa6103a79236906004016112aa565b60443591611326565b346100e85760203660031901126100e857600435600090815260026020526040902080546001600160a01b03169061103d600182016111a2565b91600282015490600383015490600484015493600581015492600682015492600783015460ff1691600884015494600985015496600a86015499600b8701611084906111a2565b93611091600c89016111a2565b97600d015460ff169a6040519d8e976101c09089528060208a015288016110b791611247565b966040015260608d015260808c015260a08b015260c08a015260068310156105165788976111279661111b9661110c9560e08c01526101008b01526101208a0152610140890152878203610160890152611247565b90858203610180870152611247565b916101a0840190611287565b0390f35b346100e85760003660031901126100e8576020906005548152f35b90600182811c92168015611176575b602083101461116057565b634e487b7160e01b600052602260045260246000fd5b91607f1691611155565b90601f8019910116810190811067ffffffffffffffff821117610c0657604052565b906040519182600082546111b581611146565b9081845260209460019160018116908160001461122557506001146111e6575b5050506111e492500383611180565b565b600090815285812095935091905b81831061120d5750506111e493508201013880806111d5565b855488840185015294850194879450918301916111f4565b925050506111e494925060ff191682840152151560051b8201013880806111d5565b919082519283825260005b848110611273575050826000602080949584010152601f8019910116010190565b602081830181015184830182015201611252565b9060048210156105165752565b600435906001600160a01b03821682036100e857565b81601f820112156100e85780359067ffffffffffffffff8211610c0657604051926112df601f8401601f191660200185611180565b828452602083830101116100e857816000926020809301838601378301015290565b6001600160a01b03909116815260406020820181905261132392910190611247565b90565b9291909260018060a01b038082166000818152600490602092828452604098898320957f000000000000000000000000000000000000000000000000000000000000000016918a51906370a0823160e01b8252858201528581602481865afa908115611558578491611527575b5061146a576113ba839286928c5195868094819363d0def52160e01b83528d8b8401611301565b03925af193841561145e57819461141a575b50505082600080516020611ad483398151915296979286926114159501555b556113f583611899565b516001600160a01b03909216825260208201929092529081906040820190565b0390a1565b909180939450813d8311611457575b6114338183611180565b81010312611454575051908281600080516020611ad48339815191526113cc565b80fd5b503d611429565b508851903d90823e3d90fd5b8493929491878685890195865415600014611508576114a89661148c84611708565b90558d5163d0def52160e01b8152968795869485938401611301565b03925af180156114fe576114d5575b505050600080516020611ad4833981519152939483611415926113eb565b813d83116114f7575b6114e88183611180565b810103126114545780806114b7565b503d6114de565b88513d85823e3d90fd5b6114a896508d519687958694859363d0def52160e01b85528401611301565b90508581813d8311611551575b61153e8183611180565b8101031261154d575138611393565b8380fd5b503d611534565b8b513d86823e3d90fd5b1561156957565b60405162461bcd60e51b8152602060048201526013602482015272125b9d985b1a590818d85b5c185a59db881251606a1b6044820152606490fd5b156115ab57565b60405162461bcd60e51b815260206004820152601f60248201527f43616d706169676e206973206e6f7420696e20766f74696e67207374616765006044820152606490fd5b156115f757565b60405162461bcd60e51b81526020600482015260166024820152752b37ba34b733903832b934b7b2103737ba1037bb32b960511b6044820152606490fd5b919082018092116103e457565b1561164957565b60405162461bcd60e51b8152602060048201526012602482015271145d5bdc9d5b481b9bdd081c995858da195960721b6044820152606490fd5b60001981146103e45760010190565b9060048110156105165760ff80198354169116179055565b60018060a01b0316600052600460205260ff60016040600020015416600481101561051657600381036116e05750601490600a90565b600281036116f15750600f90600790565b60010361170057600a90600590565b600090600390565b6001906001600160a01b037f0000000000000000000000000000000000000000000000000000000000000000811683805b611783575b60405162461bcd60e51b815260206004820152601c60248201527f534254206e6f7420666f756e6420666f722061647665727469736572000000006044820152606490fd5b60408051906370a0823160e01b82526004858716928382820152602090602490828183818b5afa90811561188e57600091611861575b5086116118575783516331a9108f60e11b81529283018690528190839081895afa92831561184d57509086929160009261180d575b50501614611805576117ff90611683565b84611739565b935050505090565b9080929350813d8311611846575b6118258183611180565b8101031261184257519085821682036114545750849038806117ee565b5080fd5b503d61181b565b513d6000823e3d90fd5b505050505061173e565b908382813d8311611887575b6118778183611180565b81010312611454575051386117b9565b503d61186d565b85513d6000823e3d90fd5b6001600160a01b031660008181526004602052604081208054919290916127108110611942575060016003925b019260ff84541690600482101561192e57600484101561192e575082036118ec57505050565b61192b8261191c6040947e8c8ed48a7170769fb9d17f8c741b5ea73aa5cccb1dd839456564baa487f0f796611692565b83519283526020830190611287565ba1565b634e487b7160e01b81526021600452602490fd5b6113888110611956575060016002926118c6565b6103e81161196757600180926118c6565b600183926118c6565b811561197a570490565b634e487b7160e01b600052601260045260246000fd5b8015611acd57611a5b816000908360801c80611ac1575b508060401c80611ab4575b508060201c80611aa7575b508060101c80611a9a575b508060081c80611a8d575b508060041c80611a80575b508060021c80611a73575b50600191828092811c611a6c575b1c1b611a038185611970565b01811c611a108185611970565b01811c611a1d8185611970565b01811c611a2a8185611970565b01811c611a378185611970565b01811c611a448185611970565b01811c611a518185611970565b01901c8092611970565b80821015611a67575090565b905090565b01816119f7565b60029150910190386119e9565b60049150910190386119de565b60089150910190386119d3565b60109150910190386119c8565b60209150910190386119bd565b60409150910190386119b2565b915050608090386119a7565b5060009056fefc577563f1b9a0461e24abef1e1fcc0d33d3d881f20b5df6dda59de4aae2c821a2646970667358221220718df328ba2ec9465f98975f48a5c0212b2e4b0dd577d974735bf7ea6181054264736f6c63430008180033",
          "opcodes": "PUSH1 0xC0 CALLVALUE PUSH3 0x15D JUMPI PUSH1 0x1F PUSH3 0x1CB7 CODESIZE DUP2 SWAP1 SUB SWAP2 DUP3 ADD PUSH1 0x1F NOT AND DUP4 ADD SWAP2 PUSH1 0x1 PUSH1 0x1 PUSH1 0x40 SHL SUB DUP4 GT DUP5 DUP5 LT OR PUSH3 0x162 JUMPI DUP1 DUP5 SWAP3 PUSH1 0x40 SWAP5 DUP6 MSTORE DUP4 CODECOPY DUP2 ADD SUB SLT PUSH3 0x15D JUMPI PUSH3 0x5A PUSH1 0x20 PUSH3 0x52 DUP4 PUSH3 0x178 JUMP JUMPDEST SWAP3 ADD PUSH3 0x178 JUMP JUMPDEST PUSH1 0x1 PUSH1 0x0 SSTORE PUSH3 0x15180 PUSH1 0x5 SSTORE PUSH2 0x3E8 PUSH1 0x6 SSTORE PUSH1 0x1 PUSH1 0x1 PUSH1 0xA0 SHL SUB SWAP2 DUP3 AND SWAP2 SWAP1 DUP3 ISZERO PUSH3 0x118 JUMPI AND SWAP1 DUP2 ISZERO PUSH3 0xD4 JUMPI PUSH1 0x80 MSTORE PUSH1 0xA0 MSTORE PUSH1 0x40 MLOAD PUSH2 0x1B29 SWAP1 DUP2 PUSH3 0x18E DUP3 CODECOPY PUSH1 0x80 MLOAD DUP2 DUP2 DUP2 PUSH2 0x148 ADD MSTORE DUP2 DUP2 PUSH2 0x316 ADD MSTORE DUP2 DUP2 PUSH2 0x44C ADD MSTORE DUP2 DUP2 PUSH2 0x134B ADD MSTORE PUSH2 0x1715 ADD MSTORE PUSH1 0xA0 MLOAD DUP2 DUP2 DUP2 PUSH2 0x103 ADD MSTORE PUSH2 0x5CD ADD MSTORE RETURN JUMPDEST PUSH1 0x64 PUSH1 0x40 MLOAD PUSH3 0x461BCD PUSH1 0xE5 SHL DUP2 MSTORE PUSH1 0x20 PUSH1 0x4 DUP3 ADD MSTORE PUSH1 0x20 PUSH1 0x24 DUP3 ADD MSTORE PUSH32 0x496E76616C696420676F7665726E616E636520746F6B656E2061646472657373 PUSH1 0x44 DUP3 ADD MSTORE REVERT JUMPDEST PUSH1 0x40 MLOAD PUSH3 0x461BCD PUSH1 0xE5 SHL DUP2 MSTORE PUSH1 0x20 PUSH1 0x4 DUP3 ADD MSTORE PUSH1 0x19 PUSH1 0x24 DUP3 ADD MSTORE PUSH32 0x496E76616C69642041697244414F534254206164647265737300000000000000 PUSH1 0x44 DUP3 ADD MSTORE PUSH1 0x64 SWAP1 REVERT JUMPDEST PUSH1 0x0 DUP1 REVERT JUMPDEST PUSH4 0x4E487B71 PUSH1 0xE0 SHL PUSH1 0x0 MSTORE PUSH1 0x41 PUSH1 0x4 MSTORE PUSH1 0x24 PUSH1 0x0 REVERT JUMPDEST MLOAD SWAP1 PUSH1 0x1 PUSH1 0x1 PUSH1 0xA0 SHL SUB DUP3 AND DUP3 SUB PUSH3 0x15D JUMPI JUMP INVALID PUSH1 0x80 DUP1 PUSH1 0x40 MSTORE PUSH1 0x4 CALLDATASIZE LT ISZERO PUSH2 0x13 JUMPI PUSH1 0x0 DUP1 REVERT JUMPDEST PUSH1 0x0 CALLDATALOAD PUSH1 0xE0 SHR SWAP1 DUP2 PUSH4 0x2A251A3 EQ PUSH2 0x112B JUMPI POP DUP1 PUSH4 0x141961BC EQ PUSH2 0x1003 JUMPI DUP1 PUSH4 0x15EAB29A EQ PUSH2 0xFBD JUMPI DUP1 PUSH4 0x1C0D850E EQ PUSH2 0xF49 JUMPI DUP1 PUSH4 0x2E618676 EQ PUSH2 0xF2B JUMPI DUP1 PUSH4 0x43859632 EQ PUSH2 0xED9 JUMPI DUP1 PUSH4 0x6178713D EQ PUSH2 0x76D JUMPI DUP1 PUSH4 0x8160F0B5 EQ PUSH2 0x74F JUMPI DUP1 PUSH4 0xAFF9ADAB EQ PUSH2 0x52C JUMPI DUP1 PUSH4 0xCB59DCB2 EQ PUSH2 0x1E8 JUMPI DUP1 PUSH4 0xF1E8AFF1 EQ PUSH2 0x177 JUMPI DUP1 PUSH4 0xF2DD0E71 EQ PUSH2 0x132 JUMPI DUP1 PUSH4 0xF96DAE0A EQ PUSH2 0xED JUMPI PUSH4 0xF9F2E558 EQ PUSH2 0xB9 JUMPI PUSH1 0x0 DUP1 REVERT JUMPDEST CALLVALUE PUSH2 0xE8 JUMPI PUSH1 0x20 CALLDATASIZE PUSH1 0x3 NOT ADD SLT PUSH2 0xE8 JUMPI PUSH1 0x40 PUSH2 0xDC PUSH2 0xD7 PUSH2 0x1294 JUMP JUMPDEST PUSH2 0x16AA JUMP JUMPDEST DUP3 MLOAD SWAP2 DUP3 MSTORE PUSH1 0x20 DUP3 ADD MSTORE RETURN JUMPDEST PUSH1 0x0 DUP1 REVERT JUMPDEST CALLVALUE PUSH2 0xE8 JUMPI PUSH1 0x0 CALLDATASIZE PUSH1 0x3 NOT ADD SLT PUSH2 0xE8 JUMPI PUSH1 0x40 MLOAD PUSH32 0x0 PUSH1 0x1 PUSH1 0x1 PUSH1 0xA0 SHL SUB AND DUP2 MSTORE PUSH1 0x20 SWAP1 RETURN JUMPDEST CALLVALUE PUSH2 0xE8 JUMPI PUSH1 0x0 CALLDATASIZE PUSH1 0x3 NOT ADD SLT PUSH2 0xE8 JUMPI PUSH1 0x40 MLOAD PUSH32 0x0 PUSH1 0x1 PUSH1 0x1 PUSH1 0xA0 SHL SUB AND DUP2 MSTORE PUSH1 0x20 SWAP1 RETURN JUMPDEST CALLVALUE PUSH2 0xE8 JUMPI PUSH1 0x20 CALLDATASIZE PUSH1 0x3 NOT ADD SLT PUSH2 0xE8 JUMPI PUSH1 0x1 PUSH1 0x1 PUSH1 0xA0 SHL SUB PUSH2 0x198 PUSH2 0x1294 JUMP JUMPDEST AND PUSH1 0x0 MSTORE PUSH1 0x4 PUSH1 0x20 MSTORE PUSH1 0xA0 PUSH1 0x40 PUSH1 0x0 KECCAK256 DUP1 SLOAD SWAP1 PUSH1 0xFF PUSH1 0x1 DUP3 ADD SLOAD AND SWAP1 PUSH1 0x2 DUP2 ADD SLOAD PUSH2 0x1D7 PUSH1 0x4 PUSH1 0x3 DUP5 ADD SLOAD SWAP4 ADD SLOAD SWAP4 PUSH1 0x40 MLOAD SWAP6 DUP7 MSTORE PUSH1 0x20 DUP7 ADD SWAP1 PUSH2 0x1287 JUMP JUMPDEST PUSH1 0x40 DUP5 ADD MSTORE PUSH1 0x60 DUP4 ADD MSTORE PUSH1 0x80 DUP3 ADD MSTORE RETURN JUMPDEST CALLVALUE PUSH2 0xE8 JUMPI PUSH1 0x40 CALLDATASIZE PUSH1 0x3 NOT ADD SLT PUSH2 0xE8 JUMPI PUSH1 0x4 CALLDATALOAD PUSH1 0x24 CALLDATALOAD PUSH8 0xFFFFFFFFFFFFFFFF DUP2 GT PUSH2 0xE8 JUMPI PUSH2 0x21C SWAP1 CALLDATASIZE SWAP1 PUSH1 0x4 ADD PUSH2 0x12AA JUMP JUMPDEST SWAP1 PUSH2 0x22A PUSH1 0x1 SLOAD DUP3 LT PUSH2 0x1562 JUMP JUMPDEST DUP1 PUSH1 0x0 MSTORE PUSH1 0x20 PUSH1 0x2 DUP2 MSTORE PUSH1 0x40 PUSH1 0x0 KECCAK256 SWAP1 PUSH1 0x7 DUP3 ADD SWAP3 DUP4 SLOAD SWAP4 PUSH1 0xFF DUP6 AND PUSH1 0x6 DUP2 LT ISZERO PUSH2 0x516 JUMPI PUSH1 0x1 PUSH2 0x25B SWAP2 EQ PUSH2 0x15A4 JUMP JUMPDEST PUSH2 0x26A PUSH1 0xA DUP6 ADD SLOAD TIMESTAMP GT PUSH2 0x15F0 JUMP JUMPDEST PUSH1 0x8 DUP5 ADD SLOAD SWAP1 PUSH1 0x9 DUP6 ADD SLOAD PUSH2 0x28C PUSH2 0x282 DUP3 DUP6 PUSH2 0x1635 JUMP JUMPDEST PUSH1 0x6 SLOAD GT ISZERO PUSH2 0x1642 JUMP JUMPDEST PUSH1 0x1 DUP1 PUSH1 0xA0 SHL SUB SWAP7 DUP8 DUP8 SLOAD AND SWAP2 DUP3 PUSH1 0x0 MSTORE PUSH1 0x4 DUP8 MSTORE PUSH1 0x40 PUSH1 0x0 KECCAK256 SWAP5 GT PUSH1 0x0 EQ PUSH2 0x3FA JUMPI POP POP DUP1 SLOAD PUSH1 0xFF NOT AND PUSH1 0x2 OR SWAP1 SSTORE PUSH1 0x3 ADD DUP1 SLOAD PUSH2 0x2CA SWAP1 PUSH2 0x1683 JUMP JUMPDEST SWAP1 SSTORE DUP4 DUP4 SLOAD AND DUP1 PUSH1 0x0 MSTORE PUSH1 0x4 DUP4 MSTORE PUSH1 0x40 PUSH1 0x0 KECCAK256 SWAP6 DUP7 SLOAD PUSH1 0xA DUP2 ADD DUP1 SWAP2 GT PUSH2 0x3E4 JUMPI DUP8 SSTORE PUSH1 0x40 MLOAD PUSH4 0xD0DEF521 PUSH1 0xE0 SHL DUP2 MSTORE SWAP1 DUP5 SWAP1 DUP3 SWAP1 DUP2 SWAP1 PUSH2 0x30F SWAP1 DUP7 PUSH1 0x4 DUP5 ADD PUSH2 0x1301 JUMP JUMPDEST SUB DUP2 PUSH1 0x0 DUP11 PUSH32 0x0 AND GAS CALL DUP1 ISZERO PUSH2 0x3D8 JUMPI PUSH2 0x3A9 JUMPI JUMPDEST POP SWAP5 SLOAD PUSH1 0x40 DUP1 MLOAD PUSH1 0x1 PUSH1 0x1 PUSH1 0xA0 SHL SUB SWAP1 SWAP8 AND DUP8 MSTORE PUSH1 0x20 DUP8 ADD SWAP2 SWAP1 SWAP2 MSTORE PUSH2 0x3A7 SWAP6 PUSH32 0x3AA476B7499359259E68E236E4BA85F83FF093E3B6341E6A3F6F295D9CD68877 SWAP4 SWAP3 SWAP2 PUSH1 0x0 DUP1 MLOAD PUSH1 0x20 PUSH2 0x1AD4 DUP4 CODECOPY DUP2 MLOAD SWAP2 MSTORE SWAP2 LOG1 PUSH1 0x40 MLOAD SWAP1 DUP2 MSTORE LOG1 JUMPDEST SLOAD AND PUSH2 0x1899 JUMP JUMPDEST STOP JUMPDEST SWAP3 DUP1 SWAP3 SWAP2 SWAP4 DUP2 RETURNDATASIZE DUP4 GT PUSH2 0x3D1 JUMPI JUMPDEST PUSH2 0x3C1 DUP2 DUP4 PUSH2 0x1180 JUMP JUMPDEST DUP2 ADD SUB SLT PUSH2 0xE8 JUMPI SWAP1 SWAP2 DUP7 PUSH2 0x343 JUMP JUMPDEST POP RETURNDATASIZE PUSH2 0x3B7 JUMP JUMPDEST PUSH1 0x40 MLOAD RETURNDATASIZE PUSH1 0x0 DUP3 RETURNDATACOPY RETURNDATASIZE SWAP1 REVERT JUMPDEST PUSH4 0x4E487B71 PUSH1 0xE0 SHL PUSH1 0x0 MSTORE PUSH1 0x11 PUSH1 0x4 MSTORE PUSH1 0x24 PUSH1 0x0 REVERT JUMPDEST PUSH1 0xFF NOT AND PUSH1 0x3 OR SWAP1 SWAP2 SSTORE DUP2 SLOAD SWAP2 SWAP7 SWAP1 SWAP2 DUP5 PUSH1 0x5 DUP3 GT ISZERO PUSH2 0x509 JUMPI POP PUSH1 0x4 NOT DUP2 ADD SWAP1 DUP2 GT PUSH2 0x3E4 JUMPI PUSH2 0x445 SWAP2 DUP6 SWAP2 JUMPDEST DUP10 SSTORE PUSH1 0x40 MLOAD DUP1 SWAP4 DUP2 SWAP3 PUSH4 0xD0DEF521 PUSH1 0xE0 SHL DUP4 MSTORE DUP7 PUSH1 0x4 DUP5 ADD PUSH2 0x1301 JUMP JUMPDEST SUB DUP2 PUSH1 0x0 DUP11 PUSH32 0x0 AND GAS CALL DUP1 ISZERO PUSH2 0x3D8 JUMPI PUSH2 0x4DA JUMPI JUMPDEST POP SWAP5 SLOAD PUSH1 0x40 DUP1 MLOAD PUSH1 0x1 PUSH1 0x1 PUSH1 0xA0 SHL SUB SWAP1 SWAP8 AND DUP8 MSTORE PUSH1 0x20 DUP8 ADD SWAP2 SWAP1 SWAP2 MSTORE PUSH2 0x3A7 SWAP6 PUSH32 0xC3F451C8EBA813B83ED73BF2904347FFF970B9CA06227A6507F7E9CD971FF113 SWAP4 SWAP3 SWAP2 PUSH1 0x0 DUP1 MLOAD PUSH1 0x20 PUSH2 0x1AD4 DUP4 CODECOPY DUP2 MLOAD SWAP2 MSTORE SWAP2 LOG1 PUSH1 0x40 MLOAD SWAP1 DUP2 MSTORE LOG1 PUSH2 0x3A0 JUMP JUMPDEST SWAP3 DUP1 SWAP3 SWAP2 SWAP4 DUP2 RETURNDATASIZE DUP4 GT PUSH2 0x502 JUMPI JUMPDEST PUSH2 0x4F2 DUP2 DUP4 PUSH2 0x1180 JUMP JUMPDEST DUP2 ADD SUB SLT PUSH2 0xE8 JUMPI SWAP1 SWAP2 DUP7 PUSH2 0x479 JUMP JUMPDEST POP RETURNDATASIZE PUSH2 0x4E8 JUMP JUMPDEST SWAP1 POP PUSH2 0x445 SWAP2 PUSH1 0x0 PUSH2 0x428 JUMP JUMPDEST PUSH4 0x4E487B71 PUSH1 0xE0 SHL PUSH1 0x0 MSTORE PUSH1 0x21 PUSH1 0x4 MSTORE PUSH1 0x24 PUSH1 0x0 REVERT JUMPDEST CALLVALUE PUSH2 0xE8 JUMPI PUSH1 0x40 CALLDATASIZE PUSH1 0x3 NOT ADD SLT PUSH2 0xE8 JUMPI PUSH1 0x24 PUSH1 0x4 CALLDATALOAD DUP2 CALLDATALOAD DUP1 ISZERO ISZERO DUP2 SUB PUSH2 0xE8 JUMPI PUSH2 0x55A PUSH1 0x1 SLOAD DUP4 LT PUSH2 0x1562 JUMP JUMPDEST DUP2 PUSH1 0x0 MSTORE PUSH1 0x20 SWAP3 PUSH1 0x2 DUP5 MSTORE PUSH1 0x40 PUSH1 0x0 KECCAK256 SWAP1 PUSH1 0xFF PUSH1 0x7 DUP4 ADD SLOAD AND PUSH1 0x6 DUP2 LT ISZERO PUSH2 0x73A JUMPI PUSH1 0x1 PUSH2 0x588 SWAP2 EQ PUSH2 0x15A4 JUMP JUMPDEST PUSH1 0xA DUP3 ADD SLOAD TIMESTAMP GT PUSH2 0x6FF JUMPI DUP4 PUSH1 0x0 MSTORE PUSH1 0x3 DUP6 MSTORE PUSH1 0x40 PUSH1 0x0 KECCAK256 CALLER PUSH1 0x0 MSTORE DUP6 MSTORE PUSH1 0xFF PUSH1 0x40 PUSH1 0x0 KECCAK256 SLOAD AND PUSH2 0x6CC JUMPI PUSH1 0x40 MLOAD PUSH4 0x70A08231 PUSH1 0xE0 SHL DUP2 MSTORE CALLER PUSH1 0x4 DUP3 ADD MSTORE SWAP1 DUP6 DUP3 DUP3 DUP2 PUSH32 0x0 PUSH1 0x1 PUSH1 0x1 PUSH1 0xA0 SHL SUB AND GAS STATICCALL SWAP2 DUP3 ISZERO PUSH2 0x3D8 JUMPI PUSH1 0x0 SWAP3 PUSH2 0x69D JUMPI JUMPDEST POP DUP2 ISZERO PUSH2 0x667 JUMPI POP PUSH2 0x617 SWAP1 PUSH2 0x1990 JUMP JUMPDEST SWAP2 ISZERO PUSH2 0x651 JUMPI PUSH1 0x8 PUSH2 0x62C SWAP2 ADD SWAP2 DUP3 SLOAD PUSH2 0x1635 JUMP JUMPDEST SWAP1 SSTORE JUMPDEST PUSH1 0x0 SWAP1 DUP2 MSTORE PUSH1 0x3 DUP3 MSTORE PUSH1 0x40 DUP1 DUP3 KECCAK256 CALLER DUP4 MSTORE SWAP1 SWAP3 MSTORE KECCAK256 DUP1 SLOAD PUSH1 0xFF NOT AND PUSH1 0x1 OR SWAP1 SSTORE STOP JUMPDEST PUSH1 0x9 PUSH2 0x660 SWAP2 ADD SWAP2 DUP3 SLOAD PUSH2 0x1635 JUMP JUMPDEST SWAP1 SSTORE PUSH2 0x62F JUMP JUMPDEST DUP6 PUSH1 0x10 PUSH1 0x64 SWAP3 PUSH1 0x40 MLOAD SWAP3 PUSH3 0x461BCD PUSH1 0xE5 SHL DUP5 MSTORE PUSH1 0x4 DUP5 ADD MSTORE DUP3 ADD MSTORE PUSH16 0x4E6F20766F74696E6720726967687473 PUSH1 0x80 SHL PUSH1 0x44 DUP3 ADD MSTORE REVERT JUMPDEST SWAP1 SWAP2 POP DUP6 DUP2 DUP2 RETURNDATASIZE DUP4 GT PUSH2 0x6C5 JUMPI JUMPDEST PUSH2 0x6B5 DUP2 DUP4 PUSH2 0x1180 JUMP JUMPDEST DUP2 ADD SUB SLT PUSH2 0xE8 JUMPI MLOAD SWAP1 DUP7 PUSH2 0x606 JUMP JUMPDEST POP RETURNDATASIZE PUSH2 0x6AB JUMP JUMPDEST DUP5 PUSH1 0xD PUSH1 0x64 SWAP3 PUSH1 0x40 MLOAD SWAP3 PUSH3 0x461BCD PUSH1 0xE5 SHL DUP5 MSTORE PUSH1 0x4 DUP5 ADD MSTORE DUP3 ADD MSTORE PUSH13 0x105B1C9958591E481D9BDD1959 PUSH1 0x9A SHL PUSH1 0x44 DUP3 ADD MSTORE REVERT JUMPDEST DUP5 PUSH1 0x15 PUSH1 0x64 SWAP3 PUSH1 0x40 MLOAD SWAP3 PUSH3 0x461BCD PUSH1 0xE5 SHL DUP5 MSTORE PUSH1 0x4 DUP5 ADD MSTORE DUP3 ADD MSTORE PUSH21 0x2B37BA34B733903832B934B7B21034B99037BB32B9 PUSH1 0x59 SHL PUSH1 0x44 DUP3 ADD MSTORE REVERT JUMPDEST POP PUSH4 0x4E487B71 PUSH1 0xE0 SHL PUSH1 0x0 SWAP1 DUP2 MSTORE PUSH1 0x21 PUSH1 0x4 MSTORE REVERT JUMPDEST CALLVALUE PUSH2 0xE8 JUMPI PUSH1 0x0 CALLDATASIZE PUSH1 0x3 NOT ADD SLT PUSH2 0xE8 JUMPI PUSH1 0x20 PUSH1 0x6 SLOAD PUSH1 0x40 MLOAD SWAP1 DUP2 MSTORE RETURN JUMPDEST CALLVALUE PUSH2 0xE8 JUMPI PUSH2 0x120 CALLDATASIZE PUSH1 0x3 NOT ADD SLT PUSH2 0xE8 JUMPI PUSH1 0x4 CALLDATALOAD PUSH8 0xFFFFFFFFFFFFFFFF DUP2 GT PUSH2 0xE8 JUMPI PUSH2 0x79F SWAP1 CALLDATASIZE SWAP1 PUSH1 0x4 ADD PUSH2 0x12AA JUMP JUMPDEST PUSH1 0xA4 CALLDATALOAD PUSH8 0xFFFFFFFFFFFFFFFF DUP2 GT PUSH2 0xE8 JUMPI PUSH2 0x7BF SWAP1 CALLDATASIZE SWAP1 PUSH1 0x4 ADD PUSH2 0x12AA JUMP JUMPDEST SWAP1 PUSH1 0xC4 CALLDATALOAD PUSH8 0xFFFFFFFFFFFFFFFF DUP2 GT PUSH2 0xE8 JUMPI PUSH2 0x7E0 SWAP1 CALLDATASIZE SWAP1 PUSH1 0x4 ADD PUSH2 0x12AA JUMP JUMPDEST SWAP2 PUSH1 0xE4 CALLDATALOAD PUSH8 0xFFFFFFFFFFFFFFFF DUP2 GT PUSH2 0xE8 JUMPI PUSH2 0x801 SWAP1 CALLDATASIZE SWAP1 PUSH1 0x4 ADD PUSH2 0x12AA JUMP JUMPDEST SWAP3 DUP3 MLOAD ISZERO PUSH2 0xE94 JUMPI PUSH1 0x44 CALLDATALOAD PUSH1 0x64 CALLDATALOAD GT ISZERO PUSH2 0xE45 JUMPI PUSH1 0x84 CALLDATALOAD ISZERO PUSH2 0xE01 JUMPI CALLER PUSH1 0x0 MSTORE PUSH1 0x4 PUSH1 0x20 MSTORE PUSH2 0x83A PUSH1 0x40 PUSH1 0x0 KECCAK256 SWAP5 PUSH2 0x104 CALLDATALOAD SWAP1 CALLER PUSH2 0x1326 JUMP JUMPDEST PUSH1 0x24 CALLDATALOAD DUP5 SLOAD LT PUSH2 0xDBC JUMPI PUSH1 0x1 SLOAD SWAP2 PUSH2 0x851 DUP4 PUSH2 0x1683 JUMP JUMPDEST PUSH1 0x1 SSTORE PUSH2 0x860 PUSH1 0x5 SLOAD TIMESTAMP PUSH2 0x1635 JUMP JUMPDEST SWAP2 PUSH1 0xFF PUSH1 0x1 DUP8 ADD SLOAD AND SWAP2 PUSH1 0x40 MLOAD SWAP4 DUP5 PUSH2 0x1C0 DUP2 ADD LT PUSH8 0xFFFFFFFFFFFFFFFF PUSH2 0x1C0 DUP8 ADD GT OR PUSH2 0xC06 JUMPI PUSH2 0x1C0 DUP6 ADD PUSH1 0x40 MSTORE CALLER DUP6 MSTORE DUP7 PUSH1 0x20 DUP7 ADD MSTORE PUSH1 0x24 CALLDATALOAD PUSH1 0x40 DUP7 ADD MSTORE PUSH1 0x44 CALLDATALOAD PUSH1 0x60 DUP7 ADD MSTORE PUSH1 0x64 CALLDATALOAD PUSH1 0x80 DUP7 ADD MSTORE PUSH1 0x84 CALLDATALOAD PUSH1 0xA0 DUP7 ADD MSTORE PUSH1 0x0 PUSH1 0xC0 DUP7 ADD MSTORE PUSH1 0x1 PUSH1 0xE0 DUP7 ADD MSTORE PUSH1 0x0 PUSH2 0x100 DUP7 ADD MSTORE PUSH1 0x0 PUSH2 0x120 DUP7 ADD MSTORE PUSH2 0x140 DUP6 ADD MSTORE PUSH2 0x160 DUP5 ADD MSTORE PUSH2 0x180 DUP4 ADD MSTORE PUSH1 0x4 DUP2 LT ISZERO PUSH2 0x516 JUMPI PUSH2 0x1A0 DUP3 ADD MSTORE DUP2 PUSH1 0x0 MSTORE PUSH1 0x2 PUSH1 0x20 MSTORE PUSH1 0x40 PUSH1 0x0 KECCAK256 SWAP1 PUSH1 0x1 DUP1 PUSH1 0xA0 SHL SUB DUP2 MLOAD AND PUSH12 0xFFFFFFFFFFFFFFFFFFFFFFFF PUSH1 0xA0 SHL DUP4 SLOAD AND OR DUP3 SSTORE PUSH1 0x20 DUP2 ADD MLOAD DUP1 MLOAD SWAP1 PUSH8 0xFFFFFFFFFFFFFFFF DUP3 GT PUSH2 0xC06 JUMPI DUP2 SWAP1 PUSH2 0x94E PUSH1 0x1 DUP7 ADD SLOAD PUSH2 0x1146 JUMP JUMPDEST PUSH1 0x1F DUP2 GT PUSH2 0xD69 JUMPI JUMPDEST POP PUSH1 0x20 SWAP1 PUSH1 0x1F DUP4 GT PUSH1 0x1 EQ PUSH2 0xCF7 JUMPI PUSH1 0x0 SWAP3 PUSH2 0xCEC JUMPI JUMPDEST POP POP DUP2 PUSH1 0x1 SHL SWAP2 PUSH1 0x0 NOT SWAP1 PUSH1 0x3 SHL SHR NOT AND OR PUSH1 0x1 DUP4 ADD SSTORE JUMPDEST PUSH1 0x40 DUP2 ADD MLOAD PUSH1 0x2 DUP4 ADD SSTORE PUSH1 0x60 DUP2 ADD MLOAD PUSH1 0x3 DUP4 ADD SSTORE PUSH1 0x80 DUP2 ADD MLOAD PUSH1 0x4 DUP4 ADD SSTORE PUSH1 0xA0 DUP2 ADD MLOAD PUSH1 0x5 DUP4 ADD SSTORE PUSH1 0xC0 DUP2 ADD MLOAD PUSH1 0x6 DUP4 ADD SSTORE PUSH1 0x7 DUP3 ADD PUSH1 0xE0 DUP3 ADD MLOAD PUSH1 0x6 DUP2 LT ISZERO PUSH2 0x516 JUMPI PUSH1 0xFF DUP1 NOT DUP4 SLOAD AND SWAP2 AND OR SWAP1 SSTORE PUSH2 0x100 DUP2 ADD MLOAD PUSH1 0x8 DUP4 ADD SSTORE PUSH2 0x120 DUP2 ADD MLOAD PUSH1 0x9 DUP4 ADD SSTORE PUSH2 0x140 DUP2 ADD MLOAD PUSH1 0xA DUP4 ADD SSTORE PUSH2 0x160 DUP2 ADD MLOAD DUP1 MLOAD SWAP1 PUSH8 0xFFFFFFFFFFFFFFFF DUP3 GT PUSH2 0xC06 JUMPI DUP2 SWAP1 PUSH2 0xA1E PUSH1 0xB DUP7 ADD SLOAD PUSH2 0x1146 JUMP JUMPDEST PUSH1 0x1F DUP2 GT PUSH2 0xC99 JUMPI JUMPDEST POP PUSH1 0x20 SWAP1 PUSH1 0x1F DUP4 GT PUSH1 0x1 EQ PUSH2 0xC27 JUMPI PUSH1 0x0 SWAP3 PUSH2 0xC1C JUMPI JUMPDEST POP POP DUP2 PUSH1 0x1 SHL SWAP2 PUSH1 0x0 NOT SWAP1 PUSH1 0x3 SHL SHR NOT AND OR PUSH1 0xB DUP4 ADD SSTORE JUMPDEST PUSH2 0x180 DUP2 ADD MLOAD DUP1 MLOAD SWAP1 PUSH8 0xFFFFFFFFFFFFFFFF DUP3 GT PUSH2 0xC06 JUMPI PUSH2 0xA7B PUSH1 0xC DUP6 ADD SLOAD PUSH2 0x1146 JUMP JUMPDEST PUSH1 0x1F DUP2 GT PUSH2 0xBBF JUMPI JUMPDEST POP PUSH1 0x20 SWAP1 PUSH1 0x1F DUP4 GT PUSH1 0x1 EQ PUSH2 0xB4B JUMPI PUSH2 0x1A0 SWAP4 SWAP3 SWAP2 PUSH1 0x0 SWAP2 DUP4 PUSH2 0xB40 JUMPI JUMPDEST POP POP DUP2 PUSH1 0x1 SHL SWAP2 PUSH1 0x0 NOT SWAP1 PUSH1 0x3 SHL SHR NOT AND OR PUSH1 0xC DUP5 ADD SSTORE JUMPDEST ADD MLOAD PUSH1 0x4 DUP2 LT ISZERO PUSH2 0x516 JUMPI PUSH32 0xE70C2C8FE6B59E8D5E3FD9776FA5C77A60227915CE36B96F444065A3DEF0FAD8 SWAP5 PUSH2 0xAF8 PUSH1 0x1 SWAP3 PUSH1 0xD PUSH1 0xFF SWAP6 ADD PUSH2 0x1692 JUMP JUMPDEST PUSH1 0x2 DUP2 ADD PUSH2 0xB06 DUP2 SLOAD PUSH2 0x1683 JUMP JUMPDEST SWAP1 SSTORE ADD SLOAD AND PUSH2 0xB3B PUSH2 0xB30 PUSH1 0x40 MLOAD SWAP5 DUP6 SWAP5 DUP6 MSTORE CALLER PUSH1 0x20 DUP7 ADD MSTORE PUSH1 0x80 PUSH1 0x40 DUP7 ADD MSTORE PUSH1 0x80 DUP6 ADD SWAP1 PUSH2 0x1247 JUMP JUMPDEST SWAP2 PUSH1 0x60 DUP5 ADD SWAP1 PUSH2 0x1287 JUMP JUMPDEST SUB SWAP1 LOG1 STOP JUMPDEST ADD MLOAD SWAP1 POP DUP9 DUP1 PUSH2 0xAA2 JUMP JUMPDEST SWAP1 PUSH1 0xC DUP6 ADD PUSH1 0x0 MSTORE PUSH1 0x20 PUSH1 0x0 KECCAK256 SWAP2 PUSH1 0x0 JUMPDEST PUSH1 0x1F NOT DUP6 AND DUP2 LT PUSH2 0xBA7 JUMPI POP SWAP2 DUP4 SWAP2 PUSH1 0x1 SWAP4 PUSH2 0x1A0 SWAP7 SWAP6 PUSH1 0x1F NOT DUP2 AND LT PUSH2 0xB8E JUMPI JUMPDEST POP POP POP DUP2 SHL ADD PUSH1 0xC DUP5 ADD SSTORE PUSH2 0xABA JUMP JUMPDEST ADD MLOAD PUSH1 0x0 NOT PUSH1 0xF8 DUP5 PUSH1 0x3 SHL AND SHR NOT AND SWAP1 SSTORE DUP9 DUP1 DUP1 PUSH2 0xB7E JUMP JUMPDEST SWAP2 SWAP3 PUSH1 0x20 PUSH1 0x1 DUP2 SWAP3 DUP7 DUP6 ADD MLOAD DUP2 SSTORE ADD SWAP5 ADD SWAP3 ADD PUSH2 0xB5C JUMP JUMPDEST PUSH1 0xC DUP6 ADD PUSH1 0x0 MSTORE PUSH1 0x20 PUSH1 0x0 KECCAK256 PUSH1 0x1F DUP5 ADD PUSH1 0x5 SHR DUP2 ADD PUSH1 0x20 DUP6 LT PUSH2 0xBFF JUMPI JUMPDEST PUSH1 0x1F DUP4 ADD PUSH1 0x5 SHR DUP3 ADD DUP2 LT PUSH2 0xBF3 JUMPI POP POP PUSH2 0xA84 JUMP JUMPDEST PUSH1 0x0 DUP2 SSTORE PUSH1 0x1 ADD PUSH2 0xBDD JUMP JUMPDEST POP DUP1 PUSH2 0xBDD JUMP JUMPDEST PUSH4 0x4E487B71 PUSH1 0xE0 SHL PUSH1 0x0 MSTORE PUSH1 0x41 PUSH1 0x4 MSTORE PUSH1 0x24 PUSH1 0x0 REVERT JUMPDEST ADD MLOAD SWAP1 POP DUP8 DUP1 PUSH2 0xA3E JUMP JUMPDEST SWAP3 POP PUSH1 0xB DUP6 ADD PUSH1 0x0 MSTORE PUSH1 0x20 PUSH1 0x0 KECCAK256 SWAP1 PUSH1 0x0 SWAP4 JUMPDEST PUSH1 0x1F NOT DUP5 AND DUP6 LT PUSH2 0xC7E JUMPI PUSH1 0x1 SWAP5 POP DUP4 PUSH1 0x1F NOT DUP2 AND LT PUSH2 0xC65 JUMPI JUMPDEST POP POP POP DUP2 SHL ADD PUSH1 0xB DUP4 ADD SSTORE PUSH2 0xA56 JUMP JUMPDEST ADD MLOAD PUSH1 0x0 NOT PUSH1 0xF8 DUP5 PUSH1 0x3 SHL AND SHR NOT AND SWAP1 SSTORE DUP8 DUP1 DUP1 PUSH2 0xC55 JUMP JUMPDEST DUP2 DUP2 ADD MLOAD DUP4 SSTORE PUSH1 0x20 SWAP5 DUP6 ADD SWAP5 PUSH1 0x1 SWAP1 SWAP4 ADD SWAP3 SWAP1 SWAP2 ADD SWAP1 PUSH2 0xC3A JUMP JUMPDEST SWAP1 SWAP2 POP PUSH1 0xB DUP6 ADD PUSH1 0x0 MSTORE PUSH1 0x20 PUSH1 0x0 KECCAK256 PUSH1 0x1F DUP5 ADD PUSH1 0x5 SHR DUP2 ADD PUSH1 0x20 DUP6 LT PUSH2 0xCE5 JUMPI JUMPDEST SWAP1 DUP5 SWAP4 SWAP3 SWAP2 JUMPDEST PUSH1 0x1F DUP4 ADD PUSH1 0x5 SHR DUP3 ADD DUP2 LT PUSH2 0xCD6 JUMPI POP POP PUSH2 0xA27 JUMP JUMPDEST PUSH1 0x0 DUP2 SSTORE DUP6 SWAP5 POP PUSH1 0x1 ADD PUSH2 0xCC0 JUMP JUMPDEST POP DUP1 PUSH2 0xCBA JUMP JUMPDEST ADD MLOAD SWAP1 POP DUP8 DUP1 PUSH2 0x96E JUMP JUMPDEST SWAP3 POP PUSH1 0x1 DUP6 ADD PUSH1 0x0 MSTORE PUSH1 0x20 PUSH1 0x0 KECCAK256 SWAP1 PUSH1 0x0 SWAP4 JUMPDEST PUSH1 0x1F NOT DUP5 AND DUP6 LT PUSH2 0xD4E JUMPI PUSH1 0x1 SWAP5 POP DUP4 PUSH1 0x1F NOT DUP2 AND LT PUSH2 0xD35 JUMPI JUMPDEST POP POP POP DUP2 SHL ADD PUSH1 0x1 DUP4 ADD SSTORE PUSH2 0x986 JUMP JUMPDEST ADD MLOAD PUSH1 0x0 NOT PUSH1 0xF8 DUP5 PUSH1 0x3 SHL AND SHR NOT AND SWAP1 SSTORE DUP8 DUP1 DUP1 PUSH2 0xD25 JUMP JUMPDEST DUP2 DUP2 ADD MLOAD DUP4 SSTORE PUSH1 0x20 SWAP5 DUP6 ADD SWAP5 PUSH1 0x1 SWAP1 SWAP4 ADD SWAP3 SWAP1 SWAP2 ADD SWAP1 PUSH2 0xD0A JUMP JUMPDEST SWAP1 SWAP2 POP PUSH1 0x1 DUP6 ADD PUSH1 0x0 MSTORE PUSH1 0x20 PUSH1 0x0 KECCAK256 PUSH1 0x1F DUP5 ADD PUSH1 0x5 SHR DUP2 ADD PUSH1 0x20 DUP6 LT PUSH2 0xDB5 JUMPI JUMPDEST SWAP1 DUP5 SWAP4 SWAP3 SWAP2 JUMPDEST PUSH1 0x1F DUP4 ADD PUSH1 0x5 SHR DUP3 ADD DUP2 LT PUSH2 0xDA6 JUMPI POP POP PUSH2 0x957 JUMP JUMPDEST PUSH1 0x0 DUP2 SSTORE DUP6 SWAP5 POP PUSH1 0x1 ADD PUSH2 0xD90 JUMP JUMPDEST POP DUP1 PUSH2 0xD8A JUMP JUMPDEST PUSH1 0x40 MLOAD PUSH3 0x461BCD PUSH1 0xE5 SHL DUP2 MSTORE PUSH1 0x20 PUSH1 0x4 DUP3 ADD MSTORE PUSH1 0x17 PUSH1 0x24 DUP3 ADD MSTORE PUSH32 0x496E73756666696369656E742072657075746174696F6E000000000000000000 PUSH1 0x44 DUP3 ADD MSTORE PUSH1 0x64 SWAP1 REVERT JUMPDEST PUSH1 0x64 PUSH1 0x40 MLOAD PUSH3 0x461BCD PUSH1 0xE5 SHL DUP2 MSTORE PUSH1 0x20 PUSH1 0x4 DUP3 ADD MSTORE PUSH1 0x20 PUSH1 0x24 DUP3 ADD MSTORE PUSH32 0x427564676574206D7573742062652067726561746572207468616E207A65726F PUSH1 0x44 DUP3 ADD MSTORE REVERT JUMPDEST PUSH1 0x40 MLOAD PUSH3 0x461BCD PUSH1 0xE5 SHL DUP2 MSTORE PUSH1 0x20 PUSH1 0x4 DUP3 ADD MSTORE PUSH1 0x21 PUSH1 0x24 DUP3 ADD MSTORE PUSH32 0x456E642074696D65206D7573742062652061667465722073746172742074696D PUSH1 0x44 DUP3 ADD MSTORE PUSH1 0x65 PUSH1 0xF8 SHL PUSH1 0x64 DUP3 ADD MSTORE PUSH1 0x84 SWAP1 REVERT JUMPDEST PUSH1 0x40 MLOAD PUSH3 0x461BCD PUSH1 0xE5 SHL DUP2 MSTORE PUSH1 0x20 PUSH1 0x4 DUP3 ADD MSTORE PUSH1 0x1C PUSH1 0x24 DUP3 ADD MSTORE PUSH32 0x43616D706169676E205552492063616E6E6F7420626520656D70747900000000 PUSH1 0x44 DUP3 ADD MSTORE PUSH1 0x64 SWAP1 REVERT JUMPDEST CALLVALUE PUSH2 0xE8 JUMPI PUSH1 0x40 CALLDATASIZE PUSH1 0x3 NOT ADD SLT PUSH2 0xE8 JUMPI PUSH1 0x24 CALLDATALOAD PUSH1 0x1 PUSH1 0x1 PUSH1 0xA0 SHL SUB DUP2 AND SWAP1 DUP2 SWAP1 SUB PUSH2 0xE8 JUMPI PUSH1 0x4 CALLDATALOAD PUSH1 0x0 MSTORE PUSH1 0x3 PUSH1 0x20 MSTORE PUSH1 0x40 PUSH1 0x0 KECCAK256 SWAP1 PUSH1 0x0 MSTORE PUSH1 0x20 MSTORE PUSH1 0x20 PUSH1 0xFF PUSH1 0x40 PUSH1 0x0 KECCAK256 SLOAD AND PUSH1 0x40 MLOAD SWAP1 ISZERO ISZERO DUP2 MSTORE RETURN JUMPDEST CALLVALUE PUSH2 0xE8 JUMPI PUSH1 0x0 CALLDATASIZE PUSH1 0x3 NOT ADD SLT PUSH2 0xE8 JUMPI PUSH1 0x20 PUSH1 0x1 SLOAD PUSH1 0x40 MLOAD SWAP1 DUP2 MSTORE RETURN JUMPDEST CALLVALUE PUSH2 0xE8 JUMPI PUSH1 0x20 CALLDATASIZE PUSH1 0x3 NOT ADD SLT PUSH2 0xE8 JUMPI PUSH1 0x4 CALLDATALOAD PUSH2 0xF6A PUSH1 0x1 SLOAD DUP3 LT PUSH2 0x1562 JUMP JUMPDEST PUSH1 0x0 MSTORE PUSH1 0x2 PUSH1 0x20 MSTORE PUSH1 0x40 PUSH1 0x0 KECCAK256 PUSH1 0xFF PUSH1 0x7 DUP3 ADD SLOAD AND SWAP1 PUSH1 0x6 DUP3 LT ISZERO PUSH2 0x516 JUMPI PUSH2 0xF97 PUSH1 0x1 PUSH1 0x40 SWAP4 EQ PUSH2 0x15A4 JUMP JUMPDEST PUSH2 0xFA6 PUSH1 0xA DUP3 ADD SLOAD TIMESTAMP GT PUSH2 0x15F0 JUMP JUMPDEST PUSH1 0x9 PUSH1 0x8 DUP3 ADD SLOAD SWAP2 ADD SLOAD PUSH2 0xDC PUSH2 0x282 DUP3 DUP5 PUSH2 0x1635 JUMP JUMPDEST CALLVALUE PUSH2 0xE8 JUMPI PUSH1 0x60 CALLDATASIZE PUSH1 0x3 NOT ADD SLT PUSH2 0xE8 JUMPI PUSH2 0xFD6 PUSH2 0x1294 JUMP JUMPDEST PUSH1 0x24 CALLDATALOAD SWAP1 PUSH8 0xFFFFFFFFFFFFFFFF DUP3 GT PUSH2 0xE8 JUMPI PUSH2 0xFFA PUSH2 0x3A7 SWAP3 CALLDATASIZE SWAP1 PUSH1 0x4 ADD PUSH2 0x12AA JUMP JUMPDEST PUSH1 0x44 CALLDATALOAD SWAP2 PUSH2 0x1326 JUMP JUMPDEST CALLVALUE PUSH2 0xE8 JUMPI PUSH1 0x20 CALLDATASIZE PUSH1 0x3 NOT ADD SLT PUSH2 0xE8 JUMPI PUSH1 0x4 CALLDATALOAD PUSH1 0x0 SWAP1 DUP2 MSTORE PUSH1 0x2 PUSH1 0x20 MSTORE PUSH1 0x40 SWAP1 KECCAK256 DUP1 SLOAD PUSH1 0x1 PUSH1 0x1 PUSH1 0xA0 SHL SUB AND SWAP1 PUSH2 0x103D PUSH1 0x1 DUP3 ADD PUSH2 0x11A2 JUMP JUMPDEST SWAP2 PUSH1 0x2 DUP3 ADD SLOAD SWAP1 PUSH1 0x3 DUP4 ADD SLOAD SWAP1 PUSH1 0x4 DUP5 ADD SLOAD SWAP4 PUSH1 0x5 DUP2 ADD SLOAD SWAP3 PUSH1 0x6 DUP3 ADD SLOAD SWAP3 PUSH1 0x7 DUP4 ADD SLOAD PUSH1 0xFF AND SWAP2 PUSH1 0x8 DUP5 ADD SLOAD SWAP5 PUSH1 0x9 DUP6 ADD SLOAD SWAP7 PUSH1 0xA DUP7 ADD SLOAD SWAP10 PUSH1 0xB DUP8 ADD PUSH2 0x1084 SWAP1 PUSH2 0x11A2 JUMP JUMPDEST SWAP4 PUSH2 0x1091 PUSH1 0xC DUP10 ADD PUSH2 0x11A2 JUMP JUMPDEST SWAP8 PUSH1 0xD ADD SLOAD PUSH1 0xFF AND SWAP11 PUSH1 0x40 MLOAD SWAP14 DUP15 SWAP8 PUSH2 0x1C0 SWAP1 DUP10 MSTORE DUP1 PUSH1 0x20 DUP11 ADD MSTORE DUP9 ADD PUSH2 0x10B7 SWAP2 PUSH2 0x1247 JUMP JUMPDEST SWAP7 PUSH1 0x40 ADD MSTORE PUSH1 0x60 DUP14 ADD MSTORE PUSH1 0x80 DUP13 ADD MSTORE PUSH1 0xA0 DUP12 ADD MSTORE PUSH1 0xC0 DUP11 ADD MSTORE PUSH1 0x6 DUP4 LT ISZERO PUSH2 0x516 JUMPI DUP9 SWAP8 PUSH2 0x1127 SWAP7 PUSH2 0x111B SWAP7 PUSH2 0x110C SWAP6 PUSH1 0xE0 DUP13 ADD MSTORE PUSH2 0x100 DUP12 ADD MSTORE PUSH2 0x120 DUP11 ADD MSTORE PUSH2 0x140 DUP10 ADD MSTORE DUP8 DUP3 SUB PUSH2 0x160 DUP10 ADD MSTORE PUSH2 0x1247 JUMP JUMPDEST SWAP1 DUP6 DUP3 SUB PUSH2 0x180 DUP8 ADD MSTORE PUSH2 0x1247 JUMP JUMPDEST SWAP2 PUSH2 0x1A0 DUP5 ADD SWAP1 PUSH2 0x1287 JUMP JUMPDEST SUB SWAP1 RETURN JUMPDEST CALLVALUE PUSH2 0xE8 JUMPI PUSH1 0x0 CALLDATASIZE PUSH1 0x3 NOT ADD SLT PUSH2 0xE8 JUMPI PUSH1 0x20 SWAP1 PUSH1 0x5 SLOAD DUP2 MSTORE RETURN JUMPDEST SWAP1 PUSH1 0x1 DUP3 DUP2 SHR SWAP3 AND DUP1 ISZERO PUSH2 0x1176 JUMPI JUMPDEST PUSH1 0x20 DUP4 LT EQ PUSH2 0x1160 JUMPI JUMP JUMPDEST PUSH4 0x4E487B71 PUSH1 0xE0 SHL PUSH1 0x0 MSTORE PUSH1 0x22 PUSH1 0x4 MSTORE PUSH1 0x24 PUSH1 0x0 REVERT JUMPDEST SWAP2 PUSH1 0x7F AND SWAP2 PUSH2 0x1155 JUMP JUMPDEST SWAP1 PUSH1 0x1F DUP1 NOT SWAP2 ADD AND DUP2 ADD SWAP1 DUP2 LT PUSH8 0xFFFFFFFFFFFFFFFF DUP3 GT OR PUSH2 0xC06 JUMPI PUSH1 0x40 MSTORE JUMP JUMPDEST SWAP1 PUSH1 0x40 MLOAD SWAP2 DUP3 PUSH1 0x0 DUP3 SLOAD PUSH2 0x11B5 DUP2 PUSH2 0x1146 JUMP JUMPDEST SWAP1 DUP2 DUP5 MSTORE PUSH1 0x20 SWAP5 PUSH1 0x1 SWAP2 PUSH1 0x1 DUP2 AND SWAP1 DUP2 PUSH1 0x0 EQ PUSH2 0x1225 JUMPI POP PUSH1 0x1 EQ PUSH2 0x11E6 JUMPI JUMPDEST POP POP POP PUSH2 0x11E4 SWAP3 POP SUB DUP4 PUSH2 0x1180 JUMP JUMPDEST JUMP JUMPDEST PUSH1 0x0 SWAP1 DUP2 MSTORE DUP6 DUP2 KECCAK256 SWAP6 SWAP4 POP SWAP2 SWAP1 JUMPDEST DUP2 DUP4 LT PUSH2 0x120D JUMPI POP POP PUSH2 0x11E4 SWAP4 POP DUP3 ADD ADD CODESIZE DUP1 DUP1 PUSH2 0x11D5 JUMP JUMPDEST DUP6 SLOAD DUP9 DUP5 ADD DUP6 ADD MSTORE SWAP5 DUP6 ADD SWAP5 DUP8 SWAP5 POP SWAP2 DUP4 ADD SWAP2 PUSH2 0x11F4 JUMP JUMPDEST SWAP3 POP POP POP PUSH2 0x11E4 SWAP5 SWAP3 POP PUSH1 0xFF NOT AND DUP3 DUP5 ADD MSTORE ISZERO ISZERO PUSH1 0x5 SHL DUP3 ADD ADD CODESIZE DUP1 DUP1 PUSH2 0x11D5 JUMP JUMPDEST SWAP2 SWAP1 DUP3 MLOAD SWAP3 DUP4 DUP3 MSTORE PUSH1 0x0 JUMPDEST DUP5 DUP2 LT PUSH2 0x1273 JUMPI POP POP DUP3 PUSH1 0x0 PUSH1 0x20 DUP1 SWAP5 SWAP6 DUP5 ADD ADD MSTORE PUSH1 0x1F DUP1 NOT SWAP2 ADD AND ADD ADD SWAP1 JUMP JUMPDEST PUSH1 0x20 DUP2 DUP4 ADD DUP2 ADD MLOAD DUP5 DUP4 ADD DUP3 ADD MSTORE ADD PUSH2 0x1252 JUMP JUMPDEST SWAP1 PUSH1 0x4 DUP3 LT ISZERO PUSH2 0x516 JUMPI MSTORE JUMP JUMPDEST PUSH1 0x4 CALLDATALOAD SWAP1 PUSH1 0x1 PUSH1 0x1 PUSH1 0xA0 SHL SUB DUP3 AND DUP3 SUB PUSH2 0xE8 JUMPI JUMP JUMPDEST DUP2 PUSH1 0x1F DUP3 ADD SLT ISZERO PUSH2 0xE8 JUMPI DUP1 CALLDATALOAD SWAP1 PUSH8 0xFFFFFFFFFFFFFFFF DUP3 GT PUSH2 0xC06 JUMPI PUSH1 0x40 MLOAD SWAP3 PUSH2 0x12DF PUSH1 0x1F DUP5 ADD PUSH1 0x1F NOT AND PUSH1 0x20 ADD DUP6 PUSH2 0x1180 JUMP JUMPDEST DUP3 DUP5 MSTORE PUSH1 0x20 DUP4 DUP4 ADD ADD GT PUSH2 0xE8 JUMPI DUP2 PUSH1 0x0 SWAP3 PUSH1 0x20 DUP1 SWAP4 ADD DUP4 DUP7 ADD CALLDATACOPY DUP4 ADD ADD MSTORE SWAP1 JUMP JUMPDEST PUSH1 0x1 PUSH1 0x1 PUSH1 0xA0 SHL SUB SWAP1 SWAP2 AND DUP2 MSTORE PUSH1 0x40 PUSH1 0x20 DUP3 ADD DUP2 SWAP1 MSTORE PUSH2 0x1323 SWAP3 SWAP2 ADD SWAP1 PUSH2 0x1247 JUMP JUMPDEST SWAP1 JUMP JUMPDEST SWAP3 SWAP2 SWAP1 SWAP3 PUSH1 0x1 DUP1 PUSH1 0xA0 SHL SUB DUP1 DUP3 AND PUSH1 0x0 DUP2 DUP2 MSTORE PUSH1 0x4 SWAP1 PUSH1 0x20 SWAP3 DUP3 DUP5 MSTORE PUSH1 0x40 SWAP9 DUP10 DUP4 KECCAK256 SWAP6 PUSH32 0x0 AND SWAP2 DUP11 MLOAD SWAP1 PUSH4 0x70A08231 PUSH1 0xE0 SHL DUP3 MSTORE DUP6 DUP3 ADD MSTORE DUP6 DUP2 PUSH1 0x24 DUP2 DUP7 GAS STATICCALL SWAP1 DUP2 ISZERO PUSH2 0x1558 JUMPI DUP5 SWAP2 PUSH2 0x1527 JUMPI JUMPDEST POP PUSH2 0x146A JUMPI PUSH2 0x13BA DUP4 SWAP3 DUP7 SWAP3 DUP13 MLOAD SWAP6 DUP7 DUP1 SWAP5 DUP2 SWAP4 PUSH4 0xD0DEF521 PUSH1 0xE0 SHL DUP4 MSTORE DUP14 DUP12 DUP5 ADD PUSH2 0x1301 JUMP JUMPDEST SUB SWAP3 GAS CALL SWAP4 DUP5 ISZERO PUSH2 0x145E JUMPI DUP2 SWAP5 PUSH2 0x141A JUMPI JUMPDEST POP POP POP DUP3 PUSH1 0x0 DUP1 MLOAD PUSH1 0x20 PUSH2 0x1AD4 DUP4 CODECOPY DUP2 MLOAD SWAP2 MSTORE SWAP7 SWAP8 SWAP3 DUP7 SWAP3 PUSH2 0x1415 SWAP6 ADD SSTORE JUMPDEST SSTORE PUSH2 0x13F5 DUP4 PUSH2 0x1899 JUMP JUMPDEST MLOAD PUSH1 0x1 PUSH1 0x1 PUSH1 0xA0 SHL SUB SWAP1 SWAP3 AND DUP3 MSTORE PUSH1 0x20 DUP3 ADD SWAP3 SWAP1 SWAP3 MSTORE SWAP1 DUP2 SWAP1 PUSH1 0x40 DUP3 ADD SWAP1 JUMP JUMPDEST SUB SWAP1 LOG1 JUMP JUMPDEST SWAP1 SWAP2 DUP1 SWAP4 SWAP5 POP DUP2 RETURNDATASIZE DUP4 GT PUSH2 0x1457 JUMPI JUMPDEST PUSH2 0x1433 DUP2 DUP4 PUSH2 0x1180 JUMP JUMPDEST DUP2 ADD SUB SLT PUSH2 0x1454 JUMPI POP MLOAD SWAP1 DUP3 DUP2 PUSH1 0x0 DUP1 MLOAD PUSH1 0x20 PUSH2 0x1AD4 DUP4 CODECOPY DUP2 MLOAD SWAP2 MSTORE PUSH2 0x13CC JUMP JUMPDEST DUP1 REVERT JUMPDEST POP RETURNDATASIZE PUSH2 0x1429 JUMP JUMPDEST POP DUP9 MLOAD SWAP1 RETURNDATASIZE SWAP1 DUP3 RETURNDATACOPY RETURNDATASIZE SWAP1 REVERT JUMPDEST DUP5 SWAP4 SWAP3 SWAP5 SWAP2 DUP8 DUP7 DUP6 DUP10 ADD SWAP6 DUP7 SLOAD ISZERO PUSH1 0x0 EQ PUSH2 0x1508 JUMPI PUSH2 0x14A8 SWAP7 PUSH2 0x148C DUP5 PUSH2 0x1708 JUMP JUMPDEST SWAP1 SSTORE DUP14 MLOAD PUSH4 0xD0DEF521 PUSH1 0xE0 SHL DUP2 MSTORE SWAP7 DUP8 SWAP6 DUP7 SWAP5 DUP6 SWAP4 DUP5 ADD PUSH2 0x1301 JUMP JUMPDEST SUB SWAP3 GAS CALL DUP1 ISZERO PUSH2 0x14FE JUMPI PUSH2 0x14D5 JUMPI JUMPDEST POP POP POP PUSH1 0x0 DUP1 MLOAD PUSH1 0x20 PUSH2 0x1AD4 DUP4 CODECOPY DUP2 MLOAD SWAP2 MSTORE SWAP4 SWAP5 DUP4 PUSH2 0x1415 SWAP3 PUSH2 0x13EB JUMP JUMPDEST DUP2 RETURNDATASIZE DUP4 GT PUSH2 0x14F7 JUMPI JUMPDEST PUSH2 0x14E8 DUP2 DUP4 PUSH2 0x1180 JUMP JUMPDEST DUP2 ADD SUB SLT PUSH2 0x1454 JUMPI DUP1 DUP1 PUSH2 0x14B7 JUMP JUMPDEST POP RETURNDATASIZE PUSH2 0x14DE JUMP JUMPDEST DUP9 MLOAD RETURNDATASIZE DUP6 DUP3 RETURNDATACOPY RETURNDATASIZE SWAP1 REVERT JUMPDEST PUSH2 0x14A8 SWAP7 POP DUP14 MLOAD SWAP7 DUP8 SWAP6 DUP7 SWAP5 DUP6 SWAP4 PUSH4 0xD0DEF521 PUSH1 0xE0 SHL DUP6 MSTORE DUP5 ADD PUSH2 0x1301 JUMP JUMPDEST SWAP1 POP DUP6 DUP2 DUP2 RETURNDATASIZE DUP4 GT PUSH2 0x1551 JUMPI JUMPDEST PUSH2 0x153E DUP2 DUP4 PUSH2 0x1180 JUMP JUMPDEST DUP2 ADD SUB SLT PUSH2 0x154D JUMPI MLOAD CODESIZE PUSH2 0x1393 JUMP JUMPDEST DUP4 DUP1 REVERT JUMPDEST POP RETURNDATASIZE PUSH2 0x1534 JUMP JUMPDEST DUP12 MLOAD RETURNDATASIZE DUP7 DUP3 RETURNDATACOPY RETURNDATASIZE SWAP1 REVERT JUMPDEST ISZERO PUSH2 0x1569 JUMPI JUMP JUMPDEST PUSH1 0x40 MLOAD PUSH3 0x461BCD PUSH1 0xE5 SHL DUP2 MSTORE PUSH1 0x20 PUSH1 0x4 DUP3 ADD MSTORE PUSH1 0x13 PUSH1 0x24 DUP3 ADD MSTORE PUSH19 0x125B9D985B1A590818D85B5C185A59DB881251 PUSH1 0x6A SHL PUSH1 0x44 DUP3 ADD MSTORE PUSH1 0x64 SWAP1 REVERT JUMPDEST ISZERO PUSH2 0x15AB JUMPI JUMP JUMPDEST PUSH1 0x40 MLOAD PUSH3 0x461BCD PUSH1 0xE5 SHL DUP2 MSTORE PUSH1 0x20 PUSH1 0x4 DUP3 ADD MSTORE PUSH1 0x1F PUSH1 0x24 DUP3 ADD MSTORE PUSH32 0x43616D706169676E206973206E6F7420696E20766F74696E6720737461676500 PUSH1 0x44 DUP3 ADD MSTORE PUSH1 0x64 SWAP1 REVERT JUMPDEST ISZERO PUSH2 0x15F7 JUMPI JUMP JUMPDEST PUSH1 0x40 MLOAD PUSH3 0x461BCD PUSH1 0xE5 SHL DUP2 MSTORE PUSH1 0x20 PUSH1 0x4 DUP3 ADD MSTORE PUSH1 0x16 PUSH1 0x24 DUP3 ADD MSTORE PUSH22 0x2B37BA34B733903832B934B7B2103737BA1037BB32B9 PUSH1 0x51 SHL PUSH1 0x44 DUP3 ADD MSTORE PUSH1 0x64 SWAP1 REVERT JUMPDEST SWAP2 SWAP1 DUP3 ADD DUP1 SWAP3 GT PUSH2 0x3E4 JUMPI JUMP JUMPDEST ISZERO PUSH2 0x1649 JUMPI JUMP JUMPDEST PUSH1 0x40 MLOAD PUSH3 0x461BCD PUSH1 0xE5 SHL DUP2 MSTORE PUSH1 0x20 PUSH1 0x4 DUP3 ADD MSTORE PUSH1 0x12 PUSH1 0x24 DUP3 ADD MSTORE PUSH18 0x145D5BDC9D5B481B9BDD081C995858DA1959 PUSH1 0x72 SHL PUSH1 0x44 DUP3 ADD MSTORE PUSH1 0x64 SWAP1 REVERT JUMPDEST PUSH1 0x0 NOT DUP2 EQ PUSH2 0x3E4 JUMPI PUSH1 0x1 ADD SWAP1 JUMP JUMPDEST SWAP1 PUSH1 0x4 DUP2 LT ISZERO PUSH2 0x516 JUMPI PUSH1 0xFF DUP1 NOT DUP4 SLOAD AND SWAP2 AND OR SWAP1 SSTORE JUMP JUMPDEST PUSH1 0x1 DUP1 PUSH1 0xA0 SHL SUB AND PUSH1 0x0 MSTORE PUSH1 0x4 PUSH1 0x20 MSTORE PUSH1 0xFF PUSH1 0x1 PUSH1 0x40 PUSH1 0x0 KECCAK256 ADD SLOAD AND PUSH1 0x4 DUP2 LT ISZERO PUSH2 0x516 JUMPI PUSH1 0x3 DUP2 SUB PUSH2 0x16E0 JUMPI POP PUSH1 0x14 SWAP1 PUSH1 0xA SWAP1 JUMP JUMPDEST PUSH1 0x2 DUP2 SUB PUSH2 0x16F1 JUMPI POP PUSH1 0xF SWAP1 PUSH1 0x7 SWAP1 JUMP JUMPDEST PUSH1 0x1 SUB PUSH2 0x1700 JUMPI PUSH1 0xA SWAP1 PUSH1 0x5 SWAP1 JUMP JUMPDEST PUSH1 0x0 SWAP1 PUSH1 0x3 SWAP1 JUMP JUMPDEST PUSH1 0x1 SWAP1 PUSH1 0x1 PUSH1 0x1 PUSH1 0xA0 SHL SUB PUSH32 0x0 DUP2 AND DUP4 DUP1 JUMPDEST PUSH2 0x1783 JUMPI JUMPDEST PUSH1 0x40 MLOAD PUSH3 0x461BCD PUSH1 0xE5 SHL DUP2 MSTORE PUSH1 0x20 PUSH1 0x4 DUP3 ADD MSTORE PUSH1 0x1C PUSH1 0x24 DUP3 ADD MSTORE PUSH32 0x534254206E6F7420666F756E6420666F72206164766572746973657200000000 PUSH1 0x44 DUP3 ADD MSTORE PUSH1 0x64 SWAP1 REVERT JUMPDEST PUSH1 0x40 DUP1 MLOAD SWAP1 PUSH4 0x70A08231 PUSH1 0xE0 SHL DUP3 MSTORE PUSH1 0x4 DUP6 DUP8 AND SWAP3 DUP4 DUP3 DUP3 ADD MSTORE PUSH1 0x20 SWAP1 PUSH1 0x24 SWAP1 DUP3 DUP2 DUP4 DUP2 DUP12 GAS STATICCALL SWAP1 DUP2 ISZERO PUSH2 0x188E JUMPI PUSH1 0x0 SWAP2 PUSH2 0x1861 JUMPI JUMPDEST POP DUP7 GT PUSH2 0x1857 JUMPI DUP4 MLOAD PUSH4 0x31A9108F PUSH1 0xE1 SHL DUP2 MSTORE SWAP3 DUP4 ADD DUP7 SWAP1 MSTORE DUP2 SWAP1 DUP4 SWAP1 DUP2 DUP10 GAS STATICCALL SWAP3 DUP4 ISZERO PUSH2 0x184D JUMPI POP SWAP1 DUP7 SWAP3 SWAP2 PUSH1 0x0 SWAP3 PUSH2 0x180D JUMPI JUMPDEST POP POP AND EQ PUSH2 0x1805 JUMPI PUSH2 0x17FF SWAP1 PUSH2 0x1683 JUMP JUMPDEST DUP5 PUSH2 0x1739 JUMP JUMPDEST SWAP4 POP POP POP POP SWAP1 JUMP JUMPDEST SWAP1 DUP1 SWAP3 SWAP4 POP DUP2 RETURNDATASIZE DUP4 GT PUSH2 0x1846 JUMPI JUMPDEST PUSH2 0x1825 DUP2 DUP4 PUSH2 0x1180 JUMP JUMPDEST DUP2 ADD SUB SLT PUSH2 0x1842 JUMPI MLOAD SWAP1 DUP6 DUP3 AND DUP3 SUB PUSH2 0x1454 JUMPI POP DUP5 SWAP1 CODESIZE DUP1 PUSH2 0x17EE JUMP JUMPDEST POP DUP1 REVERT JUMPDEST POP RETURNDATASIZE PUSH2 0x181B JUMP JUMPDEST MLOAD RETURNDATASIZE PUSH1 0x0 DUP3 RETURNDATACOPY RETURNDATASIZE SWAP1 REVERT JUMPDEST POP POP POP POP POP PUSH2 0x173E JUMP JUMPDEST SWAP1 DUP4 DUP3 DUP2 RETURNDATASIZE DUP4 GT PUSH2 0x1887 JUMPI JUMPDEST PUSH2 0x1877 DUP2 DUP4 PUSH2 0x1180 JUMP JUMPDEST DUP2 ADD SUB SLT PUSH2 0x1454 JUMPI POP MLOAD CODESIZE PUSH2 0x17B9 JUMP JUMPDEST POP RETURNDATASIZE PUSH2 0x186D JUMP JUMPDEST DUP6 MLOAD RETURNDATASIZE PUSH1 0x0 DUP3 RETURNDATACOPY RETURNDATASIZE SWAP1 REVERT JUMPDEST PUSH1 0x1 PUSH1 0x1 PUSH1 0xA0 SHL SUB AND PUSH1 0x0 DUP2 DUP2 MSTORE PUSH1 0x4 PUSH1 0x20 MSTORE PUSH1 0x40 DUP2 KECCAK256 DUP1 SLOAD SWAP2 SWAP3 SWAP1 SWAP2 PUSH2 0x2710 DUP2 LT PUSH2 0x1942 JUMPI POP PUSH1 0x1 PUSH1 0x3 SWAP3 JUMPDEST ADD SWAP3 PUSH1 0xFF DUP5 SLOAD AND SWAP1 PUSH1 0x4 DUP3 LT ISZERO PUSH2 0x192E JUMPI PUSH1 0x4 DUP5 LT ISZERO PUSH2 0x192E JUMPI POP DUP3 SUB PUSH2 0x18EC JUMPI POP POP POP JUMP JUMPDEST PUSH2 0x192B DUP3 PUSH2 0x191C PUSH1 0x40 SWAP5 PUSH31 0x8C8ED48A7170769FB9D17F8C741B5EA73AA5CCCB1DD839456564BAA487F0F7 SWAP7 PUSH2 0x1692 JUMP JUMPDEST DUP4 MLOAD SWAP3 DUP4 MSTORE PUSH1 0x20 DUP4 ADD SWAP1 PUSH2 0x1287 JUMP JUMPDEST LOG1 JUMP JUMPDEST PUSH4 0x4E487B71 PUSH1 0xE0 SHL DUP2 MSTORE PUSH1 0x21 PUSH1 0x4 MSTORE PUSH1 0x24 SWAP1 REVERT JUMPDEST PUSH2 0x1388 DUP2 LT PUSH2 0x1956 JUMPI POP PUSH1 0x1 PUSH1 0x2 SWAP3 PUSH2 0x18C6 JUMP JUMPDEST PUSH2 0x3E8 GT PUSH2 0x1967 JUMPI PUSH1 0x1 DUP1 SWAP3 PUSH2 0x18C6 JUMP JUMPDEST PUSH1 0x1 DUP4 SWAP3 PUSH2 0x18C6 JUMP JUMPDEST DUP2 ISZERO PUSH2 0x197A JUMPI DIV SWAP1 JUMP JUMPDEST PUSH4 0x4E487B71 PUSH1 0xE0 SHL PUSH1 0x0 MSTORE PUSH1 0x12 PUSH1 0x4 MSTORE PUSH1 0x24 PUSH1 0x0 REVERT JUMPDEST DUP1 ISZERO PUSH2 0x1ACD JUMPI PUSH2 0x1A5B DUP2 PUSH1 0x0 SWAP1 DUP4 PUSH1 0x80 SHR DUP1 PUSH2 0x1AC1 JUMPI JUMPDEST POP DUP1 PUSH1 0x40 SHR DUP1 PUSH2 0x1AB4 JUMPI JUMPDEST POP DUP1 PUSH1 0x20 SHR DUP1 PUSH2 0x1AA7 JUMPI JUMPDEST POP DUP1 PUSH1 0x10 SHR DUP1 PUSH2 0x1A9A JUMPI JUMPDEST POP DUP1 PUSH1 0x8 SHR DUP1 PUSH2 0x1A8D JUMPI JUMPDEST POP DUP1 PUSH1 0x4 SHR DUP1 PUSH2 0x1A80 JUMPI JUMPDEST POP DUP1 PUSH1 0x2 SHR DUP1 PUSH2 0x1A73 JUMPI JUMPDEST POP PUSH1 0x1 SWAP2 DUP3 DUP1 SWAP3 DUP2 SHR PUSH2 0x1A6C JUMPI JUMPDEST SHR SHL PUSH2 0x1A03 DUP2 DUP6 PUSH2 0x1970 JUMP JUMPDEST ADD DUP2 SHR PUSH2 0x1A10 DUP2 DUP6 PUSH2 0x1970 JUMP JUMPDEST ADD DUP2 SHR PUSH2 0x1A1D DUP2 DUP6 PUSH2 0x1970 JUMP JUMPDEST ADD DUP2 SHR PUSH2 0x1A2A DUP2 DUP6 PUSH2 0x1970 JUMP JUMPDEST ADD DUP2 SHR PUSH2 0x1A37 DUP2 DUP6 PUSH2 0x1970 JUMP JUMPDEST ADD DUP2 SHR PUSH2 0x1A44 DUP2 DUP6 PUSH2 0x1970 JUMP JUMPDEST ADD DUP2 SHR PUSH2 0x1A51 DUP2 DUP6 PUSH2 0x1970 JUMP JUMPDEST ADD SWAP1 SHR DUP1 SWAP3 PUSH2 0x1970 JUMP JUMPDEST DUP1 DUP3 LT ISZERO PUSH2 0x1A67 JUMPI POP SWAP1 JUMP JUMPDEST SWAP1 POP SWAP1 JUMP JUMPDEST ADD DUP2 PUSH2 0x19F7 JUMP JUMPDEST PUSH1 0x2 SWAP2 POP SWAP2 ADD SWAP1 CODESIZE PUSH2 0x19E9 JUMP JUMPDEST PUSH1 0x4 SWAP2 POP SWAP2 ADD SWAP1 CODESIZE PUSH2 0x19DE JUMP JUMPDEST PUSH1 0x8 SWAP2 POP SWAP2 ADD SWAP1 CODESIZE PUSH2 0x19D3 JUMP JUMPDEST PUSH1 0x10 SWAP2 POP SWAP2 ADD SWAP1 CODESIZE PUSH2 0x19C8 JUMP JUMPDEST PUSH1 0x20 SWAP2 POP SWAP2 ADD SWAP1 CODESIZE PUSH2 0x19BD JUMP JUMPDEST PUSH1 0x40 SWAP2 POP SWAP2 ADD SWAP1 CODESIZE PUSH2 0x19B2 JUMP JUMPDEST SWAP2 POP POP PUSH1 0x80 SWAP1 CODESIZE PUSH2 0x19A7 JUMP JUMPDEST POP PUSH1 0x0 SWAP1 JUMP INVALID 0xFC JUMPI PUSH22 0x63F1B9A0461E24ABEF1E1FCC0D33D3D881F20B5DF6DD 0xA5 SWAP14 0xE4 0xAA 0xE2 0xC8 0x21 LOG2 PUSH5 0x6970667358 0x22 SLT KECCAK256 PUSH18 0x8DF328BA2EC9465F98975F48A5C0212B2E4B 0xD 0xD5 PUSH24 0xD974735BF7EA6181054264736F6C63430008180033000000 "
        },
        "methodIdentifiers": {
          "advertiserProfiles(address)": "f1e8aff1",
          "airDAOSBT()": "f2dd0e71",
          "campaignIdCounter()": "2e618676",
          "campaigns(uint256)": "141961bc",
          "executeVotingResult(uint256,string)": "cb59dcb2",
          "getAdvertiserBenefits(address)": "f9f2e558",
          "getVotingResult(uint256)": "1c0d850e",
          "governanceToken()": "f96dae0a",
          "hasVoted(uint256,address)": "43859632",
          "minimumQuorum()": "8160f0b5",
          "proposeCampaign(string,uint256,uint256,uint256,uint256,string,string,string,uint256)": "6178713d",
          "updateAdvertiserProfile(address,string,uint256)": "15eab29a",
          "voteOnCampaign(uint256,bool)": "aff9adab",
          "votingPeriod()": "02a251a3"
        }
      }
    }
  }
}