{
  "contracts/DAO.sol": {
    "DecentralizedAdPlatform": {
      "abi": [
        {
          "inputs": [
            {
              "internalType": "address",
              "name": "_airDAOSBTAddress",
              "type": "address"
            },
            {
              "internalType": "address",
              "name": "_governanceTokenAddress",
              "type": "address"
            }
          ],
          "stateMutability": "nonpayable",
          "type": "constructor"
        },
        {
          "anonymous": false,
          "inputs": [
            {
              "indexed": false,
              "internalType": "address",
              "name": "advertiser",
              "type": "address"
            },
            {
              "indexed": false,
              "internalType": "enum DecentralizedAdPlatform.AdvertiserTier",
              "name": "newTier",
              "type": "uint8"
            }
          ],
          "name": "AdvertiserTierUpdated",
          "type": "event"
        },
        {
          "anonymous": false,
          "inputs": [
            {
              "indexed": false,
              "internalType": "uint256",
              "name": "campaignId",
              "type": "uint256"
            }
          ],
          "name": "CampaignApproved",
          "type": "event"
        },
        {
          "anonymous": false,
          "inputs": [
            {
              "indexed": false,
              "internalType": "uint256",
              "name": "campaignId",
              "type": "uint256"
            },
            {
              "indexed": false,
              "internalType": "address",
              "name": "advertiser",
              "type": "address"
            },
            {
              "indexed": false,
              "internalType": "string",
              "name": "campaignURI",
              "type": "string"
            },
            {
              "indexed": false,
              "internalType": "enum DecentralizedAdPlatform.AdvertiserTier",
              "name": "tier",
              "type": "uint8"
            }
          ],
          "name": "CampaignProposed",
          "type": "event"
        },
        {
          "anonymous": false,
          "inputs": [
            {
              "indexed": false,
              "internalType": "uint256",
              "name": "campaignId",
              "type": "uint256"
            }
          ],
          "name": "CampaignRejected",
          "type": "event"
        },
        {
          "anonymous": false,
          "inputs": [
            {
              "indexed": false,
              "internalType": "address",
              "name": "advertiser",
              "type": "address"
            },
            {
              "indexed": false,
              "internalType": "uint256",
              "name": "newReputation",
              "type": "uint256"
            }
          ],
          "name": "ReputationUpdated",
          "type": "event"
        },
        {
          "inputs": [
            {
              "internalType": "address",
              "name": "",
              "type": "address"
            }
          ],
          "name": "advertiserProfiles",
          "outputs": [
            {
              "internalType": "uint256",
              "name": "reputation",
              "type": "uint256"
            },
            {
              "internalType": "enum DecentralizedAdPlatform.AdvertiserTier",
              "name": "tier",
              "type": "uint8"
            },
            {
              "internalType": "uint256",
              "name": "campaignsProposed",
              "type": "uint256"
            },
            {
              "internalType": "uint256",
              "name": "campaignsApproved",
              "type": "uint256"
            },
            {
              "internalType": "uint256",
              "name": "sbtTokenId",
              "type": "uint256"
            }
          ],
          "stateMutability": "view",
          "type": "function"
        },
        {
          "inputs": [],
          "name": "airDAOSBT",
          "outputs": [
            {
              "internalType": "contract IAirDAOSBT",
              "name": "",
              "type": "address"
            }
          ],
          "stateMutability": "view",
          "type": "function"
        },
        {
          "inputs": [],
          "name": "campaignIdCounter",
          "outputs": [
            {
              "internalType": "uint256",
              "name": "",
              "type": "uint256"
            }
          ],
          "stateMutability": "view",
          "type": "function"
        },
        {
          "inputs": [
            {
              "internalType": "uint256",
              "name": "",
              "type": "uint256"
            }
          ],
          "name": "campaigns",
          "outputs": [
            {
              "internalType": "address",
              "name": "advertiser",
              "type": "address"
            },
            {
              "internalType": "string",
              "name": "campaignURI",
              "type": "string"
            },
            {
              "internalType": "uint256",
              "name": "minReputation",
              "type": "uint256"
            },
            {
              "internalType": "uint256",
              "name": "startTime",
              "type": "uint256"
            },
            {
              "internalType": "uint256",
              "name": "endTime",
              "type": "uint256"
            },
            {
              "internalType": "uint256",
              "name": "budget",
              "type": "uint256"
            },
            {
              "internalType": "uint256",
              "name": "amountSpent",
              "type": "uint256"
            },
            {
              "internalType": "enum DecentralizedAdPlatform.CampaignStatus",
              "name": "status",
              "type": "uint8"
            },
            {
              "internalType": "uint256",
              "name": "votesFor",
              "type": "uint256"
            },
            {
              "internalType": "uint256",
              "name": "votesAgainst",
              "type": "uint256"
            },
            {
              "internalType": "uint256",
              "name": "votingEndTime",
              "type": "uint256"
            },
            {
              "internalType": "string",
              "name": "privateLabel",
              "type": "string"
            },
            {
              "internalType": "string",
              "name": "publicLabel",
              "type": "string"
            },
            {
              "internalType": "enum DecentralizedAdPlatform.AdvertiserTier",
              "name": "tier",
              "type": "uint8"
            }
          ],
          "stateMutability": "view",
          "type": "function"
        },
        {
          "inputs": [
            {
              "internalType": "uint256",
              "name": "_campaignId",
              "type": "uint256"
            },
            {
              "internalType": "string",
              "name": "newMetadataURI",
              "type": "string"
            }
          ],
          "name": "executeVotingResult",
          "outputs": [],
          "stateMutability": "nonpayable",
          "type": "function"
        },
        {
          "inputs": [
            {
              "internalType": "address",
              "name": "advertiser",
              "type": "address"
            }
          ],
          "name": "getAdvertiserBenefits",
          "outputs": [
            {
              "internalType": "uint256",
              "name": "discountPercentage",
              "type": "uint256"
            },
            {
              "internalType": "uint256",
              "name": "maxCampaigns",
              "type": "uint256"
            }
          ],
          "stateMutability": "view",
          "type": "function"
        },
        {
          "inputs": [
            {
              "internalType": "uint256",
              "name": "_campaignId",
              "type": "uint256"
            }
          ],
          "name": "getVotingResult",
          "outputs": [
            {
              "internalType": "uint256",
              "name": "votesFor",
              "type": "uint256"
            },
            {
              "internalType": "uint256",
              "name": "votesAgainst",
              "type": "uint256"
            }
          ],
          "stateMutability": "view",
          "type": "function"
        },
        {
          "inputs": [],
          "name": "governanceToken",
          "outputs": [
            {
              "internalType": "contract IAirDAOGovernanceToken",
              "name": "",
              "type": "address"
            }
          ],
          "stateMutability": "view",
          "type": "function"
        },
        {
          "inputs": [
            {
              "internalType": "uint256",
              "name": "",
              "type": "uint256"
            },
            {
              "internalType": "address",
              "name": "",
              "type": "address"
            }
          ],
          "name": "hasVoted",
          "outputs": [
            {
              "internalType": "bool",
              "name": "",
              "type": "bool"
            }
          ],
          "stateMutability": "view",
          "type": "function"
        },
        {
          "inputs": [],
          "name": "minimumQuorum",
          "outputs": [
            {
              "internalType": "uint256",
              "name": "",
              "type": "uint256"
            }
          ],
          "stateMutability": "view",
          "type": "function"
        },
        {
          "inputs": [
            {
              "internalType": "string",
              "name": "_campaignURI",
              "type": "string"
            },
            {
              "internalType": "uint256",
              "name": "_minReputation",
              "type": "uint256"
            },
            {
              "internalType": "uint256",
              "name": "_startTime",
              "type": "uint256"
            },
            {
              "internalType": "uint256",
              "name": "_endTime",
              "type": "uint256"
            },
            {
              "internalType": "uint256",
              "name": "_budget",
              "type": "uint256"
            },
            {
              "internalType": "string",
              "name": "_privateLabel",
              "type": "string"
            },
            {
              "internalType": "string",
              "name": "_publicLabel",
              "type": "string"
            },
            {
              "internalType": "string",
              "name": "_metadataURI",
              "type": "string"
            },
            {
              "internalType": "uint256",
              "name": "_reputation",
              "type": "uint256"
            }
          ],
          "name": "proposeCampaign",
          "outputs": [],
          "stateMutability": "nonpayable",
          "type": "function"
        },
        {
          "inputs": [
            {
              "internalType": "address",
              "name": "advertiser",
              "type": "address"
            },
            {
              "internalType": "string",
              "name": "newMetadataURI",
              "type": "string"
            },
            {
              "internalType": "uint256",
              "name": "newReputation",
              "type": "uint256"
            }
          ],
          "name": "updateAdvertiserProfile",
          "outputs": [],
          "stateMutability": "nonpayable",
          "type": "function"
        },
        {
          "inputs": [
            {
              "internalType": "uint256",
              "name": "_campaignId",
              "type": "uint256"
            },
            {
              "internalType": "bool",
              "name": "_approve",
              "type": "bool"
            }
          ],
          "name": "voteOnCampaign",
          "outputs": [],
          "stateMutability": "nonpayable",
          "type": "function"
        },
        {
          "inputs": [],
          "name": "votingPeriod",
          "outputs": [
            {
              "internalType": "uint256",
              "name": "",
              "type": "uint256"
            }
          ],
          "stateMutability": "view",
          "type": "function"
        }
      ],
      "evm": {
        "bytecode": {
          "linkReferences": {},
          "object": "60c0346200015d57601f62001d0538819003918201601f19168301916001600160401b03831184841017620001625780849260409485528339810103126200015d576200005a6020620000528362000178565b920162000178565b6001600055620151806005556103e86006556001600160a01b0391821691908215620001185716908115620000d45760805260a052604051611b7790816200018e8239608051818181610148015281816103160152818161044c015281816113990152611763015260a05181818161010301526105cd0152f35b606460405162461bcd60e51b815260206004820152602060248201527f496e76616c696420676f7665726e616e636520746f6b656e20616464726573736044820152fd5b60405162461bcd60e51b815260206004820152601960248201527f496e76616c69642041697244414f5342542061646472657373000000000000006044820152606490fd5b600080fd5b634e487b7160e01b600052604160045260246000fd5b51906001600160a01b03821682036200015d5756fe608080604052600436101561001357600080fd5b60003560e01c90816302a251a31461117957508063141961bc1461105157806315eab29a1461100b5780631c0d850e14610f975780632e61867614610f795780634385963214610f275780636178713d1461076d5780638160f0b51461074f578063aff9adab1461052c578063cb59dcb2146101e8578063f1e8aff114610177578063f2dd0e7114610132578063f96dae0a146100ed5763f9f2e558146100b957600080fd5b346100e85760203660031901126100e85760406100dc6100d76112e2565b6116f8565b82519182526020820152f35b600080fd5b346100e85760003660031901126100e8576040517f00000000000000000000000000000000000000000000000000000000000000006001600160a01b03168152602090f35b346100e85760003660031901126100e8576040517f00000000000000000000000000000000000000000000000000000000000000006001600160a01b03168152602090f35b346100e85760203660031901126100e8576001600160a01b036101986112e2565b16600052600460205260a0604060002080549060ff6001820154169060028101546101d7600460038401549301549360405195865260208601906112d5565b604084015260608301526080820152f35b346100e85760403660031901126100e85760043560243567ffffffffffffffff81116100e85761021c9036906004016112f8565b9061022a60015482106115b0565b80600052602060028152604060002090600782019283549360ff8516600681101561051657600161025b91146115f2565b61026a600a850154421161163e565b600884015490600985015461028c6102828285611683565b6006541115611690565b60018060a01b039687875416918260005260048752604060002094116000146103fa575050805460ff1916600217905560030180546102ca906116d1565b90558383541680600052600483526040600020958654600a81018091116103e457875560405163d0def52160e01b81529084908290819061030f90866004840161134f565b038160008a7f0000000000000000000000000000000000000000000000000000000000000000165af180156103d8576103a9575b509454604080516001600160a01b03909716875260208701919091526103a7957f3aa476b7499359259e68e236e4ba85f83ff093e3b6341e6a3f6f295d9cd68877939291600080516020611b2283398151915291a1604051908152a15b54166118e7565b005b9280929193813d83116103d1575b6103c181836111ce565b810103126100e857909186610343565b503d6103b7565b6040513d6000823e3d90fd5b634e487b7160e01b600052601160045260246000fd5b60ff1916600317909155815491969091846005821115610509575060041981019081116103e4576104459185915b89556040518093819263d0def52160e01b8352866004840161134f565b038160008a7f0000000000000000000000000000000000000000000000000000000000000000165af180156103d8576104da575b509454604080516001600160a01b03909716875260208701919091526103a7957fc3f451c8eba813b83ed73bf2904347fff970b9ca06227a6507f7e9cd971ff113939291600080516020611b2283398151915291a1604051908152a16103a0565b9280929193813d8311610502575b6104f281836111ce565b810103126100e857909186610479565b503d6104e8565b9050610445916000610428565b634e487b7160e01b600052602160045260246000fd5b346100e85760403660031901126100e8576024600435813580151581036100e85761055a60015483106115b0565b816000526020926002845260406000209060ff600783015416600681101561073a57600161058891146115f2565b600a82015442116106ff578360005260038552604060002033600052855260ff604060002054166106cc576040516370a0823160e01b815233600482015290858282817f00000000000000000000000000000000000000000000000000000000000000006001600160a01b03165afa9182156103d85760009261069d575b5081156106675750610617906119de565b911561065157600861062c9101918254611683565b90555b600090815260038252604080822033835290925220805460ff19166001179055005b60096106609101918254611683565b905561062f565b8560106064926040519262461bcd60e51b845260048401528201526f4e6f20766f74696e672072696768747360801b6044820152fd5b9091508581813d83116106c5575b6106b581836111ce565b810103126100e857519086610606565b503d6106ab565b84600d6064926040519262461bcd60e51b845260048401528201526c105b1c9958591e481d9bdd1959609a1b6044820152fd5b8460156064926040519262461bcd60e51b84526004840152820152742b37ba34b733903832b934b7b21034b99037bb32b960591b6044820152fd5b50634e487b7160e01b60009081526021600452fd5b346100e85760003660031901126100e8576020600654604051908152f35b346100e8576101203660031901126100e85760043567ffffffffffffffff81116100e85761079f9036906004016112f8565b60a43567ffffffffffffffff81116100e8576107bf9036906004016112f8565b9060c43567ffffffffffffffff81116100e8576107e09036906004016112f8565b9167ffffffffffffffff60e435116100e8576108013660e4356004016112f8565b92825115610ee257426044351115610e9e576044356064351115610e4f5760843515610e0b57336000526004602052610844604060002094610104359033611374565b602435845410610dc6576001549161085b836116d1565b60015561086a60055442611683565b9160ff6001870154169160405193846101c081011067ffffffffffffffff6101c087011117610c10576101c0850160405233855286602086015260243560408601526044356060860152606435608086015260843560a0860152600060c0860152600160e0860152600061010086015260006101208601526101408501526101608401526101808301526004811015610516576101a082015281600052600260205260406000209060018060a01b038151166bffffffffffffffffffffffff60a01b835416178255602081015180519067ffffffffffffffff8211610c105781906109586001860154611194565b601f8111610d73575b50602090601f8311600114610d0157600092610cf6575b50508160011b916000199060031b1c19161760018301555b60408101516002830155606081015160038301556080810151600483015560a0810151600583015560c081015160068301556007820160e082015160068110156105165760ff8019835416911617905561010081015160088301556101208101516009830155610140810151600a83015561016081015180519067ffffffffffffffff8211610c10578190610a28600b860154611194565b601f8111610ca3575b50602090601f8311600114610c3157600092610c26575b50508160011b916000199060031b1c191617600b8301555b61018081015180519067ffffffffffffffff8211610c1057610a85600c850154611194565b601f8111610bc9575b50602090601f8311600114610b55576101a093929160009183610b4a575b50508160011b916000199060031b1c191617600c8401555b01516004811015610516577fe70c2c8fe6b59e8d5e3fd9776fa5c77a60227915ce36b96f444065a3def0fad894610b02600192600d60ff95016116e0565b60028101610b1081546116d1565b9055015416610b45610b3a6040519485948552336020860152608060408601526080850190611295565b9160608401906112d5565b0390a1005b015190508880610aac565b90600c850160005260206000209160005b601f1985168110610bb157509183916001936101a09695601f19811610610b98575b505050811b01600c840155610ac4565b015160001960f88460031b161c19169055888080610b88565b91926020600181928685015181550194019201610b66565b600c85016000526020600020601f840160051c810160208510610c09575b601f830160051c82018110610bfd575050610a8e565b60008155600101610be7565b5080610be7565b634e487b7160e01b600052604160045260246000fd5b015190508780610a48565b9250600b85016000526020600020906000935b601f1984168510610c88576001945083601f19811610610c6f575b505050811b01600b830155610a60565b015160001960f88460031b161c19169055878080610c5f565b81810151835560209485019460019093019290910190610c44565b909150600b85016000526020600020601f840160051c810160208510610cef575b90849392915b601f830160051c82018110610ce0575050610a31565b60008155859450600101610cca565b5080610cc4565b015190508780610978565b9250600185016000526020600020906000935b601f1984168510610d58576001945083601f19811610610d3f575b505050811b016001830155610990565b015160001960f88460031b161c19169055878080610d2f565b81810151835560209485019460019093019290910190610d14565b909150600185016000526020600020601f840160051c810160208510610dbf575b90849392915b601f830160051c82018110610db0575050610961565b60008155859450600101610d9a565b5080610d94565b60405162461bcd60e51b815260206004820152601760248201527f496e73756666696369656e742072657075746174696f6e0000000000000000006044820152606490fd5b606460405162461bcd60e51b815260206004820152602060248201527f427564676574206d7573742062652067726561746572207468616e207a65726f6044820152fd5b60405162461bcd60e51b815260206004820152602160248201527f456e642074696d65206d7573742062652061667465722073746172742074696d6044820152606560f81b6064820152608490fd5b606460405162461bcd60e51b815260206004820152602060248201527f53746172742074696d65206d75737420626520696e20746865206675747572656044820152fd5b60405162461bcd60e51b815260206004820152601c60248201527f43616d706169676e205552492063616e6e6f7420626520656d707479000000006044820152606490fd5b346100e85760403660031901126100e8576024356001600160a01b038116908190036100e8576004356000526003602052604060002090600052602052602060ff604060002054166040519015158152f35b346100e85760003660031901126100e8576020600154604051908152f35b346100e85760203660031901126100e857600435610fb860015482106115b0565b6000526002602052604060002060ff60078201541690600682101561051657610fe56001604093146115f2565b610ff4600a820154421161163e565b600960088201549101546100dc6102828284611683565b346100e85760603660031901126100e8576110246112e2565b6024359067ffffffffffffffff82116100e8576110486103a79236906004016112f8565b60443591611374565b346100e85760203660031901126100e857600435600090815260026020526040902080546001600160a01b03169061108b600182016111f0565b91600282015490600383015490600484015493600581015492600682015492600783015460ff1691600884015494600985015496600a86015499600b87016110d2906111f0565b936110df600c89016111f0565b97600d015460ff169a6040519d8e976101c09089528060208a0152880161110591611295565b966040015260608d015260808c015260a08b015260c08a01526006831015610516578897611175966111699661115a9560e08c01526101008b01526101208a0152610140890152878203610160890152611295565b90858203610180870152611295565b916101a08401906112d5565b0390f35b346100e85760003660031901126100e8576020906005548152f35b90600182811c921680156111c4575b60208310146111ae57565b634e487b7160e01b600052602260045260246000fd5b91607f16916111a3565b90601f8019910116810190811067ffffffffffffffff821117610c1057604052565b9060405191826000825461120381611194565b908184526020946001916001811690816000146112735750600114611234575b505050611232925003836111ce565b565b600090815285812095935091905b81831061125b5750506112329350820101388080611223565b85548884018501529485019487945091830191611242565b9250505061123294925060ff191682840152151560051b820101388080611223565b919082519283825260005b8481106112c1575050826000602080949584010152601f8019910116010190565b6020818301810151848301820152016112a0565b9060048210156105165752565b600435906001600160a01b03821682036100e857565b81601f820112156100e85780359067ffffffffffffffff8211610c10576040519261132d601f8401601f1916602001856111ce565b828452602083830101116100e857816000926020809301838601378301015290565b6001600160a01b03909116815260406020820181905261137192910190611295565b90565b9291909260018060a01b038082166000818152600490602092828452604098898320957f000000000000000000000000000000000000000000000000000000000000000016918a51906370a0823160e01b8252858201528581602481865afa9081156115a6578491611575575b506114b857611408839286928c5195868094819363d0def52160e01b83528d8b840161134f565b03925af19384156114ac578194611468575b50505082600080516020611b2283398151915296979286926114639501555b55611443836118e7565b516001600160a01b03909216825260208201929092529081906040820190565b0390a1565b909180939450813d83116114a5575b61148181836111ce565b810103126114a2575051908281600080516020611b2283398151915261141a565b80fd5b503d611477565b508851903d90823e3d90fd5b8493929491878685890195865415600014611556576114f6966114da84611756565b90558d5163d0def52160e01b815296879586948593840161134f565b03925af1801561154c57611523575b505050600080516020611b2283398151915293948361146392611439565b813d8311611545575b61153681836111ce565b810103126114a2578080611505565b503d61152c565b88513d85823e3d90fd5b6114f696508d519687958694859363d0def52160e01b8552840161134f565b90508581813d831161159f575b61158c81836111ce565b8101031261159b5751386113e1565b8380fd5b503d611582565b8b513d86823e3d90fd5b156115b757565b60405162461bcd60e51b8152602060048201526013602482015272125b9d985b1a590818d85b5c185a59db881251606a1b6044820152606490fd5b156115f957565b60405162461bcd60e51b815260206004820152601f60248201527f43616d706169676e206973206e6f7420696e20766f74696e67207374616765006044820152606490fd5b1561164557565b60405162461bcd60e51b81526020600482015260166024820152752b37ba34b733903832b934b7b2103737ba1037bb32b960511b6044820152606490fd5b919082018092116103e457565b1561169757565b60405162461bcd60e51b8152602060048201526012602482015271145d5bdc9d5b481b9bdd081c995858da195960721b6044820152606490fd5b60001981146103e45760010190565b9060048110156105165760ff80198354169116179055565b60018060a01b0316600052600460205260ff600160406000200154166004811015610516576003810361172e5750601490600a90565b6002810361173f5750600f90600790565b60010361174e57600a90600590565b600090600390565b6001906001600160a01b037f0000000000000000000000000000000000000000000000000000000000000000811683805b6117d1575b60405162461bcd60e51b815260206004820152601c60248201527f534254206e6f7420666f756e6420666f722061647665727469736572000000006044820152606490fd5b60408051906370a0823160e01b82526004858716928382820152602090602490828183818b5afa9081156118dc576000916118af575b5086116118a55783516331a9108f60e11b81529283018690528190839081895afa92831561189b57509086929160009261185b575b505016146118535761184d906116d1565b84611787565b935050505090565b9080929350813d8311611894575b61187381836111ce565b8101031261189057519085821682036114a257508490388061183c565b5080fd5b503d611869565b513d6000823e3d90fd5b505050505061178c565b908382813d83116118d5575b6118c581836111ce565b810103126114a257505138611807565b503d6118bb565b85513d6000823e3d90fd5b6001600160a01b031660008181526004602052604081208054919290916127108110611990575060016003925b019260ff84541690600482101561197c57600484101561197c5750820361193a57505050565b6119798261196a6040947e8c8ed48a7170769fb9d17f8c741b5ea73aa5cccb1dd839456564baa487f0f7966116e0565b835192835260208301906112d5565ba1565b634e487b7160e01b81526021600452602490fd5b61138881106119a457506001600292611914565b6103e8116119b55760018092611914565b60018392611914565b81156119c8570490565b634e487b7160e01b600052601260045260246000fd5b8015611b1b57611aa9816000908360801c80611b0f575b508060401c80611b02575b508060201c80611af5575b508060101c80611ae8575b508060081c80611adb575b508060041c80611ace575b508060021c80611ac1575b50600191828092811c611aba575b1c1b611a5181856119be565b01811c611a5e81856119be565b01811c611a6b81856119be565b01811c611a7881856119be565b01811c611a8581856119be565b01811c611a9281856119be565b01811c611a9f81856119be565b01901c80926119be565b80821015611ab5575090565b905090565b0181611a45565b6002915091019038611a37565b6004915091019038611a2c565b6008915091019038611a21565b6010915091019038611a16565b6020915091019038611a0b565b6040915091019038611a00565b915050608090386119f5565b5060009056fefc577563f1b9a0461e24abef1e1fcc0d33d3d881f20b5df6dda59de4aae2c821a264697066735822122064f54538c1aec26c75856153aadc5285225030db01c0acb0d2c277e883a07ec664736f6c63430008180033",
          "opcodes": "PUSH1 0xC0 CALLVALUE PUSH3 0x15D JUMPI PUSH1 0x1F PUSH3 0x1D05 CODESIZE DUP2 SWAP1 SUB SWAP2 DUP3 ADD PUSH1 0x1F NOT AND DUP4 ADD SWAP2 PUSH1 0x1 PUSH1 0x1 PUSH1 0x40 SHL SUB DUP4 GT DUP5 DUP5 LT OR PUSH3 0x162 JUMPI DUP1 DUP5 SWAP3 PUSH1 0x40 SWAP5 DUP6 MSTORE DUP4 CODECOPY DUP2 ADD SUB SLT PUSH3 0x15D JUMPI PUSH3 0x5A PUSH1 0x20 PUSH3 0x52 DUP4 PUSH3 0x178 JUMP JUMPDEST SWAP3 ADD PUSH3 0x178 JUMP JUMPDEST PUSH1 0x1 PUSH1 0x0 SSTORE PUSH3 0x15180 PUSH1 0x5 SSTORE PUSH2 0x3E8 PUSH1 0x6 SSTORE PUSH1 0x1 PUSH1 0x1 PUSH1 0xA0 SHL SUB SWAP2 DUP3 AND SWAP2 SWAP1 DUP3 ISZERO PUSH3 0x118 JUMPI AND SWAP1 DUP2 ISZERO PUSH3 0xD4 JUMPI PUSH1 0x80 MSTORE PUSH1 0xA0 MSTORE PUSH1 0x40 MLOAD PUSH2 0x1B77 SWAP1 DUP2 PUSH3 0x18E DUP3 CODECOPY PUSH1 0x80 MLOAD DUP2 DUP2 DUP2 PUSH2 0x148 ADD MSTORE DUP2 DUP2 PUSH2 0x316 ADD MSTORE DUP2 DUP2 PUSH2 0x44C ADD MSTORE DUP2 DUP2 PUSH2 0x1399 ADD MSTORE PUSH2 0x1763 ADD MSTORE PUSH1 0xA0 MLOAD DUP2 DUP2 DUP2 PUSH2 0x103 ADD MSTORE PUSH2 0x5CD ADD MSTORE RETURN JUMPDEST PUSH1 0x64 PUSH1 0x40 MLOAD PUSH3 0x461BCD PUSH1 0xE5 SHL DUP2 MSTORE PUSH1 0x20 PUSH1 0x4 DUP3 ADD MSTORE PUSH1 0x20 PUSH1 0x24 DUP3 ADD MSTORE PUSH32 0x496E76616C696420676F7665726E616E636520746F6B656E2061646472657373 PUSH1 0x44 DUP3 ADD MSTORE REVERT JUMPDEST PUSH1 0x40 MLOAD PUSH3 0x461BCD PUSH1 0xE5 SHL DUP2 MSTORE PUSH1 0x20 PUSH1 0x4 DUP3 ADD MSTORE PUSH1 0x19 PUSH1 0x24 DUP3 ADD MSTORE PUSH32 0x496E76616C69642041697244414F534254206164647265737300000000000000 PUSH1 0x44 DUP3 ADD MSTORE PUSH1 0x64 SWAP1 REVERT JUMPDEST PUSH1 0x0 DUP1 REVERT JUMPDEST PUSH4 0x4E487B71 PUSH1 0xE0 SHL PUSH1 0x0 MSTORE PUSH1 0x41 PUSH1 0x4 MSTORE PUSH1 0x24 PUSH1 0x0 REVERT JUMPDEST MLOAD SWAP1 PUSH1 0x1 PUSH1 0x1 PUSH1 0xA0 SHL SUB DUP3 AND DUP3 SUB PUSH3 0x15D JUMPI JUMP INVALID PUSH1 0x80 DUP1 PUSH1 0x40 MSTORE PUSH1 0x4 CALLDATASIZE LT ISZERO PUSH2 0x13 JUMPI PUSH1 0x0 DUP1 REVERT JUMPDEST PUSH1 0x0 CALLDATALOAD PUSH1 0xE0 SHR SWAP1 DUP2 PUSH4 0x2A251A3 EQ PUSH2 0x1179 JUMPI POP DUP1 PUSH4 0x141961BC EQ PUSH2 0x1051 JUMPI DUP1 PUSH4 0x15EAB29A EQ PUSH2 0x100B JUMPI DUP1 PUSH4 0x1C0D850E EQ PUSH2 0xF97 JUMPI DUP1 PUSH4 0x2E618676 EQ PUSH2 0xF79 JUMPI DUP1 PUSH4 0x43859632 EQ PUSH2 0xF27 JUMPI DUP1 PUSH4 0x6178713D EQ PUSH2 0x76D JUMPI DUP1 PUSH4 0x8160F0B5 EQ PUSH2 0x74F JUMPI DUP1 PUSH4 0xAFF9ADAB EQ PUSH2 0x52C JUMPI DUP1 PUSH4 0xCB59DCB2 EQ PUSH2 0x1E8 JUMPI DUP1 PUSH4 0xF1E8AFF1 EQ PUSH2 0x177 JUMPI DUP1 PUSH4 0xF2DD0E71 EQ PUSH2 0x132 JUMPI DUP1 PUSH4 0xF96DAE0A EQ PUSH2 0xED JUMPI PUSH4 0xF9F2E558 EQ PUSH2 0xB9 JUMPI PUSH1 0x0 DUP1 REVERT JUMPDEST CALLVALUE PUSH2 0xE8 JUMPI PUSH1 0x20 CALLDATASIZE PUSH1 0x3 NOT ADD SLT PUSH2 0xE8 JUMPI PUSH1 0x40 PUSH2 0xDC PUSH2 0xD7 PUSH2 0x12E2 JUMP JUMPDEST PUSH2 0x16F8 JUMP JUMPDEST DUP3 MLOAD SWAP2 DUP3 MSTORE PUSH1 0x20 DUP3 ADD MSTORE RETURN JUMPDEST PUSH1 0x0 DUP1 REVERT JUMPDEST CALLVALUE PUSH2 0xE8 JUMPI PUSH1 0x0 CALLDATASIZE PUSH1 0x3 NOT ADD SLT PUSH2 0xE8 JUMPI PUSH1 0x40 MLOAD PUSH32 0x0 PUSH1 0x1 PUSH1 0x1 PUSH1 0xA0 SHL SUB AND DUP2 MSTORE PUSH1 0x20 SWAP1 RETURN JUMPDEST CALLVALUE PUSH2 0xE8 JUMPI PUSH1 0x0 CALLDATASIZE PUSH1 0x3 NOT ADD SLT PUSH2 0xE8 JUMPI PUSH1 0x40 MLOAD PUSH32 0x0 PUSH1 0x1 PUSH1 0x1 PUSH1 0xA0 SHL SUB AND DUP2 MSTORE PUSH1 0x20 SWAP1 RETURN JUMPDEST CALLVALUE PUSH2 0xE8 JUMPI PUSH1 0x20 CALLDATASIZE PUSH1 0x3 NOT ADD SLT PUSH2 0xE8 JUMPI PUSH1 0x1 PUSH1 0x1 PUSH1 0xA0 SHL SUB PUSH2 0x198 PUSH2 0x12E2 JUMP JUMPDEST AND PUSH1 0x0 MSTORE PUSH1 0x4 PUSH1 0x20 MSTORE PUSH1 0xA0 PUSH1 0x40 PUSH1 0x0 KECCAK256 DUP1 SLOAD SWAP1 PUSH1 0xFF PUSH1 0x1 DUP3 ADD SLOAD AND SWAP1 PUSH1 0x2 DUP2 ADD SLOAD PUSH2 0x1D7 PUSH1 0x4 PUSH1 0x3 DUP5 ADD SLOAD SWAP4 ADD SLOAD SWAP4 PUSH1 0x40 MLOAD SWAP6 DUP7 MSTORE PUSH1 0x20 DUP7 ADD SWAP1 PUSH2 0x12D5 JUMP JUMPDEST PUSH1 0x40 DUP5 ADD MSTORE PUSH1 0x60 DUP4 ADD MSTORE PUSH1 0x80 DUP3 ADD MSTORE RETURN JUMPDEST CALLVALUE PUSH2 0xE8 JUMPI PUSH1 0x40 CALLDATASIZE PUSH1 0x3 NOT ADD SLT PUSH2 0xE8 JUMPI PUSH1 0x4 CALLDATALOAD PUSH1 0x24 CALLDATALOAD PUSH8 0xFFFFFFFFFFFFFFFF DUP2 GT PUSH2 0xE8 JUMPI PUSH2 0x21C SWAP1 CALLDATASIZE SWAP1 PUSH1 0x4 ADD PUSH2 0x12F8 JUMP JUMPDEST SWAP1 PUSH2 0x22A PUSH1 0x1 SLOAD DUP3 LT PUSH2 0x15B0 JUMP JUMPDEST DUP1 PUSH1 0x0 MSTORE PUSH1 0x20 PUSH1 0x2 DUP2 MSTORE PUSH1 0x40 PUSH1 0x0 KECCAK256 SWAP1 PUSH1 0x7 DUP3 ADD SWAP3 DUP4 SLOAD SWAP4 PUSH1 0xFF DUP6 AND PUSH1 0x6 DUP2 LT ISZERO PUSH2 0x516 JUMPI PUSH1 0x1 PUSH2 0x25B SWAP2 EQ PUSH2 0x15F2 JUMP JUMPDEST PUSH2 0x26A PUSH1 0xA DUP6 ADD SLOAD TIMESTAMP GT PUSH2 0x163E JUMP JUMPDEST PUSH1 0x8 DUP5 ADD SLOAD SWAP1 PUSH1 0x9 DUP6 ADD SLOAD PUSH2 0x28C PUSH2 0x282 DUP3 DUP6 PUSH2 0x1683 JUMP JUMPDEST PUSH1 0x6 SLOAD GT ISZERO PUSH2 0x1690 JUMP JUMPDEST PUSH1 0x1 DUP1 PUSH1 0xA0 SHL SUB SWAP7 DUP8 DUP8 SLOAD AND SWAP2 DUP3 PUSH1 0x0 MSTORE PUSH1 0x4 DUP8 MSTORE PUSH1 0x40 PUSH1 0x0 KECCAK256 SWAP5 GT PUSH1 0x0 EQ PUSH2 0x3FA JUMPI POP POP DUP1 SLOAD PUSH1 0xFF NOT AND PUSH1 0x2 OR SWAP1 SSTORE PUSH1 0x3 ADD DUP1 SLOAD PUSH2 0x2CA SWAP1 PUSH2 0x16D1 JUMP JUMPDEST SWAP1 SSTORE DUP4 DUP4 SLOAD AND DUP1 PUSH1 0x0 MSTORE PUSH1 0x4 DUP4 MSTORE PUSH1 0x40 PUSH1 0x0 KECCAK256 SWAP6 DUP7 SLOAD PUSH1 0xA DUP2 ADD DUP1 SWAP2 GT PUSH2 0x3E4 JUMPI DUP8 SSTORE PUSH1 0x40 MLOAD PUSH4 0xD0DEF521 PUSH1 0xE0 SHL DUP2 MSTORE SWAP1 DUP5 SWAP1 DUP3 SWAP1 DUP2 SWAP1 PUSH2 0x30F SWAP1 DUP7 PUSH1 0x4 DUP5 ADD PUSH2 0x134F JUMP JUMPDEST SUB DUP2 PUSH1 0x0 DUP11 PUSH32 0x0 AND GAS CALL DUP1 ISZERO PUSH2 0x3D8 JUMPI PUSH2 0x3A9 JUMPI JUMPDEST POP SWAP5 SLOAD PUSH1 0x40 DUP1 MLOAD PUSH1 0x1 PUSH1 0x1 PUSH1 0xA0 SHL SUB SWAP1 SWAP8 AND DUP8 MSTORE PUSH1 0x20 DUP8 ADD SWAP2 SWAP1 SWAP2 MSTORE PUSH2 0x3A7 SWAP6 PUSH32 0x3AA476B7499359259E68E236E4BA85F83FF093E3B6341E6A3F6F295D9CD68877 SWAP4 SWAP3 SWAP2 PUSH1 0x0 DUP1 MLOAD PUSH1 0x20 PUSH2 0x1B22 DUP4 CODECOPY DUP2 MLOAD SWAP2 MSTORE SWAP2 LOG1 PUSH1 0x40 MLOAD SWAP1 DUP2 MSTORE LOG1 JUMPDEST SLOAD AND PUSH2 0x18E7 JUMP JUMPDEST STOP JUMPDEST SWAP3 DUP1 SWAP3 SWAP2 SWAP4 DUP2 RETURNDATASIZE DUP4 GT PUSH2 0x3D1 JUMPI JUMPDEST PUSH2 0x3C1 DUP2 DUP4 PUSH2 0x11CE JUMP JUMPDEST DUP2 ADD SUB SLT PUSH2 0xE8 JUMPI SWAP1 SWAP2 DUP7 PUSH2 0x343 JUMP JUMPDEST POP RETURNDATASIZE PUSH2 0x3B7 JUMP JUMPDEST PUSH1 0x40 MLOAD RETURNDATASIZE PUSH1 0x0 DUP3 RETURNDATACOPY RETURNDATASIZE SWAP1 REVERT JUMPDEST PUSH4 0x4E487B71 PUSH1 0xE0 SHL PUSH1 0x0 MSTORE PUSH1 0x11 PUSH1 0x4 MSTORE PUSH1 0x24 PUSH1 0x0 REVERT JUMPDEST PUSH1 0xFF NOT AND PUSH1 0x3 OR SWAP1 SWAP2 SSTORE DUP2 SLOAD SWAP2 SWAP7 SWAP1 SWAP2 DUP5 PUSH1 0x5 DUP3 GT ISZERO PUSH2 0x509 JUMPI POP PUSH1 0x4 NOT DUP2 ADD SWAP1 DUP2 GT PUSH2 0x3E4 JUMPI PUSH2 0x445 SWAP2 DUP6 SWAP2 JUMPDEST DUP10 SSTORE PUSH1 0x40 MLOAD DUP1 SWAP4 DUP2 SWAP3 PUSH4 0xD0DEF521 PUSH1 0xE0 SHL DUP4 MSTORE DUP7 PUSH1 0x4 DUP5 ADD PUSH2 0x134F JUMP JUMPDEST SUB DUP2 PUSH1 0x0 DUP11 PUSH32 0x0 AND GAS CALL DUP1 ISZERO PUSH2 0x3D8 JUMPI PUSH2 0x4DA JUMPI JUMPDEST POP SWAP5 SLOAD PUSH1 0x40 DUP1 MLOAD PUSH1 0x1 PUSH1 0x1 PUSH1 0xA0 SHL SUB SWAP1 SWAP8 AND DUP8 MSTORE PUSH1 0x20 DUP8 ADD SWAP2 SWAP1 SWAP2 MSTORE PUSH2 0x3A7 SWAP6 PUSH32 0xC3F451C8EBA813B83ED73BF2904347FFF970B9CA06227A6507F7E9CD971FF113 SWAP4 SWAP3 SWAP2 PUSH1 0x0 DUP1 MLOAD PUSH1 0x20 PUSH2 0x1B22 DUP4 CODECOPY DUP2 MLOAD SWAP2 MSTORE SWAP2 LOG1 PUSH1 0x40 MLOAD SWAP1 DUP2 MSTORE LOG1 PUSH2 0x3A0 JUMP JUMPDEST SWAP3 DUP1 SWAP3 SWAP2 SWAP4 DUP2 RETURNDATASIZE DUP4 GT PUSH2 0x502 JUMPI JUMPDEST PUSH2 0x4F2 DUP2 DUP4 PUSH2 0x11CE JUMP JUMPDEST DUP2 ADD SUB SLT PUSH2 0xE8 JUMPI SWAP1 SWAP2 DUP7 PUSH2 0x479 JUMP JUMPDEST POP RETURNDATASIZE PUSH2 0x4E8 JUMP JUMPDEST SWAP1 POP PUSH2 0x445 SWAP2 PUSH1 0x0 PUSH2 0x428 JUMP JUMPDEST PUSH4 0x4E487B71 PUSH1 0xE0 SHL PUSH1 0x0 MSTORE PUSH1 0x21 PUSH1 0x4 MSTORE PUSH1 0x24 PUSH1 0x0 REVERT JUMPDEST CALLVALUE PUSH2 0xE8 JUMPI PUSH1 0x40 CALLDATASIZE PUSH1 0x3 NOT ADD SLT PUSH2 0xE8 JUMPI PUSH1 0x24 PUSH1 0x4 CALLDATALOAD DUP2 CALLDATALOAD DUP1 ISZERO ISZERO DUP2 SUB PUSH2 0xE8 JUMPI PUSH2 0x55A PUSH1 0x1 SLOAD DUP4 LT PUSH2 0x15B0 JUMP JUMPDEST DUP2 PUSH1 0x0 MSTORE PUSH1 0x20 SWAP3 PUSH1 0x2 DUP5 MSTORE PUSH1 0x40 PUSH1 0x0 KECCAK256 SWAP1 PUSH1 0xFF PUSH1 0x7 DUP4 ADD SLOAD AND PUSH1 0x6 DUP2 LT ISZERO PUSH2 0x73A JUMPI PUSH1 0x1 PUSH2 0x588 SWAP2 EQ PUSH2 0x15F2 JUMP JUMPDEST PUSH1 0xA DUP3 ADD SLOAD TIMESTAMP GT PUSH2 0x6FF JUMPI DUP4 PUSH1 0x0 MSTORE PUSH1 0x3 DUP6 MSTORE PUSH1 0x40 PUSH1 0x0 KECCAK256 CALLER PUSH1 0x0 MSTORE DUP6 MSTORE PUSH1 0xFF PUSH1 0x40 PUSH1 0x0 KECCAK256 SLOAD AND PUSH2 0x6CC JUMPI PUSH1 0x40 MLOAD PUSH4 0x70A08231 PUSH1 0xE0 SHL DUP2 MSTORE CALLER PUSH1 0x4 DUP3 ADD MSTORE SWAP1 DUP6 DUP3 DUP3 DUP2 PUSH32 0x0 PUSH1 0x1 PUSH1 0x1 PUSH1 0xA0 SHL SUB AND GAS STATICCALL SWAP2 DUP3 ISZERO PUSH2 0x3D8 JUMPI PUSH1 0x0 SWAP3 PUSH2 0x69D JUMPI JUMPDEST POP DUP2 ISZERO PUSH2 0x667 JUMPI POP PUSH2 0x617 SWAP1 PUSH2 0x19DE JUMP JUMPDEST SWAP2 ISZERO PUSH2 0x651 JUMPI PUSH1 0x8 PUSH2 0x62C SWAP2 ADD SWAP2 DUP3 SLOAD PUSH2 0x1683 JUMP JUMPDEST SWAP1 SSTORE JUMPDEST PUSH1 0x0 SWAP1 DUP2 MSTORE PUSH1 0x3 DUP3 MSTORE PUSH1 0x40 DUP1 DUP3 KECCAK256 CALLER DUP4 MSTORE SWAP1 SWAP3 MSTORE KECCAK256 DUP1 SLOAD PUSH1 0xFF NOT AND PUSH1 0x1 OR SWAP1 SSTORE STOP JUMPDEST PUSH1 0x9 PUSH2 0x660 SWAP2 ADD SWAP2 DUP3 SLOAD PUSH2 0x1683 JUMP JUMPDEST SWAP1 SSTORE PUSH2 0x62F JUMP JUMPDEST DUP6 PUSH1 0x10 PUSH1 0x64 SWAP3 PUSH1 0x40 MLOAD SWAP3 PUSH3 0x461BCD PUSH1 0xE5 SHL DUP5 MSTORE PUSH1 0x4 DUP5 ADD MSTORE DUP3 ADD MSTORE PUSH16 0x4E6F20766F74696E6720726967687473 PUSH1 0x80 SHL PUSH1 0x44 DUP3 ADD MSTORE REVERT JUMPDEST SWAP1 SWAP2 POP DUP6 DUP2 DUP2 RETURNDATASIZE DUP4 GT PUSH2 0x6C5 JUMPI JUMPDEST PUSH2 0x6B5 DUP2 DUP4 PUSH2 0x11CE JUMP JUMPDEST DUP2 ADD SUB SLT PUSH2 0xE8 JUMPI MLOAD SWAP1 DUP7 PUSH2 0x606 JUMP JUMPDEST POP RETURNDATASIZE PUSH2 0x6AB JUMP JUMPDEST DUP5 PUSH1 0xD PUSH1 0x64 SWAP3 PUSH1 0x40 MLOAD SWAP3 PUSH3 0x461BCD PUSH1 0xE5 SHL DUP5 MSTORE PUSH1 0x4 DUP5 ADD MSTORE DUP3 ADD MSTORE PUSH13 0x105B1C9958591E481D9BDD1959 PUSH1 0x9A SHL PUSH1 0x44 DUP3 ADD MSTORE REVERT JUMPDEST DUP5 PUSH1 0x15 PUSH1 0x64 SWAP3 PUSH1 0x40 MLOAD SWAP3 PUSH3 0x461BCD PUSH1 0xE5 SHL DUP5 MSTORE PUSH1 0x4 DUP5 ADD MSTORE DUP3 ADD MSTORE PUSH21 0x2B37BA34B733903832B934B7B21034B99037BB32B9 PUSH1 0x59 SHL PUSH1 0x44 DUP3 ADD MSTORE REVERT JUMPDEST POP PUSH4 0x4E487B71 PUSH1 0xE0 SHL PUSH1 0x0 SWAP1 DUP2 MSTORE PUSH1 0x21 PUSH1 0x4 MSTORE REVERT JUMPDEST CALLVALUE PUSH2 0xE8 JUMPI PUSH1 0x0 CALLDATASIZE PUSH1 0x3 NOT ADD SLT PUSH2 0xE8 JUMPI PUSH1 0x20 PUSH1 0x6 SLOAD PUSH1 0x40 MLOAD SWAP1 DUP2 MSTORE RETURN JUMPDEST CALLVALUE PUSH2 0xE8 JUMPI PUSH2 0x120 CALLDATASIZE PUSH1 0x3 NOT ADD SLT PUSH2 0xE8 JUMPI PUSH1 0x4 CALLDATALOAD PUSH8 0xFFFFFFFFFFFFFFFF DUP2 GT PUSH2 0xE8 JUMPI PUSH2 0x79F SWAP1 CALLDATASIZE SWAP1 PUSH1 0x4 ADD PUSH2 0x12F8 JUMP JUMPDEST PUSH1 0xA4 CALLDATALOAD PUSH8 0xFFFFFFFFFFFFFFFF DUP2 GT PUSH2 0xE8 JUMPI PUSH2 0x7BF SWAP1 CALLDATASIZE SWAP1 PUSH1 0x4 ADD PUSH2 0x12F8 JUMP JUMPDEST SWAP1 PUSH1 0xC4 CALLDATALOAD PUSH8 0xFFFFFFFFFFFFFFFF DUP2 GT PUSH2 0xE8 JUMPI PUSH2 0x7E0 SWAP1 CALLDATASIZE SWAP1 PUSH1 0x4 ADD PUSH2 0x12F8 JUMP JUMPDEST SWAP2 PUSH8 0xFFFFFFFFFFFFFFFF PUSH1 0xE4 CALLDATALOAD GT PUSH2 0xE8 JUMPI PUSH2 0x801 CALLDATASIZE PUSH1 0xE4 CALLDATALOAD PUSH1 0x4 ADD PUSH2 0x12F8 JUMP JUMPDEST SWAP3 DUP3 MLOAD ISZERO PUSH2 0xEE2 JUMPI TIMESTAMP PUSH1 0x44 CALLDATALOAD GT ISZERO PUSH2 0xE9E JUMPI PUSH1 0x44 CALLDATALOAD PUSH1 0x64 CALLDATALOAD GT ISZERO PUSH2 0xE4F JUMPI PUSH1 0x84 CALLDATALOAD ISZERO PUSH2 0xE0B JUMPI CALLER PUSH1 0x0 MSTORE PUSH1 0x4 PUSH1 0x20 MSTORE PUSH2 0x844 PUSH1 0x40 PUSH1 0x0 KECCAK256 SWAP5 PUSH2 0x104 CALLDATALOAD SWAP1 CALLER PUSH2 0x1374 JUMP JUMPDEST PUSH1 0x24 CALLDATALOAD DUP5 SLOAD LT PUSH2 0xDC6 JUMPI PUSH1 0x1 SLOAD SWAP2 PUSH2 0x85B DUP4 PUSH2 0x16D1 JUMP JUMPDEST PUSH1 0x1 SSTORE PUSH2 0x86A PUSH1 0x5 SLOAD TIMESTAMP PUSH2 0x1683 JUMP JUMPDEST SWAP2 PUSH1 0xFF PUSH1 0x1 DUP8 ADD SLOAD AND SWAP2 PUSH1 0x40 MLOAD SWAP4 DUP5 PUSH2 0x1C0 DUP2 ADD LT PUSH8 0xFFFFFFFFFFFFFFFF PUSH2 0x1C0 DUP8 ADD GT OR PUSH2 0xC10 JUMPI PUSH2 0x1C0 DUP6 ADD PUSH1 0x40 MSTORE CALLER DUP6 MSTORE DUP7 PUSH1 0x20 DUP7 ADD MSTORE PUSH1 0x24 CALLDATALOAD PUSH1 0x40 DUP7 ADD MSTORE PUSH1 0x44 CALLDATALOAD PUSH1 0x60 DUP7 ADD MSTORE PUSH1 0x64 CALLDATALOAD PUSH1 0x80 DUP7 ADD MSTORE PUSH1 0x84 CALLDATALOAD PUSH1 0xA0 DUP7 ADD MSTORE PUSH1 0x0 PUSH1 0xC0 DUP7 ADD MSTORE PUSH1 0x1 PUSH1 0xE0 DUP7 ADD MSTORE PUSH1 0x0 PUSH2 0x100 DUP7 ADD MSTORE PUSH1 0x0 PUSH2 0x120 DUP7 ADD MSTORE PUSH2 0x140 DUP6 ADD MSTORE PUSH2 0x160 DUP5 ADD MSTORE PUSH2 0x180 DUP4 ADD MSTORE PUSH1 0x4 DUP2 LT ISZERO PUSH2 0x516 JUMPI PUSH2 0x1A0 DUP3 ADD MSTORE DUP2 PUSH1 0x0 MSTORE PUSH1 0x2 PUSH1 0x20 MSTORE PUSH1 0x40 PUSH1 0x0 KECCAK256 SWAP1 PUSH1 0x1 DUP1 PUSH1 0xA0 SHL SUB DUP2 MLOAD AND PUSH12 0xFFFFFFFFFFFFFFFFFFFFFFFF PUSH1 0xA0 SHL DUP4 SLOAD AND OR DUP3 SSTORE PUSH1 0x20 DUP2 ADD MLOAD DUP1 MLOAD SWAP1 PUSH8 0xFFFFFFFFFFFFFFFF DUP3 GT PUSH2 0xC10 JUMPI DUP2 SWAP1 PUSH2 0x958 PUSH1 0x1 DUP7 ADD SLOAD PUSH2 0x1194 JUMP JUMPDEST PUSH1 0x1F DUP2 GT PUSH2 0xD73 JUMPI JUMPDEST POP PUSH1 0x20 SWAP1 PUSH1 0x1F DUP4 GT PUSH1 0x1 EQ PUSH2 0xD01 JUMPI PUSH1 0x0 SWAP3 PUSH2 0xCF6 JUMPI JUMPDEST POP POP DUP2 PUSH1 0x1 SHL SWAP2 PUSH1 0x0 NOT SWAP1 PUSH1 0x3 SHL SHR NOT AND OR PUSH1 0x1 DUP4 ADD SSTORE JUMPDEST PUSH1 0x40 DUP2 ADD MLOAD PUSH1 0x2 DUP4 ADD SSTORE PUSH1 0x60 DUP2 ADD MLOAD PUSH1 0x3 DUP4 ADD SSTORE PUSH1 0x80 DUP2 ADD MLOAD PUSH1 0x4 DUP4 ADD SSTORE PUSH1 0xA0 DUP2 ADD MLOAD PUSH1 0x5 DUP4 ADD SSTORE PUSH1 0xC0 DUP2 ADD MLOAD PUSH1 0x6 DUP4 ADD SSTORE PUSH1 0x7 DUP3 ADD PUSH1 0xE0 DUP3 ADD MLOAD PUSH1 0x6 DUP2 LT ISZERO PUSH2 0x516 JUMPI PUSH1 0xFF DUP1 NOT DUP4 SLOAD AND SWAP2 AND OR SWAP1 SSTORE PUSH2 0x100 DUP2 ADD MLOAD PUSH1 0x8 DUP4 ADD SSTORE PUSH2 0x120 DUP2 ADD MLOAD PUSH1 0x9 DUP4 ADD SSTORE PUSH2 0x140 DUP2 ADD MLOAD PUSH1 0xA DUP4 ADD SSTORE PUSH2 0x160 DUP2 ADD MLOAD DUP1 MLOAD SWAP1 PUSH8 0xFFFFFFFFFFFFFFFF DUP3 GT PUSH2 0xC10 JUMPI DUP2 SWAP1 PUSH2 0xA28 PUSH1 0xB DUP7 ADD SLOAD PUSH2 0x1194 JUMP JUMPDEST PUSH1 0x1F DUP2 GT PUSH2 0xCA3 JUMPI JUMPDEST POP PUSH1 0x20 SWAP1 PUSH1 0x1F DUP4 GT PUSH1 0x1 EQ PUSH2 0xC31 JUMPI PUSH1 0x0 SWAP3 PUSH2 0xC26 JUMPI JUMPDEST POP POP DUP2 PUSH1 0x1 SHL SWAP2 PUSH1 0x0 NOT SWAP1 PUSH1 0x3 SHL SHR NOT AND OR PUSH1 0xB DUP4 ADD SSTORE JUMPDEST PUSH2 0x180 DUP2 ADD MLOAD DUP1 MLOAD SWAP1 PUSH8 0xFFFFFFFFFFFFFFFF DUP3 GT PUSH2 0xC10 JUMPI PUSH2 0xA85 PUSH1 0xC DUP6 ADD SLOAD PUSH2 0x1194 JUMP JUMPDEST PUSH1 0x1F DUP2 GT PUSH2 0xBC9 JUMPI JUMPDEST POP PUSH1 0x20 SWAP1 PUSH1 0x1F DUP4 GT PUSH1 0x1 EQ PUSH2 0xB55 JUMPI PUSH2 0x1A0 SWAP4 SWAP3 SWAP2 PUSH1 0x0 SWAP2 DUP4 PUSH2 0xB4A JUMPI JUMPDEST POP POP DUP2 PUSH1 0x1 SHL SWAP2 PUSH1 0x0 NOT SWAP1 PUSH1 0x3 SHL SHR NOT AND OR PUSH1 0xC DUP5 ADD SSTORE JUMPDEST ADD MLOAD PUSH1 0x4 DUP2 LT ISZERO PUSH2 0x516 JUMPI PUSH32 0xE70C2C8FE6B59E8D5E3FD9776FA5C77A60227915CE36B96F444065A3DEF0FAD8 SWAP5 PUSH2 0xB02 PUSH1 0x1 SWAP3 PUSH1 0xD PUSH1 0xFF SWAP6 ADD PUSH2 0x16E0 JUMP JUMPDEST PUSH1 0x2 DUP2 ADD PUSH2 0xB10 DUP2 SLOAD PUSH2 0x16D1 JUMP JUMPDEST SWAP1 SSTORE ADD SLOAD AND PUSH2 0xB45 PUSH2 0xB3A PUSH1 0x40 MLOAD SWAP5 DUP6 SWAP5 DUP6 MSTORE CALLER PUSH1 0x20 DUP7 ADD MSTORE PUSH1 0x80 PUSH1 0x40 DUP7 ADD MSTORE PUSH1 0x80 DUP6 ADD SWAP1 PUSH2 0x1295 JUMP JUMPDEST SWAP2 PUSH1 0x60 DUP5 ADD SWAP1 PUSH2 0x12D5 JUMP JUMPDEST SUB SWAP1 LOG1 STOP JUMPDEST ADD MLOAD SWAP1 POP DUP9 DUP1 PUSH2 0xAAC JUMP JUMPDEST SWAP1 PUSH1 0xC DUP6 ADD PUSH1 0x0 MSTORE PUSH1 0x20 PUSH1 0x0 KECCAK256 SWAP2 PUSH1 0x0 JUMPDEST PUSH1 0x1F NOT DUP6 AND DUP2 LT PUSH2 0xBB1 JUMPI POP SWAP2 DUP4 SWAP2 PUSH1 0x1 SWAP4 PUSH2 0x1A0 SWAP7 SWAP6 PUSH1 0x1F NOT DUP2 AND LT PUSH2 0xB98 JUMPI JUMPDEST POP POP POP DUP2 SHL ADD PUSH1 0xC DUP5 ADD SSTORE PUSH2 0xAC4 JUMP JUMPDEST ADD MLOAD PUSH1 0x0 NOT PUSH1 0xF8 DUP5 PUSH1 0x3 SHL AND SHR NOT AND SWAP1 SSTORE DUP9 DUP1 DUP1 PUSH2 0xB88 JUMP JUMPDEST SWAP2 SWAP3 PUSH1 0x20 PUSH1 0x1 DUP2 SWAP3 DUP7 DUP6 ADD MLOAD DUP2 SSTORE ADD SWAP5 ADD SWAP3 ADD PUSH2 0xB66 JUMP JUMPDEST PUSH1 0xC DUP6 ADD PUSH1 0x0 MSTORE PUSH1 0x20 PUSH1 0x0 KECCAK256 PUSH1 0x1F DUP5 ADD PUSH1 0x5 SHR DUP2 ADD PUSH1 0x20 DUP6 LT PUSH2 0xC09 JUMPI JUMPDEST PUSH1 0x1F DUP4 ADD PUSH1 0x5 SHR DUP3 ADD DUP2 LT PUSH2 0xBFD JUMPI POP POP PUSH2 0xA8E JUMP JUMPDEST PUSH1 0x0 DUP2 SSTORE PUSH1 0x1 ADD PUSH2 0xBE7 JUMP JUMPDEST POP DUP1 PUSH2 0xBE7 JUMP JUMPDEST PUSH4 0x4E487B71 PUSH1 0xE0 SHL PUSH1 0x0 MSTORE PUSH1 0x41 PUSH1 0x4 MSTORE PUSH1 0x24 PUSH1 0x0 REVERT JUMPDEST ADD MLOAD SWAP1 POP DUP8 DUP1 PUSH2 0xA48 JUMP JUMPDEST SWAP3 POP PUSH1 0xB DUP6 ADD PUSH1 0x0 MSTORE PUSH1 0x20 PUSH1 0x0 KECCAK256 SWAP1 PUSH1 0x0 SWAP4 JUMPDEST PUSH1 0x1F NOT DUP5 AND DUP6 LT PUSH2 0xC88 JUMPI PUSH1 0x1 SWAP5 POP DUP4 PUSH1 0x1F NOT DUP2 AND LT PUSH2 0xC6F JUMPI JUMPDEST POP POP POP DUP2 SHL ADD PUSH1 0xB DUP4 ADD SSTORE PUSH2 0xA60 JUMP JUMPDEST ADD MLOAD PUSH1 0x0 NOT PUSH1 0xF8 DUP5 PUSH1 0x3 SHL AND SHR NOT AND SWAP1 SSTORE DUP8 DUP1 DUP1 PUSH2 0xC5F JUMP JUMPDEST DUP2 DUP2 ADD MLOAD DUP4 SSTORE PUSH1 0x20 SWAP5 DUP6 ADD SWAP5 PUSH1 0x1 SWAP1 SWAP4 ADD SWAP3 SWAP1 SWAP2 ADD SWAP1 PUSH2 0xC44 JUMP JUMPDEST SWAP1 SWAP2 POP PUSH1 0xB DUP6 ADD PUSH1 0x0 MSTORE PUSH1 0x20 PUSH1 0x0 KECCAK256 PUSH1 0x1F DUP5 ADD PUSH1 0x5 SHR DUP2 ADD PUSH1 0x20 DUP6 LT PUSH2 0xCEF JUMPI JUMPDEST SWAP1 DUP5 SWAP4 SWAP3 SWAP2 JUMPDEST PUSH1 0x1F DUP4 ADD PUSH1 0x5 SHR DUP3 ADD DUP2 LT PUSH2 0xCE0 JUMPI POP POP PUSH2 0xA31 JUMP JUMPDEST PUSH1 0x0 DUP2 SSTORE DUP6 SWAP5 POP PUSH1 0x1 ADD PUSH2 0xCCA JUMP JUMPDEST POP DUP1 PUSH2 0xCC4 JUMP JUMPDEST ADD MLOAD SWAP1 POP DUP8 DUP1 PUSH2 0x978 JUMP JUMPDEST SWAP3 POP PUSH1 0x1 DUP6 ADD PUSH1 0x0 MSTORE PUSH1 0x20 PUSH1 0x0 KECCAK256 SWAP1 PUSH1 0x0 SWAP4 JUMPDEST PUSH1 0x1F NOT DUP5 AND DUP6 LT PUSH2 0xD58 JUMPI PUSH1 0x1 SWAP5 POP DUP4 PUSH1 0x1F NOT DUP2 AND LT PUSH2 0xD3F JUMPI JUMPDEST POP POP POP DUP2 SHL ADD PUSH1 0x1 DUP4 ADD SSTORE PUSH2 0x990 JUMP JUMPDEST ADD MLOAD PUSH1 0x0 NOT PUSH1 0xF8 DUP5 PUSH1 0x3 SHL AND SHR NOT AND SWAP1 SSTORE DUP8 DUP1 DUP1 PUSH2 0xD2F JUMP JUMPDEST DUP2 DUP2 ADD MLOAD DUP4 SSTORE PUSH1 0x20 SWAP5 DUP6 ADD SWAP5 PUSH1 0x1 SWAP1 SWAP4 ADD SWAP3 SWAP1 SWAP2 ADD SWAP1 PUSH2 0xD14 JUMP JUMPDEST SWAP1 SWAP2 POP PUSH1 0x1 DUP6 ADD PUSH1 0x0 MSTORE PUSH1 0x20 PUSH1 0x0 KECCAK256 PUSH1 0x1F DUP5 ADD PUSH1 0x5 SHR DUP2 ADD PUSH1 0x20 DUP6 LT PUSH2 0xDBF JUMPI JUMPDEST SWAP1 DUP5 SWAP4 SWAP3 SWAP2 JUMPDEST PUSH1 0x1F DUP4 ADD PUSH1 0x5 SHR DUP3 ADD DUP2 LT PUSH2 0xDB0 JUMPI POP POP PUSH2 0x961 JUMP JUMPDEST PUSH1 0x0 DUP2 SSTORE DUP6 SWAP5 POP PUSH1 0x1 ADD PUSH2 0xD9A JUMP JUMPDEST POP DUP1 PUSH2 0xD94 JUMP JUMPDEST PUSH1 0x40 MLOAD PUSH3 0x461BCD PUSH1 0xE5 SHL DUP2 MSTORE PUSH1 0x20 PUSH1 0x4 DUP3 ADD MSTORE PUSH1 0x17 PUSH1 0x24 DUP3 ADD MSTORE PUSH32 0x496E73756666696369656E742072657075746174696F6E000000000000000000 PUSH1 0x44 DUP3 ADD MSTORE PUSH1 0x64 SWAP1 REVERT JUMPDEST PUSH1 0x64 PUSH1 0x40 MLOAD PUSH3 0x461BCD PUSH1 0xE5 SHL DUP2 MSTORE PUSH1 0x20 PUSH1 0x4 DUP3 ADD MSTORE PUSH1 0x20 PUSH1 0x24 DUP3 ADD MSTORE PUSH32 0x427564676574206D7573742062652067726561746572207468616E207A65726F PUSH1 0x44 DUP3 ADD MSTORE REVERT JUMPDEST PUSH1 0x40 MLOAD PUSH3 0x461BCD PUSH1 0xE5 SHL DUP2 MSTORE PUSH1 0x20 PUSH1 0x4 DUP3 ADD MSTORE PUSH1 0x21 PUSH1 0x24 DUP3 ADD MSTORE PUSH32 0x456E642074696D65206D7573742062652061667465722073746172742074696D PUSH1 0x44 DUP3 ADD MSTORE PUSH1 0x65 PUSH1 0xF8 SHL PUSH1 0x64 DUP3 ADD MSTORE PUSH1 0x84 SWAP1 REVERT JUMPDEST PUSH1 0x64 PUSH1 0x40 MLOAD PUSH3 0x461BCD PUSH1 0xE5 SHL DUP2 MSTORE PUSH1 0x20 PUSH1 0x4 DUP3 ADD MSTORE PUSH1 0x20 PUSH1 0x24 DUP3 ADD MSTORE PUSH32 0x53746172742074696D65206D75737420626520696E2074686520667574757265 PUSH1 0x44 DUP3 ADD MSTORE REVERT JUMPDEST PUSH1 0x40 MLOAD PUSH3 0x461BCD PUSH1 0xE5 SHL DUP2 MSTORE PUSH1 0x20 PUSH1 0x4 DUP3 ADD MSTORE PUSH1 0x1C PUSH1 0x24 DUP3 ADD MSTORE PUSH32 0x43616D706169676E205552492063616E6E6F7420626520656D70747900000000 PUSH1 0x44 DUP3 ADD MSTORE PUSH1 0x64 SWAP1 REVERT JUMPDEST CALLVALUE PUSH2 0xE8 JUMPI PUSH1 0x40 CALLDATASIZE PUSH1 0x3 NOT ADD SLT PUSH2 0xE8 JUMPI PUSH1 0x24 CALLDATALOAD PUSH1 0x1 PUSH1 0x1 PUSH1 0xA0 SHL SUB DUP2 AND SWAP1 DUP2 SWAP1 SUB PUSH2 0xE8 JUMPI PUSH1 0x4 CALLDATALOAD PUSH1 0x0 MSTORE PUSH1 0x3 PUSH1 0x20 MSTORE PUSH1 0x40 PUSH1 0x0 KECCAK256 SWAP1 PUSH1 0x0 MSTORE PUSH1 0x20 MSTORE PUSH1 0x20 PUSH1 0xFF PUSH1 0x40 PUSH1 0x0 KECCAK256 SLOAD AND PUSH1 0x40 MLOAD SWAP1 ISZERO ISZERO DUP2 MSTORE RETURN JUMPDEST CALLVALUE PUSH2 0xE8 JUMPI PUSH1 0x0 CALLDATASIZE PUSH1 0x3 NOT ADD SLT PUSH2 0xE8 JUMPI PUSH1 0x20 PUSH1 0x1 SLOAD PUSH1 0x40 MLOAD SWAP1 DUP2 MSTORE RETURN JUMPDEST CALLVALUE PUSH2 0xE8 JUMPI PUSH1 0x20 CALLDATASIZE PUSH1 0x3 NOT ADD SLT PUSH2 0xE8 JUMPI PUSH1 0x4 CALLDATALOAD PUSH2 0xFB8 PUSH1 0x1 SLOAD DUP3 LT PUSH2 0x15B0 JUMP JUMPDEST PUSH1 0x0 MSTORE PUSH1 0x2 PUSH1 0x20 MSTORE PUSH1 0x40 PUSH1 0x0 KECCAK256 PUSH1 0xFF PUSH1 0x7 DUP3 ADD SLOAD AND SWAP1 PUSH1 0x6 DUP3 LT ISZERO PUSH2 0x516 JUMPI PUSH2 0xFE5 PUSH1 0x1 PUSH1 0x40 SWAP4 EQ PUSH2 0x15F2 JUMP JUMPDEST PUSH2 0xFF4 PUSH1 0xA DUP3 ADD SLOAD TIMESTAMP GT PUSH2 0x163E JUMP JUMPDEST PUSH1 0x9 PUSH1 0x8 DUP3 ADD SLOAD SWAP2 ADD SLOAD PUSH2 0xDC PUSH2 0x282 DUP3 DUP5 PUSH2 0x1683 JUMP JUMPDEST CALLVALUE PUSH2 0xE8 JUMPI PUSH1 0x60 CALLDATASIZE PUSH1 0x3 NOT ADD SLT PUSH2 0xE8 JUMPI PUSH2 0x1024 PUSH2 0x12E2 JUMP JUMPDEST PUSH1 0x24 CALLDATALOAD SWAP1 PUSH8 0xFFFFFFFFFFFFFFFF DUP3 GT PUSH2 0xE8 JUMPI PUSH2 0x1048 PUSH2 0x3A7 SWAP3 CALLDATASIZE SWAP1 PUSH1 0x4 ADD PUSH2 0x12F8 JUMP JUMPDEST PUSH1 0x44 CALLDATALOAD SWAP2 PUSH2 0x1374 JUMP JUMPDEST CALLVALUE PUSH2 0xE8 JUMPI PUSH1 0x20 CALLDATASIZE PUSH1 0x3 NOT ADD SLT PUSH2 0xE8 JUMPI PUSH1 0x4 CALLDATALOAD PUSH1 0x0 SWAP1 DUP2 MSTORE PUSH1 0x2 PUSH1 0x20 MSTORE PUSH1 0x40 SWAP1 KECCAK256 DUP1 SLOAD PUSH1 0x1 PUSH1 0x1 PUSH1 0xA0 SHL SUB AND SWAP1 PUSH2 0x108B PUSH1 0x1 DUP3 ADD PUSH2 0x11F0 JUMP JUMPDEST SWAP2 PUSH1 0x2 DUP3 ADD SLOAD SWAP1 PUSH1 0x3 DUP4 ADD SLOAD SWAP1 PUSH1 0x4 DUP5 ADD SLOAD SWAP4 PUSH1 0x5 DUP2 ADD SLOAD SWAP3 PUSH1 0x6 DUP3 ADD SLOAD SWAP3 PUSH1 0x7 DUP4 ADD SLOAD PUSH1 0xFF AND SWAP2 PUSH1 0x8 DUP5 ADD SLOAD SWAP5 PUSH1 0x9 DUP6 ADD SLOAD SWAP7 PUSH1 0xA DUP7 ADD SLOAD SWAP10 PUSH1 0xB DUP8 ADD PUSH2 0x10D2 SWAP1 PUSH2 0x11F0 JUMP JUMPDEST SWAP4 PUSH2 0x10DF PUSH1 0xC DUP10 ADD PUSH2 0x11F0 JUMP JUMPDEST SWAP8 PUSH1 0xD ADD SLOAD PUSH1 0xFF AND SWAP11 PUSH1 0x40 MLOAD SWAP14 DUP15 SWAP8 PUSH2 0x1C0 SWAP1 DUP10 MSTORE DUP1 PUSH1 0x20 DUP11 ADD MSTORE DUP9 ADD PUSH2 0x1105 SWAP2 PUSH2 0x1295 JUMP JUMPDEST SWAP7 PUSH1 0x40 ADD MSTORE PUSH1 0x60 DUP14 ADD MSTORE PUSH1 0x80 DUP13 ADD MSTORE PUSH1 0xA0 DUP12 ADD MSTORE PUSH1 0xC0 DUP11 ADD MSTORE PUSH1 0x6 DUP4 LT ISZERO PUSH2 0x516 JUMPI DUP9 SWAP8 PUSH2 0x1175 SWAP7 PUSH2 0x1169 SWAP7 PUSH2 0x115A SWAP6 PUSH1 0xE0 DUP13 ADD MSTORE PUSH2 0x100 DUP12 ADD MSTORE PUSH2 0x120 DUP11 ADD MSTORE PUSH2 0x140 DUP10 ADD MSTORE DUP8 DUP3 SUB PUSH2 0x160 DUP10 ADD MSTORE PUSH2 0x1295 JUMP JUMPDEST SWAP1 DUP6 DUP3 SUB PUSH2 0x180 DUP8 ADD MSTORE PUSH2 0x1295 JUMP JUMPDEST SWAP2 PUSH2 0x1A0 DUP5 ADD SWAP1 PUSH2 0x12D5 JUMP JUMPDEST SUB SWAP1 RETURN JUMPDEST CALLVALUE PUSH2 0xE8 JUMPI PUSH1 0x0 CALLDATASIZE PUSH1 0x3 NOT ADD SLT PUSH2 0xE8 JUMPI PUSH1 0x20 SWAP1 PUSH1 0x5 SLOAD DUP2 MSTORE RETURN JUMPDEST SWAP1 PUSH1 0x1 DUP3 DUP2 SHR SWAP3 AND DUP1 ISZERO PUSH2 0x11C4 JUMPI JUMPDEST PUSH1 0x20 DUP4 LT EQ PUSH2 0x11AE JUMPI JUMP JUMPDEST PUSH4 0x4E487B71 PUSH1 0xE0 SHL PUSH1 0x0 MSTORE PUSH1 0x22 PUSH1 0x4 MSTORE PUSH1 0x24 PUSH1 0x0 REVERT JUMPDEST SWAP2 PUSH1 0x7F AND SWAP2 PUSH2 0x11A3 JUMP JUMPDEST SWAP1 PUSH1 0x1F DUP1 NOT SWAP2 ADD AND DUP2 ADD SWAP1 DUP2 LT PUSH8 0xFFFFFFFFFFFFFFFF DUP3 GT OR PUSH2 0xC10 JUMPI PUSH1 0x40 MSTORE JUMP JUMPDEST SWAP1 PUSH1 0x40 MLOAD SWAP2 DUP3 PUSH1 0x0 DUP3 SLOAD PUSH2 0x1203 DUP2 PUSH2 0x1194 JUMP JUMPDEST SWAP1 DUP2 DUP5 MSTORE PUSH1 0x20 SWAP5 PUSH1 0x1 SWAP2 PUSH1 0x1 DUP2 AND SWAP1 DUP2 PUSH1 0x0 EQ PUSH2 0x1273 JUMPI POP PUSH1 0x1 EQ PUSH2 0x1234 JUMPI JUMPDEST POP POP POP PUSH2 0x1232 SWAP3 POP SUB DUP4 PUSH2 0x11CE JUMP JUMPDEST JUMP JUMPDEST PUSH1 0x0 SWAP1 DUP2 MSTORE DUP6 DUP2 KECCAK256 SWAP6 SWAP4 POP SWAP2 SWAP1 JUMPDEST DUP2 DUP4 LT PUSH2 0x125B JUMPI POP POP PUSH2 0x1232 SWAP4 POP DUP3 ADD ADD CODESIZE DUP1 DUP1 PUSH2 0x1223 JUMP JUMPDEST DUP6 SLOAD DUP9 DUP5 ADD DUP6 ADD MSTORE SWAP5 DUP6 ADD SWAP5 DUP8 SWAP5 POP SWAP2 DUP4 ADD SWAP2 PUSH2 0x1242 JUMP JUMPDEST SWAP3 POP POP POP PUSH2 0x1232 SWAP5 SWAP3 POP PUSH1 0xFF NOT AND DUP3 DUP5 ADD MSTORE ISZERO ISZERO PUSH1 0x5 SHL DUP3 ADD ADD CODESIZE DUP1 DUP1 PUSH2 0x1223 JUMP JUMPDEST SWAP2 SWAP1 DUP3 MLOAD SWAP3 DUP4 DUP3 MSTORE PUSH1 0x0 JUMPDEST DUP5 DUP2 LT PUSH2 0x12C1 JUMPI POP POP DUP3 PUSH1 0x0 PUSH1 0x20 DUP1 SWAP5 SWAP6 DUP5 ADD ADD MSTORE PUSH1 0x1F DUP1 NOT SWAP2 ADD AND ADD ADD SWAP1 JUMP JUMPDEST PUSH1 0x20 DUP2 DUP4 ADD DUP2 ADD MLOAD DUP5 DUP4 ADD DUP3 ADD MSTORE ADD PUSH2 0x12A0 JUMP JUMPDEST SWAP1 PUSH1 0x4 DUP3 LT ISZERO PUSH2 0x516 JUMPI MSTORE JUMP JUMPDEST PUSH1 0x4 CALLDATALOAD SWAP1 PUSH1 0x1 PUSH1 0x1 PUSH1 0xA0 SHL SUB DUP3 AND DUP3 SUB PUSH2 0xE8 JUMPI JUMP JUMPDEST DUP2 PUSH1 0x1F DUP3 ADD SLT ISZERO PUSH2 0xE8 JUMPI DUP1 CALLDATALOAD SWAP1 PUSH8 0xFFFFFFFFFFFFFFFF DUP3 GT PUSH2 0xC10 JUMPI PUSH1 0x40 MLOAD SWAP3 PUSH2 0x132D PUSH1 0x1F DUP5 ADD PUSH1 0x1F NOT AND PUSH1 0x20 ADD DUP6 PUSH2 0x11CE JUMP JUMPDEST DUP3 DUP5 MSTORE PUSH1 0x20 DUP4 DUP4 ADD ADD GT PUSH2 0xE8 JUMPI DUP2 PUSH1 0x0 SWAP3 PUSH1 0x20 DUP1 SWAP4 ADD DUP4 DUP7 ADD CALLDATACOPY DUP4 ADD ADD MSTORE SWAP1 JUMP JUMPDEST PUSH1 0x1 PUSH1 0x1 PUSH1 0xA0 SHL SUB SWAP1 SWAP2 AND DUP2 MSTORE PUSH1 0x40 PUSH1 0x20 DUP3 ADD DUP2 SWAP1 MSTORE PUSH2 0x1371 SWAP3 SWAP2 ADD SWAP1 PUSH2 0x1295 JUMP JUMPDEST SWAP1 JUMP JUMPDEST SWAP3 SWAP2 SWAP1 SWAP3 PUSH1 0x1 DUP1 PUSH1 0xA0 SHL SUB DUP1 DUP3 AND PUSH1 0x0 DUP2 DUP2 MSTORE PUSH1 0x4 SWAP1 PUSH1 0x20 SWAP3 DUP3 DUP5 MSTORE PUSH1 0x40 SWAP9 DUP10 DUP4 KECCAK256 SWAP6 PUSH32 0x0 AND SWAP2 DUP11 MLOAD SWAP1 PUSH4 0x70A08231 PUSH1 0xE0 SHL DUP3 MSTORE DUP6 DUP3 ADD MSTORE DUP6 DUP2 PUSH1 0x24 DUP2 DUP7 GAS STATICCALL SWAP1 DUP2 ISZERO PUSH2 0x15A6 JUMPI DUP5 SWAP2 PUSH2 0x1575 JUMPI JUMPDEST POP PUSH2 0x14B8 JUMPI PUSH2 0x1408 DUP4 SWAP3 DUP7 SWAP3 DUP13 MLOAD SWAP6 DUP7 DUP1 SWAP5 DUP2 SWAP4 PUSH4 0xD0DEF521 PUSH1 0xE0 SHL DUP4 MSTORE DUP14 DUP12 DUP5 ADD PUSH2 0x134F JUMP JUMPDEST SUB SWAP3 GAS CALL SWAP4 DUP5 ISZERO PUSH2 0x14AC JUMPI DUP2 SWAP5 PUSH2 0x1468 JUMPI JUMPDEST POP POP POP DUP3 PUSH1 0x0 DUP1 MLOAD PUSH1 0x20 PUSH2 0x1B22 DUP4 CODECOPY DUP2 MLOAD SWAP2 MSTORE SWAP7 SWAP8 SWAP3 DUP7 SWAP3 PUSH2 0x1463 SWAP6 ADD SSTORE JUMPDEST SSTORE PUSH2 0x1443 DUP4 PUSH2 0x18E7 JUMP JUMPDEST MLOAD PUSH1 0x1 PUSH1 0x1 PUSH1 0xA0 SHL SUB SWAP1 SWAP3 AND DUP3 MSTORE PUSH1 0x20 DUP3 ADD SWAP3 SWAP1 SWAP3 MSTORE SWAP1 DUP2 SWAP1 PUSH1 0x40 DUP3 ADD SWAP1 JUMP JUMPDEST SUB SWAP1 LOG1 JUMP JUMPDEST SWAP1 SWAP2 DUP1 SWAP4 SWAP5 POP DUP2 RETURNDATASIZE DUP4 GT PUSH2 0x14A5 JUMPI JUMPDEST PUSH2 0x1481 DUP2 DUP4 PUSH2 0x11CE JUMP JUMPDEST DUP2 ADD SUB SLT PUSH2 0x14A2 JUMPI POP MLOAD SWAP1 DUP3 DUP2 PUSH1 0x0 DUP1 MLOAD PUSH1 0x20 PUSH2 0x1B22 DUP4 CODECOPY DUP2 MLOAD SWAP2 MSTORE PUSH2 0x141A JUMP JUMPDEST DUP1 REVERT JUMPDEST POP RETURNDATASIZE PUSH2 0x1477 JUMP JUMPDEST POP DUP9 MLOAD SWAP1 RETURNDATASIZE SWAP1 DUP3 RETURNDATACOPY RETURNDATASIZE SWAP1 REVERT JUMPDEST DUP5 SWAP4 SWAP3 SWAP5 SWAP2 DUP8 DUP7 DUP6 DUP10 ADD SWAP6 DUP7 SLOAD ISZERO PUSH1 0x0 EQ PUSH2 0x1556 JUMPI PUSH2 0x14F6 SWAP7 PUSH2 0x14DA DUP5 PUSH2 0x1756 JUMP JUMPDEST SWAP1 SSTORE DUP14 MLOAD PUSH4 0xD0DEF521 PUSH1 0xE0 SHL DUP2 MSTORE SWAP7 DUP8 SWAP6 DUP7 SWAP5 DUP6 SWAP4 DUP5 ADD PUSH2 0x134F JUMP JUMPDEST SUB SWAP3 GAS CALL DUP1 ISZERO PUSH2 0x154C JUMPI PUSH2 0x1523 JUMPI JUMPDEST POP POP POP PUSH1 0x0 DUP1 MLOAD PUSH1 0x20 PUSH2 0x1B22 DUP4 CODECOPY DUP2 MLOAD SWAP2 MSTORE SWAP4 SWAP5 DUP4 PUSH2 0x1463 SWAP3 PUSH2 0x1439 JUMP JUMPDEST DUP2 RETURNDATASIZE DUP4 GT PUSH2 0x1545 JUMPI JUMPDEST PUSH2 0x1536 DUP2 DUP4 PUSH2 0x11CE JUMP JUMPDEST DUP2 ADD SUB SLT PUSH2 0x14A2 JUMPI DUP1 DUP1 PUSH2 0x1505 JUMP JUMPDEST POP RETURNDATASIZE PUSH2 0x152C JUMP JUMPDEST DUP9 MLOAD RETURNDATASIZE DUP6 DUP3 RETURNDATACOPY RETURNDATASIZE SWAP1 REVERT JUMPDEST PUSH2 0x14F6 SWAP7 POP DUP14 MLOAD SWAP7 DUP8 SWAP6 DUP7 SWAP5 DUP6 SWAP4 PUSH4 0xD0DEF521 PUSH1 0xE0 SHL DUP6 MSTORE DUP5 ADD PUSH2 0x134F JUMP JUMPDEST SWAP1 POP DUP6 DUP2 DUP2 RETURNDATASIZE DUP4 GT PUSH2 0x159F JUMPI JUMPDEST PUSH2 0x158C DUP2 DUP4 PUSH2 0x11CE JUMP JUMPDEST DUP2 ADD SUB SLT PUSH2 0x159B JUMPI MLOAD CODESIZE PUSH2 0x13E1 JUMP JUMPDEST DUP4 DUP1 REVERT JUMPDEST POP RETURNDATASIZE PUSH2 0x1582 JUMP JUMPDEST DUP12 MLOAD RETURNDATASIZE DUP7 DUP3 RETURNDATACOPY RETURNDATASIZE SWAP1 REVERT JUMPDEST ISZERO PUSH2 0x15B7 JUMPI JUMP JUMPDEST PUSH1 0x40 MLOAD PUSH3 0x461BCD PUSH1 0xE5 SHL DUP2 MSTORE PUSH1 0x20 PUSH1 0x4 DUP3 ADD MSTORE PUSH1 0x13 PUSH1 0x24 DUP3 ADD MSTORE PUSH19 0x125B9D985B1A590818D85B5C185A59DB881251 PUSH1 0x6A SHL PUSH1 0x44 DUP3 ADD MSTORE PUSH1 0x64 SWAP1 REVERT JUMPDEST ISZERO PUSH2 0x15F9 JUMPI JUMP JUMPDEST PUSH1 0x40 MLOAD PUSH3 0x461BCD PUSH1 0xE5 SHL DUP2 MSTORE PUSH1 0x20 PUSH1 0x4 DUP3 ADD MSTORE PUSH1 0x1F PUSH1 0x24 DUP3 ADD MSTORE PUSH32 0x43616D706169676E206973206E6F7420696E20766F74696E6720737461676500 PUSH1 0x44 DUP3 ADD MSTORE PUSH1 0x64 SWAP1 REVERT JUMPDEST ISZERO PUSH2 0x1645 JUMPI JUMP JUMPDEST PUSH1 0x40 MLOAD PUSH3 0x461BCD PUSH1 0xE5 SHL DUP2 MSTORE PUSH1 0x20 PUSH1 0x4 DUP3 ADD MSTORE PUSH1 0x16 PUSH1 0x24 DUP3 ADD MSTORE PUSH22 0x2B37BA34B733903832B934B7B2103737BA1037BB32B9 PUSH1 0x51 SHL PUSH1 0x44 DUP3 ADD MSTORE PUSH1 0x64 SWAP1 REVERT JUMPDEST SWAP2 SWAP1 DUP3 ADD DUP1 SWAP3 GT PUSH2 0x3E4 JUMPI JUMP JUMPDEST ISZERO PUSH2 0x1697 JUMPI JUMP JUMPDEST PUSH1 0x40 MLOAD PUSH3 0x461BCD PUSH1 0xE5 SHL DUP2 MSTORE PUSH1 0x20 PUSH1 0x4 DUP3 ADD MSTORE PUSH1 0x12 PUSH1 0x24 DUP3 ADD MSTORE PUSH18 0x145D5BDC9D5B481B9BDD081C995858DA1959 PUSH1 0x72 SHL PUSH1 0x44 DUP3 ADD MSTORE PUSH1 0x64 SWAP1 REVERT JUMPDEST PUSH1 0x0 NOT DUP2 EQ PUSH2 0x3E4 JUMPI PUSH1 0x1 ADD SWAP1 JUMP JUMPDEST SWAP1 PUSH1 0x4 DUP2 LT ISZERO PUSH2 0x516 JUMPI PUSH1 0xFF DUP1 NOT DUP4 SLOAD AND SWAP2 AND OR SWAP1 SSTORE JUMP JUMPDEST PUSH1 0x1 DUP1 PUSH1 0xA0 SHL SUB AND PUSH1 0x0 MSTORE PUSH1 0x4 PUSH1 0x20 MSTORE PUSH1 0xFF PUSH1 0x1 PUSH1 0x40 PUSH1 0x0 KECCAK256 ADD SLOAD AND PUSH1 0x4 DUP2 LT ISZERO PUSH2 0x516 JUMPI PUSH1 0x3 DUP2 SUB PUSH2 0x172E JUMPI POP PUSH1 0x14 SWAP1 PUSH1 0xA SWAP1 JUMP JUMPDEST PUSH1 0x2 DUP2 SUB PUSH2 0x173F JUMPI POP PUSH1 0xF SWAP1 PUSH1 0x7 SWAP1 JUMP JUMPDEST PUSH1 0x1 SUB PUSH2 0x174E JUMPI PUSH1 0xA SWAP1 PUSH1 0x5 SWAP1 JUMP JUMPDEST PUSH1 0x0 SWAP1 PUSH1 0x3 SWAP1 JUMP JUMPDEST PUSH1 0x1 SWAP1 PUSH1 0x1 PUSH1 0x1 PUSH1 0xA0 SHL SUB PUSH32 0x0 DUP2 AND DUP4 DUP1 JUMPDEST PUSH2 0x17D1 JUMPI JUMPDEST PUSH1 0x40 MLOAD PUSH3 0x461BCD PUSH1 0xE5 SHL DUP2 MSTORE PUSH1 0x20 PUSH1 0x4 DUP3 ADD MSTORE PUSH1 0x1C PUSH1 0x24 DUP3 ADD MSTORE PUSH32 0x534254206E6F7420666F756E6420666F72206164766572746973657200000000 PUSH1 0x44 DUP3 ADD MSTORE PUSH1 0x64 SWAP1 REVERT JUMPDEST PUSH1 0x40 DUP1 MLOAD SWAP1 PUSH4 0x70A08231 PUSH1 0xE0 SHL DUP3 MSTORE PUSH1 0x4 DUP6 DUP8 AND SWAP3 DUP4 DUP3 DUP3 ADD MSTORE PUSH1 0x20 SWAP1 PUSH1 0x24 SWAP1 DUP3 DUP2 DUP4 DUP2 DUP12 GAS STATICCALL SWAP1 DUP2 ISZERO PUSH2 0x18DC JUMPI PUSH1 0x0 SWAP2 PUSH2 0x18AF JUMPI JUMPDEST POP DUP7 GT PUSH2 0x18A5 JUMPI DUP4 MLOAD PUSH4 0x31A9108F PUSH1 0xE1 SHL DUP2 MSTORE SWAP3 DUP4 ADD DUP7 SWAP1 MSTORE DUP2 SWAP1 DUP4 SWAP1 DUP2 DUP10 GAS STATICCALL SWAP3 DUP4 ISZERO PUSH2 0x189B JUMPI POP SWAP1 DUP7 SWAP3 SWAP2 PUSH1 0x0 SWAP3 PUSH2 0x185B JUMPI JUMPDEST POP POP AND EQ PUSH2 0x1853 JUMPI PUSH2 0x184D SWAP1 PUSH2 0x16D1 JUMP JUMPDEST DUP5 PUSH2 0x1787 JUMP JUMPDEST SWAP4 POP POP POP POP SWAP1 JUMP JUMPDEST SWAP1 DUP1 SWAP3 SWAP4 POP DUP2 RETURNDATASIZE DUP4 GT PUSH2 0x1894 JUMPI JUMPDEST PUSH2 0x1873 DUP2 DUP4 PUSH2 0x11CE JUMP JUMPDEST DUP2 ADD SUB SLT PUSH2 0x1890 JUMPI MLOAD SWAP1 DUP6 DUP3 AND DUP3 SUB PUSH2 0x14A2 JUMPI POP DUP5 SWAP1 CODESIZE DUP1 PUSH2 0x183C JUMP JUMPDEST POP DUP1 REVERT JUMPDEST POP RETURNDATASIZE PUSH2 0x1869 JUMP JUMPDEST MLOAD RETURNDATASIZE PUSH1 0x0 DUP3 RETURNDATACOPY RETURNDATASIZE SWAP1 REVERT JUMPDEST POP POP POP POP POP PUSH2 0x178C JUMP JUMPDEST SWAP1 DUP4 DUP3 DUP2 RETURNDATASIZE DUP4 GT PUSH2 0x18D5 JUMPI JUMPDEST PUSH2 0x18C5 DUP2 DUP4 PUSH2 0x11CE JUMP JUMPDEST DUP2 ADD SUB SLT PUSH2 0x14A2 JUMPI POP MLOAD CODESIZE PUSH2 0x1807 JUMP JUMPDEST POP RETURNDATASIZE PUSH2 0x18BB JUMP JUMPDEST DUP6 MLOAD RETURNDATASIZE PUSH1 0x0 DUP3 RETURNDATACOPY RETURNDATASIZE SWAP1 REVERT JUMPDEST PUSH1 0x1 PUSH1 0x1 PUSH1 0xA0 SHL SUB AND PUSH1 0x0 DUP2 DUP2 MSTORE PUSH1 0x4 PUSH1 0x20 MSTORE PUSH1 0x40 DUP2 KECCAK256 DUP1 SLOAD SWAP2 SWAP3 SWAP1 SWAP2 PUSH2 0x2710 DUP2 LT PUSH2 0x1990 JUMPI POP PUSH1 0x1 PUSH1 0x3 SWAP3 JUMPDEST ADD SWAP3 PUSH1 0xFF DUP5 SLOAD AND SWAP1 PUSH1 0x4 DUP3 LT ISZERO PUSH2 0x197C JUMPI PUSH1 0x4 DUP5 LT ISZERO PUSH2 0x197C JUMPI POP DUP3 SUB PUSH2 0x193A JUMPI POP POP POP JUMP JUMPDEST PUSH2 0x1979 DUP3 PUSH2 0x196A PUSH1 0x40 SWAP5 PUSH31 0x8C8ED48A7170769FB9D17F8C741B5EA73AA5CCCB1DD839456564BAA487F0F7 SWAP7 PUSH2 0x16E0 JUMP JUMPDEST DUP4 MLOAD SWAP3 DUP4 MSTORE PUSH1 0x20 DUP4 ADD SWAP1 PUSH2 0x12D5 JUMP JUMPDEST LOG1 JUMP JUMPDEST PUSH4 0x4E487B71 PUSH1 0xE0 SHL DUP2 MSTORE PUSH1 0x21 PUSH1 0x4 MSTORE PUSH1 0x24 SWAP1 REVERT JUMPDEST PUSH2 0x1388 DUP2 LT PUSH2 0x19A4 JUMPI POP PUSH1 0x1 PUSH1 0x2 SWAP3 PUSH2 0x1914 JUMP JUMPDEST PUSH2 0x3E8 GT PUSH2 0x19B5 JUMPI PUSH1 0x1 DUP1 SWAP3 PUSH2 0x1914 JUMP JUMPDEST PUSH1 0x1 DUP4 SWAP3 PUSH2 0x1914 JUMP JUMPDEST DUP2 ISZERO PUSH2 0x19C8 JUMPI DIV SWAP1 JUMP JUMPDEST PUSH4 0x4E487B71 PUSH1 0xE0 SHL PUSH1 0x0 MSTORE PUSH1 0x12 PUSH1 0x4 MSTORE PUSH1 0x24 PUSH1 0x0 REVERT JUMPDEST DUP1 ISZERO PUSH2 0x1B1B JUMPI PUSH2 0x1AA9 DUP2 PUSH1 0x0 SWAP1 DUP4 PUSH1 0x80 SHR DUP1 PUSH2 0x1B0F JUMPI JUMPDEST POP DUP1 PUSH1 0x40 SHR DUP1 PUSH2 0x1B02 JUMPI JUMPDEST POP DUP1 PUSH1 0x20 SHR DUP1 PUSH2 0x1AF5 JUMPI JUMPDEST POP DUP1 PUSH1 0x10 SHR DUP1 PUSH2 0x1AE8 JUMPI JUMPDEST POP DUP1 PUSH1 0x8 SHR DUP1 PUSH2 0x1ADB JUMPI JUMPDEST POP DUP1 PUSH1 0x4 SHR DUP1 PUSH2 0x1ACE JUMPI JUMPDEST POP DUP1 PUSH1 0x2 SHR DUP1 PUSH2 0x1AC1 JUMPI JUMPDEST POP PUSH1 0x1 SWAP2 DUP3 DUP1 SWAP3 DUP2 SHR PUSH2 0x1ABA JUMPI JUMPDEST SHR SHL PUSH2 0x1A51 DUP2 DUP6 PUSH2 0x19BE JUMP JUMPDEST ADD DUP2 SHR PUSH2 0x1A5E DUP2 DUP6 PUSH2 0x19BE JUMP JUMPDEST ADD DUP2 SHR PUSH2 0x1A6B DUP2 DUP6 PUSH2 0x19BE JUMP JUMPDEST ADD DUP2 SHR PUSH2 0x1A78 DUP2 DUP6 PUSH2 0x19BE JUMP JUMPDEST ADD DUP2 SHR PUSH2 0x1A85 DUP2 DUP6 PUSH2 0x19BE JUMP JUMPDEST ADD DUP2 SHR PUSH2 0x1A92 DUP2 DUP6 PUSH2 0x19BE JUMP JUMPDEST ADD DUP2 SHR PUSH2 0x1A9F DUP2 DUP6 PUSH2 0x19BE JUMP JUMPDEST ADD SWAP1 SHR DUP1 SWAP3 PUSH2 0x19BE JUMP JUMPDEST DUP1 DUP3 LT ISZERO PUSH2 0x1AB5 JUMPI POP SWAP1 JUMP JUMPDEST SWAP1 POP SWAP1 JUMP JUMPDEST ADD DUP2 PUSH2 0x1A45 JUMP JUMPDEST PUSH1 0x2 SWAP2 POP SWAP2 ADD SWAP1 CODESIZE PUSH2 0x1A37 JUMP JUMPDEST PUSH1 0x4 SWAP2 POP SWAP2 ADD SWAP1 CODESIZE PUSH2 0x1A2C JUMP JUMPDEST PUSH1 0x8 SWAP2 POP SWAP2 ADD SWAP1 CODESIZE PUSH2 0x1A21 JUMP JUMPDEST PUSH1 0x10 SWAP2 POP SWAP2 ADD SWAP1 CODESIZE PUSH2 0x1A16 JUMP JUMPDEST PUSH1 0x20 SWAP2 POP SWAP2 ADD SWAP1 CODESIZE PUSH2 0x1A0B JUMP JUMPDEST PUSH1 0x40 SWAP2 POP SWAP2 ADD SWAP1 CODESIZE PUSH2 0x1A00 JUMP JUMPDEST SWAP2 POP POP PUSH1 0x80 SWAP1 CODESIZE PUSH2 0x19F5 JUMP JUMPDEST POP PUSH1 0x0 SWAP1 JUMP INVALID 0xFC JUMPI PUSH22 0x63F1B9A0461E24ABEF1E1FCC0D33D3D881F20B5DF6DD 0xA5 SWAP14 0xE4 0xAA 0xE2 0xC8 0x21 LOG2 PUSH5 0x6970667358 0x22 SLT KECCAK256 PUSH5 0xF54538C1AE 0xC2 PUSH13 0x75856153AADC5285225030DB01 0xC0 0xAC 0xB0 0xD2 0xC2 PUSH24 0xE883A07EC664736F6C634300081800330000000000000000 "
        },
        "methodIdentifiers": {
          "advertiserProfiles(address)": "f1e8aff1",
          "airDAOSBT()": "f2dd0e71",
          "campaignIdCounter()": "2e618676",
          "campaigns(uint256)": "141961bc",
          "executeVotingResult(uint256,string)": "cb59dcb2",
          "getAdvertiserBenefits(address)": "f9f2e558",
          "getVotingResult(uint256)": "1c0d850e",
          "governanceToken()": "f96dae0a",
          "hasVoted(uint256,address)": "43859632",
          "minimumQuorum()": "8160f0b5",
          "proposeCampaign(string,uint256,uint256,uint256,uint256,string,string,string,uint256)": "6178713d",
          "updateAdvertiserProfile(address,string,uint256)": "15eab29a",
          "voteOnCampaign(uint256,bool)": "aff9adab",
          "votingPeriod()": "02a251a3"
        }
      }
    }
  }
}