{
  "_format": "hh-sol-artifact-1",
  "contractName": "mirrorEvent",
  "sourceName": "contracts/mirrorEvent.sol",
  "abi": [
    {
      "anonymous": false,
      "inputs": [
        {
          "indexed": false,
          "internalType": "string",
          "name": "_cid",
          "type": "string"
        }
      ],
      "name": "newCID",
      "type": "event"
    },
    {
      "inputs": [
        {
          "internalType": "string",
          "name": "_cid",
          "type": "string"
        }
      ],
      "name": "emitCID",
      "outputs": [],
      "stateMutability": "nonpayable",
      "type": "function"
    }
  ],
  "bytecode": "0x6080806040523461001657610178908161001c8239f35b600080fdfe6080600436101561000f57600080fd5b6000803560e01c6302f4e3601461002557600080fd5b3461013f5760208060031936011261013b5760043567ffffffffffffffff93848211610137573660238301121561013757816004013585811161012357601f199283603f81601f85011601168301968388109088111761010f57604096604052818352366024838301011161010b5781869260248793018386013783010152604051928084528151918282860152855b8381106100f857867fdf3119d672469028c249fd5e0467ed8c0eea0dd8cda29c88a7c89cf69f017b9d8760408189601f8a8785828601015201168101030190a180f35b81810183015186820189015282016100b5565b8580fd5b634e487b7160e01b86526041600452602486fd5b634e487b7160e01b85526041600452602485fd5b8380fd5b5080fd5b80fdfea2646970667358221220ceba79d62229598b6ef4b6fba95297b800f212f07713add82805397fbb92adbf64736f6c63430008180033",
  "linkReferences": {},
  "deployedLinkReferences": {}
}